:020000040800F2
:100000001808002089010008E5010008E501000842
:10001000E5010008E5010008E50100080000000016
:10002000000000000000000000000000E5010008E2
:10003000E501000800000000E5010008E5010008F6
:10004000E5010008E5010008E5010008E5010008F8
:10005000E5010008E5010008E5010008E5010008E8
:10006000E5010008E5010008E5010008E5010008D8
:10007000E5010008E5010008E5010008E5010008C8
:10008000E5010008E5010008E5010008E5010008B8
:10009000E5010008E5010008E5010008E5010008A8
:1000A000E5010008E5010008E5010008E501000898
:1000B000E5010008E5010008E5010008E501000888
:1000C000E5010008E5010008E5010008E501000878
:1000D000E5010008E5010008E5010008E501000868
:1000E000E5010008E5010008E5010008E501000858
:1000F000E5010008E5010008E5010008E501000848
:10010000E5010008E5010008E5010008E501000837
:10011000E5010008E5010008E5010008E501000827
:10012000E5010008E5010008E5010008E501000817
:10013000E5010008E5010008E5010008E501000807
:10014000E5010008E5010008E5010008E5010008F7
:10015000E5010008E5010008E5010008E5010008E7
:10016000E5010008E5010008E5010008E5010008D7
:10017000E5010008E5010008E5010008E5010008C7
:10018000E5010008E501000880B582B000AF104B22
:100190007B60104B3B6007E03B681A1D3A607A6851
:1001A000111D796012681A603A680B4B9A42F3D3BA
:1001B0000A480B494FF000028842B8BF40F8042BB0
:1001C000FFF6FAAF00F0CAF80837BD4680BD00BFA1
:1001D000F02C000800000020040000200400002093
:1001E0001400002080B400AFFEE700BF80B483B0ED
:1001F00000AF0023FB7100BF0E4B1B899BB203F0C5
:100200000203002BF8D00B4BFF229A8100BF094B51
:100210001B899BB203F00103002BF8D0054B9B898F
:100220009BB2FB71FB7918460C37BD465DF8047B29
:10023000704700BF0038004080B582B000AF0B4B64
:1002400032221A70FFF7D2FFFFF7D0FF0346FB718F
:10025000FB79FF2B04D0054B1B78DBB2002BF3D1CD
:10026000FB7918460837BD4680BD00BF0500002059
:1002700080B485B000AF0346FB7100BF0D4B1B89F6
:100280009BB203F00203002BF8D00A4BFA7992B22A
:100290009A8100BF074B1B899BB203F00103002B1F
:1002A000F8D0044B9B899BB2FB731437BD465DF8B5
:1002B000047B70470038004080B584B000AF03462F
:1002C0003960FB71FFF7B8FF0346FF2B01D0FF2316
:1002D00040E0FB791846FFF7CBFF3B681B0EDBB213
:1002E0001846FFF7C5FF3B681B0CDBB21846FFF74B
:1002F000BFFF3B681B0ADBB21846FFF7B9FF3B683C
:10030000DBB21846FFF7B4FF0023FB73FB79402BE9
:1003100001D19523FB73FB79482B01D18723FB7314
:10032000FB7B1846FFF7A4FFFB794C2B01D1FFF7AD
:100330005DFF0A23FB73FFF759FF0346BB73BB7BCB
:100340005BB2002B05DAFB7B013BFB73FB7B002BD5
:10035000F1D1BB7B18461037BD4680BD80B5ADF5E9
:100360008F6D00AF0220012100F0B2F810200121B2
:1003700000F0AEF84FF48040012100F0C7F80223EE
:1003800087F86C34002387F86E34022387F86F34C3
:10039000022387F86D344FF46043C7F8683407F5DB
:1003A0008D634748194600F0BFFD0823C7F868343D
:1003B000012387F86C34002387F86E34022387F812
:1003C0006D3407F58D633F48194600F0ADFD3D489B
:1003D000082100F037FE3A480D21052200F04EFEBC
:1003E00037480E21052200F049FE35480F2105222D
:1003F00000F044FE344802F041FB0023A7F85434D7
:100400000023A7F858340023A7F85A340023A7F88C
:100410005C344FF40073A7F85E340823A7F8603407
:100420000023A7F862340723A7F864344FF48273DB
:10043000A7F8563407F254432348194602F058FBF4
:100440002148012102F098FB1E48082100F008FE17
:100450000023C7F8743410E01B48FF2102F0ACFB06
:1004600000BF1948022102F0B5FB0346002BF8D06B
:10047000D7F874340133C7F87434D7F87434092BBF
:10048000EADD40200021FFF717FF07F50973002080
:10049000194602F089F8034687F873343B4618463C
:1004A0000A49122202F0AAF8034687F873343B4641
:1004B000184602F0CFFA034687F87334FEE700BF10
:1004C0000004024000100240003800400C2C0008DC
:1004D00080B483B000AF78600B46FB70FB78002BD4
:1004E00006D0094B084A116B7A680A431A6306E082
:1004F000054B054A116B7A68D2430A401A630C37E0
:10050000BD465DF8047B70470038024080B483B07C
:1005100000AF78600B46FB70FB78002B06D0094BD0
:10052000084A116C7A680A431A6406E0054B054ACA
:10053000116C7A68D2430A401A640C37BD465DF8E4
:10054000047B70470038024080B483B000AF78600D
:100550000B46FB70FB78002B06D0094B084A116A4A
:100560007A680A431A6206E0054B054A116A7A68FE
:10057000D2430A401A620C37BD465DF8047B7047CF
:100580000038024080B483B000AF78600B46FB7047
:10059000FB78002B06D0094B084A516A7A680A4357
:1005A0005A6206E0054B054A516A7A68D2430A400E
:1005B0005A620C37BD465DF8047B70470038024034
:1005C00080B400AF054B054A528B92B242F40062F0
:1005D00092B25A83BD465DF8047B70470004024026
:1005E00080B400AF054B054A128B92B242F4006210
:1005F00092B21A83BD465DF8047B70470004024046
:1006000080B483B000AF0346FB7100BF074B1B896A
:100610009BB203F00203002BF8D0044BFA7992B29C
:100620009A810C37BD465DF8047B70470038004066
:1006300080B483B000AF0023FB7100BF0E4B1B8959
:100640009BB203F00203002BF8D00B4BFF229A81E0
:1006500000BF094B1B899BB203F00103002BF8D0AC
:10066000054B9B899BB2FB71FB7918460C37BD4645
:100670005DF8047B704700BF0038004080B582B051
:1006800000AF7860FFF7D4FF03461A467B681A7004
:100690000837BD4680BD00BF80B582B000AF0B4BB0
:1006A00032221A70FFF7C4FFFFF7C2FF0346FB7147
:1006B000FB79FF2B04D0054B1B78DBB2002BF3D169
:1006C000FB7918460837BD4680BD00BF07000020F3
:1006D00080B582B000AFFFF783FF0023FB7105E018
:1006E000FF20FFF78DFFFB790133FB71FB79092BAD
:1006F000F6D9034B01221A700837BD4680BD00BFF2
:100700000900002080B400AF034B00221A70BD46E0
:100710005DF8047B704700BF0900002080B400AF83
:10072000034B1B781846BD465DF8047B704700BF3D
:100730000900002080B584B000AF78603960174BA5
:100740000A221A70FFF774FF0346FB73FB7BFF2B33
:1007500004D1124B1B78DBB2002BF3D1FB7BFE2BB9
:1007600001D0002316E07B685A1C7A601846FFF718
:1007700085FF7B685A1C7A601846FFF77FFF3B684D
:10078000023B3B603B68002BEDD1FFF751FFFFF7C9
:100790004FFF012318461037BD4680BD06000020DC
:1007A00080B584B000AF78600B46FB700023BB605F
:1007B000FFF772FF0346FF2B01D000233FE0FB78D9
:1007C0001846FFF71DFFFB78FD2B30D00023BB73CD
:1007D0007B685A1C7A601B781846FFF711FF7B680C
:1007E0005A1C7A601B781846FFF70AFFBB7B013B57
:1007F000BB73BB7B002BEBD1FFF71AFFFFF718FF92
:100800000CE0FFF715FF0346FB73FB7B03F01F03B0
:10081000052B00D105E0BB680133BB60BB68402BF2
:10082000EFD900BFFFF704FF0346002BFAD0FB7B94
:1008300003F01F03052B01D1012300E0002318461C
:100840001037BD4680BD00BF80B584B000AF034601
:100850003960FB71FFF720FF0346FF2B01D0FF2318
:1008600040E0FB791846FFF7CBFE3B681B0EDBB27E
:100870001846FFF7C5FE3B681B0CDBB21846FFF7B6
:10088000BFFE3B681B0ADBB21846FFF7B9FE3B68A8
:10089000DBB21846FFF7B4FE0023FB73FB79402B55
:1008A00001D19523FB73FB79482B01D18723FB737F
:1008B000FB7B1846FFF7A4FEFB794C2B01D1FFF719
:1008C000B7FE0A23FB73FFF7B3FE0346BB73BB7B84
:1008D0005BB2002B05DAFB7B013BFB73FB7B002B40
:1008E000F1D1BB7B18461037BD4680BD90B585B0B1
:1008F00000AF0346FB71FB79002B01D00123D3E04D
:100900006B4B1B78DBB203F00203002B03D0684B68
:100910001B78DBB2C8E0FFF7DBFEFFF751FE0023D8
:10092000BB7340200021FFF78FFF0346012B40F0EF
:10093000A380604B64221A7048204FF4D571FFF7F2
:1009400083FF0346012B57D10023FB730CE0FC7B94
:10095000FFF76EFE03461A4607F11003234403F81F
:10096000082CFB7B0133FB73FB7B032BEFD9BB7A9A
:10097000012B40F08180FB7AAA2B7DD177200021CA
:10098000FFF762FF0346012B08D869204FF0804132
:10099000FFF75AFF0346002B00D104E0454B1B78BC
:1009A000DBB2002BEAD1434B1B78DBB2002B63D0C8
:1009B0007A200021FFF748FF0346002B5CD100237B
:1009C000FB730CE0FC7BFFF733FE03461A4607F18E
:1009D0001003234403F8082CFB7B0133FB73FB7BE0
:1009E000032BEFD93B7A03F04003002B01D0062301
:1009F00000E00223BB733FE077200021FFF724FFD4
:100A00000346012B08D869200021FFF71DFF03468C
:100A1000012B01D8022300E00123BB73BB7B022B17
:100A20000ED177200021FFF70FFF0346012B0FD8CF
:100A300069200021FFF708FF0346002B08D10CE0D6
:100A400041200021FFF700FF0346002B00D104E006
:100A5000184B1B78DBB2002BE0D1164B1B78DBB2B6
:100A6000002B07D050204FF40071FFF7EDFE034636
:100A7000002B01D00023BB730F4BBA7B1A70FFF71A
:100A8000AFFDFFF7D5FDBB7B002B08D0084B1B78D3
:100A9000DBB223F00103DAB2054B1A7001E0FFF775
:100AA00031FE034B1B78DBB218461437BD4690BDB0
:100AB00000000020060000200800002080B483B061
:100AC00000AF0346FB71FB79002B01D0012302E04C
:100AD000044B1B78DBB218460C37BD465DF8047B2F
:100AE000704700BF0000002080B584B000AFB9603F
:100AF0007A600246FA73BB73FB7B002B02D1BB7B8F
:100B0000002B01D1042350E02A4B1B78DBB203F009
:100B10000103002B01D0032347E0274B1B7803F090
:100B20000403002B02D17B685B027B60FFF748FD6A
:100B3000BB7B012B11D151207968FFF785FE03465D
:100B4000002B28D1B8684FF40071FFF7F3FD03467E
:100B5000002B20D00023BB731DE052207968FFF7E3
:100B600073FE0346002B16D1B8684FF40071FFF7EF
:100B7000E1FD0346002B00D109E0BB6803F50073DB
:100B8000BB60BB7B013BBB73BB7B002BECD14C2020
:100B90000021FFF759FEFFF723FDFFF749FDBB7B5F
:100BA000002B0CBF00230123DBB218461037BD46D3
:100BB00080BD00BF000000200800002080B584B088
:100BC00000AFB9607A600246FA73BB73FB7B002BFF
:100BD00002D1BB7B002B01D104236BE0374B1B7888
:100BE000DBB203F00103002B01D0032362E0334B9F
:100BF0001B78DBB203F00403002B01D0022359E081
:100C00002F4B1B7803F00403002B02D17B685B029F
:100C10007B60FFF7D5FCBB7B012B10D15820796896
:100C2000FFF712FE0346002B3AD1B868FE21FFF70A
:100C3000B7FD0346002B33D00023BB7330E0204BBD
:100C40001B7803F00203002B08D077200021FFF768
:100C5000FBFDBB7B57201946FFF7F6FD592079684D
:100C6000FFF7F2FD0346002B1AD1B868FC21FFF70D
:100C700097FD0346002B00D109E0BB6803F5007324
:100C8000BB60BB7B013BBB73BB7B002BEDD100206A
:100C9000FD21FFF785FD0346002B01D10123BB7326
:100CA000FFF79EFCFFF7C4FCBB7B002B0CBF0023AF
:100CB0000123DBB218461037BD4680BD000000207E
:100CC0000800002090B58BB000AF0B463A6002469A
:100CD000FA71BB713B683B62FB79002B01D00423A6
:100CE00011E1012387F82730BB79052B28D13B6A16
:100CF0001B78012B0ED0022B12D0002B1BD1FFF73B
:100D00000DFD0346002B01D0FFF7FCFC002387F804
:100D1000273014E0FFF7DCFC002387F827300EE0D3
:100D20003B6A5C1CFFF7FAFC0346DBB2237000232E
:100D300087F8273003E0042387F82730E1E0E0E07C
:100D4000734B1B78DBB203F00103002B01D00323AC
:100D5000D9E0FFF735FCBB790D2B00F2CB8001A267
:100D600052F823F0590E00089D0D0008490E0008A6
:100D7000F50E0008F50E0008F50E0008F50E000847
:100D8000F50E0008F50E0008F50E0008F50E000837
:100D90006D0E0008930E0008B90E000849200021CE
:100DA000FFF752FD0346002B4DD107F10C03184607
:100DB0001021FFF7BFFC0346002B44D03B7B9B096F
:100DC000DBB2012B0DD17B7D1A463B7D1B029BB212
:100DD00013449BB20133FB83FB8B9A023B681A607E
:100DE0002DE07B7C03F00F03DAB2BB7DDB09DBB2C5
:100DF0001344DAB27B7D03F00303DBB25B00DBB2AA
:100E00001344DBB2023387F826303B7D9B09DBB20B
:100E10001A46FB7C9B009BB213449AB2BB7C03F046
:100E200003039BB29B029BB213449BB20133FB832F
:100E3000FA8B97F82630093B9A403B681A600023EA
:100E400087F8273059E058E03B684FF400721A8069
:100E5000002387F8273050E0FFF71EFC0346FF2BE6
:100E600003D1002387F8273047E046E049200021DE
:100E7000FFF7EAFC0346002B0AD1386A1021FFF77E
:100E800059FC0346002B03D0002387F8273034E0B9
:100E900033E04A200021FFF7D7FC0346002B0AD19C
:100EA000386A1021FFF746FC0346002B03D00023CD
:100EB00087F8273021E020E07A200021FFF7C4FCEA
:100EC0000346002B16D1002387F826300BE03C6A3E
:100ED000631C3B62FFF7ACFB0346237097F8263098
:100EE000013387F8263097F82630032BEFD90023FB
:100EF00087F82730042387F82730FFF771FBFFF7C7
:100F000097FB97F8273018462C37BD4690BD00BF99
:100F10000000002080B400AF024B1846BD465DF8CB
:100F2000047B70470060213E80B487B000AF7860DA
:100F3000396000237B6100233B610023FB600023B9
:100F40007B6176E07B69012202FA03F33B613B6837
:100F50001A683B691340FB60FA683B699A4265D1A5
:100F60007B681A687B695B00032101FA03F3DB43AA
:100F70001A407B681A607B681A683B681B791946BF
:100F80007B695B0001FA03F31A437B681A603B68D4
:100F90001B79012B03D03B681B79022B2ED17B6878
:100FA0009A687B695B00032101FA03F3DB431A4073
:100FB0007B689A607B689A683B685B7919467B69B5
:100FC0005B0001FA03F31A437B689A607B685A68F6
:100FD0007B699BB2012101FA03F3DB431A407B6872
:100FE0005A607B685A683B689B7919467B699BB25B
:100FF00001FA03F39BB21A437B685A607B68DA6894
:101000007B699BB25B00032101FA03F3DB431A40C7
:101010007B68DA607B68DA683B68DB7919467B6954
:101020005B0001FA03F31A437B68DA607B690133E2
:101030007B617B690F2B85D91C37BD465DF8047B2E
:10104000704700BF80B483B000AF78600B467B80F0
:101050007B687A881A830C37BD465DF8047B70473D
:1010600080B483B000AF78600B467B807B687A8861
:101070005A830C37BD465DF8047B704780B485B059
:1010800000AF786013460A467A807B700023FB60CD
:101090000023BB607A787B8803F007039B0002FA89
:1010A00003F3FB607B88DB089BB21A467B88DB0876
:1010B0009BB219467B68083153F821107B8803F0F6
:1010C00007039B000F2000FA03F3DB4319407B6802
:1010D000083243F822107B88DB089BB21A467B68F3
:1010E000083253F82220FB681343BB607B88DB087F
:1010F0009BB21A467B680832B96843F8221014374D
:10110000BD465DF8047B704780B487B000AFF860DF
:10111000B9607A60FB687B61BB683B6107E07B6913
:101120005A1C7A613A69511C396112781A707B68CD
:101130005A1E7A60002BF2D11C37BD465DF8047B45
:10114000704700BF80B487B000AFF860B9607A60C4
:10115000FB687B6105E07B695A1C7A61BA68D2B290
:101160001A707B685A1E7A60002BF4D11C37BD467A
:101170005DF8047B704700BF80B489B000AFF860B1
:10118000B9607A60FB68FB61BB68BB6100237B616F
:1011900000BF7B685A1E7A60002B0DD0FB695A1C79
:1011A000FA611B781A46BB69591CB9611B78D31ABE
:1011B0007B617B69002BECD07B6918462437BD46E8
:1011C0005DF8047B704700BF80B483B000AF7860E7
:1011D000396002E07B6801337B607B681B78002B01
:1011E00005D07B681B781A463B689A42F2D17B682F
:1011F0001B7818460C37BD465DF8047B704700BF6E
:1012000080B584B000AF786039607B68DB6AFB60D2
:10121000FA683B689A424BD07B681B79002B32D02E
:101220007B685A787B68303310461946FA68012388
:10123000FFF7C4FC0346002B01D0012339E07B6893
:1012400000221A717B681A6A7B68DB691A44FB68A2
:101250009A4218D97B68DB78FB7211E07B68DB6906
:10126000FA681344FB607B685A787B683033104619
:101270001946FA680123FFF7A1FCFB7A013BFB72D8
:10128000FB7A012BEAD83B68002B11D07B685A7897
:101290007B683033104619463A680123FFF724FC77
:1012A0000346002B01D0012303E07B683A68DA6231
:1012B000002318461037BD4680BD00BF80B584B0FE
:1012C00000AF786078680021FFF79AFF0346FB7350
:1012D000FB7B002B40F092807B681B78032B40F057
:1012E00081807B685B79002B7CD07B680022DA628E
:1012F0007B683033184600214FF40072FFF722FF5D
:101300007B68552283F82E227B68AA2283F82F223D
:101310007B68522283F830207B68522283F8312088
:101320007B68612283F832207B68412283F8332076
:101330007B68722283F814227B68722283F815225C
:101340007B68412283F816227B68612283F817228A
:101350007B681B69DAB27B6883F818227B681B699B
:101360009BB21B0A9BB2DAB27B6883F819227B68B6
:101370001B691B0CDAB27B6883F81A227B681B6935
:101380001B0EDAB27B6883F81B227B68DB68DAB25B
:101390007B6883F81C227B68DB689BB21B0A9BB2CC
:1013A000DAB27B6883F81D227B68DB681B0CDAB23B
:1013B0007B6883F81E227B68DB681B0EDAB27B68D1
:1013C00083F81F227B6859787B6803F130027B68C1
:1013D0005B69084611461A460123FFF7EFFB7B685D
:1013E00000225A717B685B78184600210022FFF7C3
:1013F00069FC0346002B01D00123FB73FB7B1846DD
:101400001037BD4680BD00BF80B483B000AF7860A8
:1014100039603B68023B3B607B689B699A1E3B6876
:101420009A4201D8002307E07B689B783A6802FB68
:1014300003F27B689B6A134418460C37BD465DF87F
:10144000047B704780B586B000AF786039603B6838
:10145000012B04D97B689A693B689A4201D8012321
:1014600096E07B681B78022B47D0032B65D0012BBD
:1014700040F08C803B687B617B695B087A69134430
:101480007B617B681A6A7B695B0A1344786819463A
:10149000FFF7B6FE0346002B00D077E07B69C3F36D
:1014A00008037A68134493F830303B617B69013359
:1014B0007B617B681A6A7B695B0A1344786819460A
:1014C000FFF79EFE0346002B00D05FE07B69C3F36D
:1014D00008037A68134493F830301B023A691343C7
:1014E0003B613B6803F00103002B02D03B691B0901
:1014F00002E03B69C3F30B034AE07B681A6A3B686E
:101500001B0A134478681946FFF77AFE0346002B3E
:1015100000D03BE03B685B0003F4FF7330337A6834
:101520001344FB60FB6801331B781B029AB2FB6813
:101530001B7813439BB29BB22AE07B681A6A3B6814
:10154000DB09134478681946FFF75AFE0346002B5F
:1015500000D01BE03B689B0003F4FE7330337A68D5
:101560001344FB60FB6803331B781A06FB680233E5
:101570001B781B041A43FB6801331B781B021A43B8
:10158000FB681B78134323F0704301E04FF0FF33F7
:1015900018461837BD4680BD80B588B000AFF860EA
:1015A000B9607A60BB68012B04D9FB689A69BB6893
:1015B0009A4202D80223FB77E3E0FB681B78022BF8
:1015C00070D0032B00F09280012B40F0D580BB68D7
:1015D000BB61BB695B08BA691344BB61FB681A6AEB
:1015E000BB695B0A1344F8681946FFF709FE034616
:1015F000FB77FB7F002B00D0C0E0BB69C3F308037F
:101600003033FA6813447B61BB6803F00103002B9D
:101610000DD07B691B78DBB203F00F03DAB27B6875
:10162000DBB21B01DBB21343DBB2DBB201E07B6850
:10163000DBB27A691370BB690133BB61FB680122BD
:101640001A71FB681A6ABB695B0A1344F868194689
:10165000FFF7D6FD0346FB77FB7F002B00D08DE024
:10166000BB69C3F308033033FA6813447B61BB687A
:1016700003F00103002B03D07B681B09DBB20EE0F3
:101680007B691B78DBB223F00F03DAB27B681B0A9D
:10169000DBB203F00F03DBB21343DBB2DBB27A69D8
:1016A00013706BE0FB681A6ABB681B0A1344F86886
:1016B0001946FFF7A5FD0346FB77FB7F002B00D003
:1016C0005CE0BB685B0003F4FF733033FA681344DB
:1016D0007B617B68DAB27B691A707B6901337A6857
:1016E00092B2120A92B2D2B21A7047E0FB681A6A3A
:1016F000BB68DB091344F8681946FFF781FD034610
:10170000FB77FB7F002B00D038E0BB689B0003F425
:10171000FE733033FA6813447B617B6903331B78B3
:101720001A067B6902331B781B041A437B69013359
:101730001B781B021A437B691B78134303F0704329
:101740007A6813437B607B68DAB27B691A707B69C5
:1017500001337A6892B2120A92B2D2B21A707B69DD
:1017600002337A68120CD2B21A707B6903337A683A
:10177000120ED2B21A7001E00223FB77FB6801223D
:101780001A71FB7F18462037BD4680BD80B584B0F6
:1017900000AF786039603B68012B04D97B689A6997
:1017A0003B689A4202D80223FB7337E00023FB73A5
:1017B0002FE078683968FFF745FEB860BB68002BFA
:1017C00000D12BE0BB68012B02D10223FB7325E083
:1017D000BB68B3F1FF3F02D10123FB731EE07868C1
:1017E00039680022FFF7D8FE0346FB73FB7B002B12
:1017F00000D013E07B681B69B3F1FF3F07D07B6823
:101800001B695A1C7B681A617B6801225A71BB688C
:101810003B607B689A693B689A42CAD8FB7B184652
:101820001037BD4680BD00BF80B586B000AF786080
:1018300039603B68002B0DD17B68DB683B613B69FD
:10184000002B04D07B689A693B699A4215D8012322
:101850003B6112E078683968FFF7F4FDB860BB6857
:10186000012B01D8012366E07B689A69BB689A4224
:1018700001D9BB685FE03B683B613B697B617B6989
:1018800001337B617B689A697B699A4207D802239E
:101890007B617A693B699A4201D900234BE0786801
:1018A0007969FFF7CFFDB860BB68002B0CD100BF92
:1018B000786879696FF07042FFF76EFE0346FB733C
:1018C000FB7B002B1AD10FE0BB68B3F1FF3F02D0C6
:1018D000BB68012B01D1BB682DE07A693B699A4254
:1018E00001D1002327E0CAE73B68002B06D07868C7
:1018F00039687A69FFF750FE0346FB73FB7B002BC8
:1019000010D17B687A69DA607B681B69B3F1FF3FAD
:1019100010D07B681B695A1E7B681A617B680122A4
:101920005A7107E0FB7B012B02D14FF0FF3300E03F
:1019300001237B617B6918461837BD4680BD00BF17
:1019400080B584B000AF78600B467B807B687A8876
:10195000DA807B689B68FB60FB68012B05D07B68A5
:101960001B689A69FB689A4201D8022364E0FB680D
:10197000002B08D17B681B681B78032B03D17B6885
:101980001B685B6AFB60FB68002B14D17B68FA68FC
:10199000DA607B681B681B897A889A4201D302232C
:1019A0004AE07B681B685A6A7B881B099BB21A4411
:1019B0007B681A6135E07B681B689B781B017B8123
:1019C0001BE07B681B681846F968FFF73BFDF86071
:1019D000FB68B3F1FF3F01D101232DE0FB68012B30
:1019E00005D97B681B689A69FB689A4201D8022373
:1019F00022E07A887B89D31A7B807A887B899A4215
:101A0000DFD27B68FA68DA607B681B681846F96881
:101A1000FFF7FAFC02467B881B099BB21A447B68DD
:101A20001A617B681A687B8803F00F035B0130330F
:101A30001A447B685A61002318461037BD4680BDA2
:101A400090B585B000AF786039607B68DB88013382
:101A50003B813B89002B03D07B681B69002B01D1A4
:101A60000423BCE03B8903F00F039BB2002B40F042
:101A7000A8807B681B695A1C7B681A617B68DB68DD
:101A8000002B08D17B681B681B893A899A42C0F0F9
:101A900098800423A3E03B891B099BB21A467B680C
:101AA0001B689B78013B1340002B40F08A807B68C9
:101AB0001A687B68DB6810461946FFF7C3FCF860BC
:101AC000FB68012B01D8022389E0FB68B3F1FF3FDB
:101AD00001D1012383E07B681B689A69FB689A4205
:101AE00063D83B68002B01D1042378E07B681A6837
:101AF0007B68DB6810461946FFF796FEF860FB68C6
:101B0000002B01D107236AE0FB68012B01D10223DE
:101B100065E0FB68B3F1FF3F01D101235FE07B6823
:101B20001B6818460021FFF76BFB0346002B01D012
:101B3000012354E07B681B683033184600214FF4C2
:101B40000072FFF7FFFA7B681C687B681B68184609
:101B5000F968FFF759FC0346E3620023FB7216E0C5
:101B60007B681B6801221A717B681B68184600217C
:101B7000FFF746FB0346002B01D001232FE07B68D3
:101B80001B68DA6A0132DA62FB7A0133FB727B6826
:101B90001B689B78FA7A9A42E2D37B681B687A6862
:101BA0001268D16AFA7A8A1ADA627B68FA68DA60AD
:101BB0007B681B681846F968FFF726FC02467B68BD
:101BC0001A617B683A89DA807B681A683B8903F07E
:101BD0000F035B0130331A447B685A6100231846B7
:101BE0001437BD4690BD00BF80B586B000AF7860A9
:101BF00078680021FFF7A4FE0346FB75FB7D002BF0
:101C000001D0FB7D35E07B681A687B681B69104654
:101C10001946FFF7F5FA0346FB75FB7D002B00D054
:101C200026E07B685B693B613B691B78FB73FB7B50
:101C3000002B02D10423FB751AE03B690B331B78A0
:101C400003F00803002B0AD17B689B6938691946A9
:101C50000B22FFF791FA0346002B00D108E07868C9
:101C60000021FFF7EDFE0346FB75FB7D002BCAD07C
:101C7000FB7D18461837BD4680BD00BF80B584B0D7
:101C800000AF786078680021FFF75AFE0346FB73C7
:101C9000FB7B002B20D17B681A687B681B69104690
:101CA0001946FFF7ADFA0346FB73FB7B002B00D010
:101CB00012E07B685B691B78BB73BB7BE52B0BD0A9
:101CC000BB7B002B08D078680121FFF7B9FE0346E3
:101CD000FB73FB7B002BDED0FB7B002B1FD17B68D3
:101CE0001A687B681B6910461946FFF789FA034694
:101CF000FB73FB7B002B12D17B685B69BB60B86810
:101D000000212022FFF71EFA7B689B69B8681946FC
:101D10000B22FFF7F9F97B681B6801221A71FB7B24
:101D200018461037BD4680BD80B588B000AF7860DA
:101D300039607B689B69FB60F86820210B22FFF704
:101D400001FA0023FB7700233B613B697B61082399
:101D5000BB613B681B68BB607B695A1C7A61BA68CF
:101D600013441B78BB77BB7F202B54D9BB7F2F2B11
:101D700051D0BB7F5C2B4ED0BB7F2E2B03D03A695A
:101D8000BB699A4210D3BB69082B02D1BB7F2E2BB3
:101D900001D0062374E008233B610B23BB61FB7F6A
:101DA0009B00FB7700BFD7E7BB7F5BB2002B08DA55
:101DB000FB7F43F00303FB77BB7F803B324AD35C5E
:101DC000BB77BB7F31481946FFF7FEF90346002B6E
:101DD00001D0062354E0BB7F402B07D9BB7F5A2B91
:101DE00004D8FB7F43F00203FB770CE0BB7F602B42
:101DF00009D9BB7F7A2B06D8FB7F43F00103FB7721
:101E0000BB7F203BBB773B695A1C3A61FA6813449D
:101E1000BA7F1A70A0E7BA687B691A443B681A60F7
:101E2000BB7F202B01D8042300E00023BB773B6954
:101E3000002B01D1062323E0FB681B78E52B02D1A0
:101E4000FB6805221A70BB69082B02D1FB7F9B003F
:101E5000FB77FB7F03F00303012B03D1BB7F43F030
:101E60001003BB77FB7F03F00C03042B03D1BB7F74
:101E700043F00803BB77FB680B33BA7F1A7000236B
:101E800018462037BD4680BD702C0008602C000825
:101E900080B584B000AF786039603B681B782F2B29
:101EA00003D03B681B785C2B02D13B6801333B605D
:101EB0007B6800229A603B681B781F2B09D87868E2
:101EC0000021FFF73DFD0346FB737B6800225A614A
:101ED00051E03B4678681946FFF726FF0346FB733F
:101EE000FB7B002B00D046E07868FFF77DFE0346C1
:101EF000FB737B689B69DB7ABB73FB7B002B0CD08D
:101F0000FB7B042B00D036E0BB7B03F00403002BEB
:101F100002D10523FB732EE02DE0BB7B03F004030D
:101F2000002B00D027E07B685B69BB60BB680B338C
:101F30001B7803F01003002B02D10523FB731AE07A
:101F4000BB6815331B781B029AB2BB6814331B782D
:101F500013439BB29BB21A04BB681B331B781B0252
:101F600099B2BB681A331B780B439BB29BB21A43DE
:101F70007B689A60ADE7FB7B18461037BD4680BD95
:101F800080B582B000AF786039607B685A787B6832
:101F90003033104619463A680123FEF7A5FD034683
:101FA000002B01D0032342E07B6893F82F321B0201
:101FB0009AB27B6893F82E3213439BB21AB21E4B2F
:101FC0009A4201D0022332E07B6893F869301A0606
:101FD0007B6893F868301B041A437B6893F867307A
:101FE0001B021A437B6893F86630134323F07F4249
:101FF000124B9A4201D1002319E07B6893F8853097
:102000001A067B6893F884301B041A437B6893F8A4
:1020100083301B021A437B6893F88230134323F00A
:102020007F42064B9A4201D1002300E0012318466B
:102030000837BD4680BD00BF55AAFFFF464154008A
:1020400080B592B000AFF860B9601346FB71FB68D1
:102050001B68FB62FB6A1B78303B3B643B6C092BC3
:102060000BD8FB6A01331B783A2B06D1FB6A02338B
:10207000FB62FB68FA6A1A6001E000233B643B6C78
:10208000002B01D00B235DE2A44B3A6C53F82230B5
:10209000BB62BB68BA6A1A60BB6A002B01D10C2311
:1020A00050E2BB6A1B78002B1AD0BB6A5B781846DB
:1020B000FEF704FD034687F8273097F8273003F032
:1020C0000103002B0CD1FB79002B07D097F82730A8
:1020D00003F00403002B01D00A2333E2002331E292
:1020E000BB6A00221A703B6CDAB2BB6A5A70BB6AD8
:1020F0005B781846FEF7FAFB034687F8273097F817
:10210000273003F00103002B01D003231AE2FB79EF
:10211000002B07D097F8273003F00403002B01D0E1
:102120000A230FE20023FB63B86AF96BFFF728FF6D
:10213000034687F8473097F84730012B22D1BB6A16
:1021400003F5F7733B623B6A04331B78002B19D00D
:102150003B6A0B331B781A063B6A0A331B781B0455
:102160001A433B6A09331B781B021A433B6A083344
:102170001B781343FB63B86AF96BFFF701FF034653
:1021800087F8473097F84730032B01D10123D9E175
:1021900097F84730002B01D00D23D3E1BB6A93F8A9
:1021A0003C301B029AB2BB6A93F83B3013439BB29C
:1021B0001BB2B3F5007F01D00D23C3E1BB6A93F8D6
:1021C00047301B029AB2BB6A93F8463013439BB266
:1021D0009BB2BB63BB6B002B12D1BB6A93F8573029
:1021E0001A06BB6A93F856301B041A43BB6A93F86D
:1021F00055301B021A43BB6A93F854301343BB6338
:10220000BB6ABA6BDA61BB6A93F84030FB77BB6A92
:10221000FA7FDA70FB7F012B04D0FB7F022B01D009
:102220000D238FE1FA7FBB6B02FB03F3BB63BB6A39
:1022300093F83D30FB77BB6AFA7F9A70FB7F002BE7
:1022400005D0FA7FFB7F013B1340002B01D00D230B
:1022500078E1BB6A93F842301B029AB2BB6A93F8EA
:10226000413013439BB29AB2BB6A1A81BB6A1B8985
:1022700003F00F039BB2002B01D00D2362E1BB6A78
:1022800093F844301B029AB2BB6A93F8433013436D
:102290009BB29BB27B637B6B002B12D1BB6A93F822
:1022A00053301A06BB6A93F852301B041A43BB6AB8
:1022B00093F851301B021A43BB6A93F85030134312
:1022C0007B63BB6A93F83F301B029AB2BB6A93F8F8
:1022D0003E3013439BB2BB83BB8B002B01D10D233C
:1022E00030E1BA8BBB6B1A44BB6A1B891B099BB2DA
:1022F0001344BB617A6BBB699A4201D20D2321E181
:102300007A6BBB69D21ABB6A9B78B2FBF3F37B6131
:102310007B69002B04D10D2314E100BF0C000020C9
:10232000012387F847307A6940F6F5739A4202D95B
:10233000022387F847307A694FF6F5739A4202D93B
:10234000032387F847307B699A1CBB6A9A61FA6B52
:10235000BB691A44BB6A9A62BA8BFB6B1A44BB6AAC
:102360001A6297F84730032B1ED1BB6A1B89002BDA
:1023700001D00D23E6E0BB6A93F85F301A06BB6A12
:1023800093F85E301B041A43BB6A93F85D301B025E
:102390001A43BB6A93F85C301A43BB6A5A62BB6A41
:1023A0009B699B003B631FE0BB6A1B89002B01D12B
:1023B0000D23C7E0BB6A1A6ABB6B1A44BB6A5A6238
:1023C00097F84730022B03D1BB6A9B695B000AE098
:1023D000BB6A9A6913465B0013445A08BB6A9B693F
:1023E00003F0010313443B63BB6ADA693B6B03F2FE
:1023F000FF135B0A9A4201D20D23A3E0BB6A4FF0A0
:10240000FF321A61BB6A0022DA6097F84730032B6B
:1024100040F08380BB6A00225A71BB6A93F8613036
:102420001B029AB2BB6A93F8603013439BB29BB213
:102430001A46FB6B1A44BB6A5A61BB6A5978BB6A7D
:1024400003F13002BB6A5B69084611461A46012354
:10245000FEF74AFB0346002B5FD1BB6A93F82F328D
:102460001B029AB2BB6A93F82E3213439BB21AB284
:10247000364B9A4251D1BB6A93F833301A06BB6A85
:1024800093F832301B041A43BB6A93F831301B02B5
:102490001A43BB6A93F830301A432D4B9A423CD111
:1024A000BB6A93F817321A06BB6A93F816321B04FC
:1024B0001A43BB6A93F815321B021A43BB6A93F89E
:1024C00014321A43234B9A4227D1BB6A93F81F3226
:1024D0001A06BB6A93F81E321B041A43BB6A93F8B0
:1024E0001D321B021A43BB6A93F81C321A43BB6AA3
:1024F000DA60BB6A93F81B321A06BB6A93F81A3289
:102500001B041A43BB6A93F819321B021A43BB6AB5
:1025100093F818321A43BB6A1A61BB6A97F84720CE
:102520001A700D4B1B8801339AB20B4B1A800A4B61
:102530001A88BB6ADA80BB6A0022DA62BB6A0022B0
:102540001A71002318464837BD4680BD55AAFFFFC3
:1025500052526141727241611000002080B582B018
:1025600000AF78600B467B807B68002B08D07B68CF
:102570001B78002B04D07B68DB887A889A4201D0D4
:1025800009230CE07B685B781846FEF797FA034650
:1025900003F00103002B01D0032300E000231846C1
:1025A0000837BD4680BD00BF80B485B000AF03468C
:1025B0003960FB71FB79002B01D00B2316E0FA790F
:1025C0000D4B53F82230FB60FB68002B02D0FB68F8
:1025D00000221A703B68002B02D03B6800221A7060
:1025E000FA79054B396843F822100023184614374E
:1025F000BD465DF8047B70470C00002080B592B0AA
:1026000000AFF860B9601346FB71FB6800221A60E6
:10261000FB7903F01F03FB71FB7923F00103DBB2AD
:1026200007F1080107F11C02084611461A46FFF798
:1026300007FD034687F8473007F110037B6397F8DF
:102640004730002B09D1BB6807F11C021046194620
:10265000FFF71EFC034687F847303B6B3B6497F857
:102660004730002B05D13B6C002B02D1062387F8A5
:102670004730FB7903F01C03002B00F0AF8097F884
:102680004730002B12D097F84730042B07D107F1C1
:102690001C031846FFF7F2FA034687F84730FB7928
:1026A00043F00803FB713B6B3B6412E0FB7903F0E2
:1026B0000403002B03D0082387F8473009E03B6C64
:1026C0000B331B7803F01103002B02D0072387F88C
:1026D000473097F84730002B7FD1FB7903F0080390
:1026E000002B7AD0FEF716FCF8633B6C0E33FA6BC6
:1026F000D2B21A703B6C0F33FA6B92B2120A92B2DA
:10270000D2B21A703B6C1033FA6B120CD2B21A7040
:102710003B6C1133FA6B120ED2B21A703B6C0B3356
:1027200000221A703B6C1C3300221A703B6C1D3364
:1027300000221A703B6C1E3300221A703B6C1F3350
:1027400000221A703B6C15331B781B029AB23B6C4B
:1027500014331B7813439BB29BB21A043B6C1B339C
:102760001B781B0299B23B6C1A331B780B439BB24C
:102770009BB21343BB633B6C1A3300221A703B6C51
:102780001B3300221A703B6C143300221A703B6C0E
:10279000153300221A70FB6901221A71BB6B002BE2
:1027A0001BD0FB69DB6AFB63FB691846B96BFEF75C
:1027B000EDFF034687F8473097F84730002B0CD1E0
:1027C000FB69BA6B013ADA60FB691846F96BFEF7F0
:1027D00017FD034687F847301EE01DE097F84730A5
:1027E000002B19D13B6C0B331B7803F01003002B2B
:1027F00003D0042387F847300EE0FB7903F002038F
:10280000002B09D03B6C0B331B7803F00103002B2A
:1028100002D0072387F8473097F84730002B0FD1B5
:10282000FB7903F00803002B03D0FB7943F020036E
:10283000FB71FB69DA6AFB68DA61FB683A6C1A6261
:1028400097F84730002B3DD1FB68FA799A713B6CC1
:1028500015331B781B029AB23B6C14331B7813435D
:102860009BB29BB21A043B6C1B331B781B0299B2C0
:102870003B6C1A331B780B439BB29BB21A43FB6829
:102880001A613B6C1F331B781A063B6C1E331B7896
:102890001B041A433B6C1D331B781B021A433B6C11
:1028A0001C331B781A43FB68DA60FB6800229A60CD
:1028B000FB6800229A61FA69FB681A60FB69DA8892
:1028C000FB689A8097F8473018464837BD4680BD68
:1028D00080B586B000AF78607B681A687B689B889B
:1028E00010461946FFF73AFE0346FB75FB7D002BA9
:1028F00040F0AB807B689B7903F02003002B00F055
:10290000A4807B689B7903F04003002B19D07B687F
:102910001B6859787B6803F124027B689B69084631
:1029200011461A460123FEF749F90346002B01D050
:1029300001238BE07B689B7923F04003DAB27B684C
:102940009A717B681A687B68DB6910461946FEF746
:1029500057FC0346FB75FB7D002B76D17B681B6A19
:102960003B613B690B333A690B32127842F020022B
:10297000D2B21A703B691C337A68D268D2B21A702C
:102980003B691D337A68D26892B2120A92B2D2B20F
:102990001A703B691E337A68D268120CD2B21A7070
:1029A0003B691F337A68D268120ED2B21A703B6943
:1029B0001A337A681269D2B21A703B691B337A688B
:1029C000126992B2120A92B2D2B21A703B691433EF
:1029D0007A681269120CD2B21A703B6915337A68A0
:1029E0001269120C92B2120A92B2D2B21A70FEF7A7
:1029F00091FAF8603B691633FA68D2B21A703B69F3
:102A00001733FA6892B2120A92B2D2B21A703B69C4
:102A10001833FA68120CD2B21A703B691933FA688B
:102A2000120ED2B21A707B689B7923F02003DAB2BF
:102A30007B689A717B681B6801221A717B681B682E
:102A40001846FEF73BFC0346FB75FB7D184618371E
:102A5000BD4680BD80B584B000AF78607868FFF770
:102A600037FF0346FB73FB7B002B02D17B68002200
:102A70001A60FB7B18461037BD4680BD80B582B01A
:102A800000AF78607A68174B9A420AD14FF48050B1
:102A90000121FDF777FD4FF480500021FDF772FD15
:102AA0001CE07A68104B9A420AD14FF48040012111
:102AB000FDF74AFD4FF480400021FDF745FD0DE094
:102AC0007A680A4B9A4209D14FF400400121FDF780
:102AD0003BFD4FF400400021FDF736FD0837BD46B1
:102AE00080BD00BF0030014000380040003C004085
:102AF00080B485B000AF786039600023FB817B68CB
:102B00001B88FB81FB8903F44153FB813B681A88D6
:102B10003B685B8813439AB23B689B8813439AB225
:102B20003B68DB8813439AB23B681B8913439AB214
:102B30003B685B8913439AB23B689B8913439AB203
:102B40003B68DB8913439AB2FB891343FB817B68A3
:102B5000FA891A807B689B8B9BB223F400639AB23C
:102B60007B689A833B681A8A7B681A821437BD4651
:102B70005DF8047B704700BF80B483B000AF78601D
:102B80000B46FB70FB78002B08D07B681B889BB240
:102B900043F040039AB27B681A8007E07B681B8889
:102BA0009BB223F040039AB27B681A800C37BD4673
:102BB0005DF8047B704700BF80B483B000AF7860DD
:102BC0000B467B807B687A889A810C37BD465DF81E
:102BD000047B704780B485B000AF78600B467B8083
:102BE0000023FB737B681B899AB27B8813409BB2DE
:102BF000002B02D00123FB7301E00023FB73FB7B5E
:102C000018461437BD465DF8047B7047700000001D
:102C10006C000000690000006B0000005400000020
:102C2000650000006B0000007300000074000000ED
:102C30006F00000077000000790000004E000000E7
:102C40006F00000077000000790000002E000000F7
:102C50007400000078000000740000000000000014
:102C6000222A2B2C3A3B3C3D3E3F5B5D7C7F0000A3
:102C7000808182838485868788898A8B8C8D8E8FDC
:102C8000909192939495969798998A9B8C8D8E8F1C
:102C9000A0A1A2A3A4A5A6A7A8A9AAABACADAEAFBC
:102CA000B0B1B2A3B4B5B6B7B8A5AABBBCBDBCAFF2
:102CB000C0C1C2C3C4C5C6C7C8C9CACBCCCDCECF9C
:102CC000D0D1D2D3D4D5D6D7D8D9DADBDCDDDEDF8C
:102CD000C0C1C2C3C4C5C6C7C8C9CACBCCCDCECF7C
:102CE000D0D1D2D3D4D5D6F7D8D9DADBDCDDDEFF2C
:042CF00001000000DF
:0400000508000000EF
:00000001FF
