:020000040800F2
:10000000201B002089010008E5010008E501000827
:10001000E5010008E5010008E50100080000000016
:10002000000000000000000000000000E5010008E2
:10003000E501000800000000E5010008E5010008F6
:10004000E5010008E5010008E5010008E5010008F8
:10005000E5010008E5010008E5010008E5010008E8
:10006000E5010008E5010008E5010008E5010008D8
:10007000E5010008E5010008E5010008E5010008C8
:10008000E5010008E5010008E5010008E5010008B8
:10009000E5010008E5010008E5010008E5010008A8
:1000A000E5010008E5010008E5010008E501000898
:1000B000E5010008E5010008E5010008E501000888
:1000C000E5010008E5010008E5010008E501000878
:1000D000E5010008E5010008E5010008E501000868
:1000E000E5010008E5010008E5010008E501000858
:1000F000E5010008E5010008E5010008E501000848
:10010000E5010008E5010008E5010008E501000837
:10011000E5010008E5010008E5010008E501000827
:10012000E5010008E5010008E5010008E501000817
:10013000E5010008E5010008E5010008E501000807
:10014000E5010008E5010008E5010008E5010008F7
:10015000E5010008E5010008E5010008E5010008E7
:10016000E5010008E5010008E5010008E5010008D7
:10017000E5010008E5010008E5010008E5010008C7
:10018000E5010008E501000880B582B000AF104B22
:100190007B60104B3B6007E03B681A1D3A607A6851
:1001A000111D796012681A603A680B4B9A42F3D3BA
:1001B0000A480B494FF000028842B8BF40F8042BB0
:1001C000FFF6FAAF00F0CAF80837BD4680BD00BFA1
:1001D00070420008000000200400002004000020FD
:1001E0001C13002080B400AFFEE700BF80B483B0D2
:1001F00000AF0023FB7100BF0E4B1B899BB203F0C5
:100200000203002BF8D00B4BFF229A8100BF094B51
:100210001B899BB203F00103002BF8D0054B9B898F
:100220009BB2FB71FB7918460C37BD465DF8047B29
:10023000704700BF0038004080B582B000AF0B4B64
:1002400032221A70FFF7D2FFFFF7D0FF0346FB718F
:10025000FB79FF2B04D0054B1B78DBB2002BF3D1CD
:10026000FB7918460837BD4680BD00BF0500002059
:1002700080B485B000AF0346FB7100BF0D4B1B89F6
:100280009BB203F00203002BF8D00A4BFA7992B22A
:100290009A8100BF074B1B899BB203F00103002B1F
:1002A000F8D0044B9B899BB2FB731437BD465DF8B5
:1002B000047B70470038004080B584B000AF03462F
:1002C0003960FB71FFF7B8FF0346FF2B01D0FF2316
:1002D00040E0FB791846FFF7CBFF3B681B0EDBB213
:1002E0001846FFF7C5FF3B681B0CDBB21846FFF74B
:1002F000BFFF3B681B0ADBB21846FFF7B9FF3B683C
:10030000DBB21846FFF7B4FF0023FB73FB79402BE9
:1003100001D19523FB73FB79482B01D18723FB7314
:10032000FB7B1846FFF7A4FFFB794C2B01D1FFF7AD
:100330005DFF0A23FB73FFF759FF0346BB73BB7BCB
:100340005BB2002B05DAFB7B013BFB73FB7B002BD5
:10035000F1D1BB7B18461037BD4680BD80B5ADF5E9
:10036000D66D00AF00F02CFF0220012100F00CF947
:100370001020012100F008F94FF48040012100F025
:1003800021F90820012100F0FFF84FF47043C7F86D
:100390009836012387F89C36002387F89E3603237E
:1003A00087F89D36002387F89F3607F5D3636F489B
:1003B000194600F015FE022387F8A436002387F8BB
:1003C000A636022387F8A736022387F8A5364FF40E
:1003D0006043C7F8A03607F5D4636548194600F0B6
:1003E000FFFD0823C7F8A036012387F8A4360023B1
:1003F00087F8A636022387F8A53607F5D4635D484B
:10040000194600F0EDFD5B48082100F077FE5848E2
:100410000D21052200F08EFE55480E21052200F028
:1004200089FE53480F21052200F084FE524803F054
:1004300097FB0023A7F884360023A7F8883600230B
:10044000A7F88A360023A7F88C364FF40073A7F874
:100450008E360823A7F890360023A7F89236072394
:10046000A7F894364FF48273A7F8863607F28463B0
:100470004148194603F0AEFB3F48012103F0EEFB73
:100480003C48082100F048FE0023C7F8AC3610E0D5
:100490003948FF2103F002FC00BF3748022103F076
:1004A0000BFC0346002BF8D0D7F8AC360133C7F865
:1004B000AC36D7F8AC36092BEADD40200021FFF737
:1004C000FBFE07F58A630020194602F0EFFD07F5F1
:1004D0000B7318462949012202F012FE034687F8E1
:1004E000AB3607F10803184625490A2202F008FE38
:1004F000034687F8AB3607F50B723B461046214999
:100500004FF4805202F06AFF034687F8AB3697F843
:10051000AB36002B1AD13B461B68002B16D03B464E
:100520001A6807F108013B1D0846164903F0B6F8A2
:10053000034687F8AB3697F8AB36002B06D13B1D48
:100540001A683B461B689A4200D3D4E707F50B7341
:10055000184603F0F1FA07F10803184603F0ECFA25
:1005600002484FF4005100F0C9FDFEE7000C0240C4
:10057000000402400010024000380040F43C000833
:10058000003D00081803002080B483B000AF7860FD
:100590000B46FB70FB78002B06D0094B084A116B09
:1005A0007A680A431A6306E0054B054A116B7A68BC
:1005B000D2430A401A630C37BD465DF8047B70478E
:1005C0000038024080B483B000AF78600B46FB7007
:1005D000FB78002B06D0094B084A116C7A680A4355
:1005E0001A6406E0054B054A116C7A68D2430A404A
:1005F0001A640C37BD465DF8047B70470038024032
:1006000080B483B000AF78600B46FB70FB78002BA2
:1006100006D0094B084A116A7A680A431A6206E052
:10062000054B054A116A7A68D2430A401A620C37B0
:10063000BD465DF8047B70470038024080B483B04B
:1006400000AF78600B46FB70FB78002B06D0094B9F
:10065000084A516A7A680A435A6206E0054B054A1D
:10066000516A7A68D2430A405A620C37BD465DF837
:10067000047B70470038024080B400AF054B054A48
:10068000528B92B242F4006292B25A83BD465DF838
:10069000047B70470004024080B400AF054B054A5C
:1006A000128B92B242F4006292B21A83BD465DF898
:1006B000047B70470004024080B483B000AF03465F
:1006C000FB7100BF074B1B899BB203F00203002B99
:1006D000F8D0044BFA7992B29A810C37BD465DF896
:1006E000047B70470038004080B483B000AF002323
:1006F000FB7100BF0E4B1B899BB203F00203002B62
:10070000F8D00B4BFF229A8100BF094B1B899BB28B
:1007100003F00103002BF8D0054B9B899BB2FB71C2
:10072000FB7918460C37BD465DF8047B704700BF67
:100730000038004080B582B000AF7860FFF7D4FF8A
:1007400003461A467B681A700837BD4680BD00BF55
:1007500080B582B000AF0B4B32221A70FFF7C4FF96
:10076000FFF7C2FF0346FB71FB79FF2B04D0054B5B
:100770001B78DBB2002BF3D1FB7918460837BD4656
:1007800080BD00BF0901002080B582B000AFFFF737
:1007900083FF0023FB7105E0FF20FFF78DFFFB794E
:1007A0000133FB71FB79092BF6D9034B01221A7037
:1007B0000837BD4680BD00BF0B01002080B400AFEC
:1007C000034B00221A70BD465DF8047B704700BFE2
:1007D0000B01002080B400AF034B1B781846BD46C8
:1007E0005DF8047B704700BF0B01002080B584B02A
:1007F00000AF78603960174B0A221A70FFF774FF58
:100800000346FB73FB7BFF2B04D1124B1B78DBB23F
:10081000002BF3D1FB7BFE2B01D0002316E07B687D
:100820005A1C7A601846FFF785FF7B685A1C7A606D
:100830001846FFF77FFF3B68023B3B603B68002B9D
:10084000EDD1FFF751FFFFF74FFF01231846103797
:10085000BD4680BD0801002080B584B000AF78603F
:100860000B46FB700023BB60FFF772FF0346FF2BB4
:1008700001D000233FE0FB781846FFF71DFFFB780F
:10088000FD2B30D00023BB737B685A1C7A601B7829
:100890001846FFF711FF7B685A1C7A601B781846D0
:1008A000FFF70AFFBB7B013BBB73BB7B002BEBD18C
:1008B000FFF71AFFFFF718FF0CE0FFF715FF0346DD
:1008C000FB73FB7B03F01F03052B00D105E0BB6826
:1008D0000133BB60BB68402BEFD900BFFFF704FFBB
:1008E0000346002BFAD0FB7B03F01F03052B01D13D
:1008F000012300E0002318461037BD4680BD00BF2D
:1009000080B584B000AF03463960FB71FFF720FF6C
:100910000346FF2B01D0FF2340E0FB791846FFF789
:10092000CBFE3B681B0EDBB21846FFF7C5FE3B68EB
:100930001B0CDBB21846FFF7BFFE3B681B0ADBB29D
:100940001846FFF7B9FE3B68DBB21846FFF7B4FE66
:100950000023FB73FB79402B01D19523FB73FB79BB
:10096000482B01D18723FB73FB7B1846FFF7A4FEBE
:10097000FB794C2B01D1FFF7B7FE0A23FB73FFF77E
:10098000B3FE0346BB73BB7B5BB2002B05DAFB7B7C
:10099000013BFB73FB7B002BF1D1BB7B184610376F
:1009A000BD4680BD90B585B000AF0346FB71FB79B5
:1009B000002B01D00123D3E06B4B1B78DBB203F09B
:1009C0000203002B03D0684B1B78DBB2C8E0FFF7B3
:1009D000DBFEFFF751FE0023BB7340200021FFF731
:1009E0008FFF0346012B40F0A380604B64221A70F6
:1009F00048204FF4D571FFF783FF0346012B57D1F1
:100A00000023FB730CE0FC7BFFF76EFE03461A46E7
:100A100007F11003234403F8082CFB7B0133FB731D
:100A2000FB7B032BEFD9BB7A012B40F08180FB7A53
:100A3000AA2B7DD177200021FFF762FF0346012B0F
:100A400008D869204FF08041FFF75AFF0346002B7A
:100A500000D104E0454B1B78DBB2002BEAD1434BBD
:100A60001B78DBB2002B63D07A200021FFF748FF10
:100A70000346002B5CD10023FB730CE0FC7BFFF7EB
:100A800033FE03461A4607F11003234403F8082CEB
:100A9000FB7B0133FB73FB7B032BEFD93B7A03F02A
:100AA0004003002B01D0062300E00223BB733FE08C
:100AB00077200021FFF724FF0346012B08D8692087
:100AC0000021FFF71DFF0346012B01D8022300E0A0
:100AD0000123BB73BB7B022B0ED177200021FFF7D4
:100AE0000FFF0346012B0FD869200021FFF708FFF5
:100AF0000346002B08D10CE041200021FFF700FF46
:100B00000346002B00D104E0184B1B78DBB2002B0E
:100B1000E0D1164B1B78DBB2002B07D050204FF4EE
:100B20000071FFF7EDFE0346002B01D00023BB73DD
:100B30000F4BBA7B1A70FFF7AFFDFFF7D5FDBB7BFC
:100B4000002B08D0084B1B78DBB223F00103DAB28C
:100B5000054B1A7001E0FFF731FE034B1B78DBB247
:100B600018461437BD4690BD000000200801002043
:100B70000A01002080B483B000AF0346FB71FB790B
:100B8000002B01D0012302E0044B1B78DBB2184696
:100B90000C37BD465DF8047B704700BF00000020A5
:100BA00080B584B000AFB9607A600246FA73BB7357
:100BB000FB7B002B02D1BB7B002B01D1042350E037
:100BC0002A4B1B78DBB203F00103002B01D0032377
:100BD00047E0274B1B7803F00403002B02D17B680E
:100BE0005B027B60FFF748FDBB7B012B11D15120DD
:100BF0007968FFF785FE0346002B28D1B8684FF4CB
:100C00000071FFF7F3FD0346002B20D00023BB73D8
:100C10001DE052207968FFF773FE0346002B16D1C2
:100C2000B8684FF40071FFF7E1FD0346002B00D1D7
:100C300009E0BB6803F50073BB60BB7B013BBB7382
:100C4000BB7B002BECD14C200021FFF759FEFFF7B6
:100C500023FDFFF749FDBB7B002B0CBF00230123C5
:100C6000DBB218461037BD4680BD00BF0000002033
:100C70000A01002080B584B000AFB9607A600246F6
:100C8000FA73BB73FB7B002B02D1BB7B002B01D122
:100C900004236BE0374B1B78DBB203F00103002B1E
:100CA00001D0032362E0334B1B78DBB203F0040373
:100CB000002B01D0022359E02F4B1B7803F00403D3
:100CC000002B02D17B685B027B60FFF7D5FCBB7B0E
:100CD000012B10D158207968FFF712FE0346002B34
:100CE0003AD1B868FE21FFF7B7FD0346002B33D099
:100CF0000023BB7330E0204B1B7803F00203002B72
:100D000008D077200021FFF7FBFDBB7B5720194659
:100D1000FFF7F6FD59207968FFF7F2FD0346002B37
:100D20001AD1B868FC21FFF797FD0346002B00D1CC
:100D300009E0BB6803F50073BB60BB7B013BBB7381
:100D4000BB7B002BEDD10020FD21FFF785FD034685
:100D5000002B01D10123BB73FFF79EFCFFF7C4FCFE
:100D6000BB7B002B0CBF00230123DBB218461037DE
:100D7000BD4680BD000000200A01002090B58BB068
:100D800000AF0B463A600246FA71BB713B683B62AA
:100D9000FB79002B01D0042311E1012387F82730D0
:100DA000BB79052B28D13B6A1B78012B0ED0022B77
:100DB00012D0002B1BD1FFF70DFD0346002B01D0F5
:100DC000FFF7FCFC002387F8273014E0FFF7DCFC7A
:100DD000002387F827300EE03B6A5C1CFFF7FAFC23
:100DE0000346DBB22370002387F8273003E0042397
:100DF00087F82730E1E0E0E0734B1B78DBB203F0CB
:100E00000103002B01D00323D9E0FFF735FCBB79A8
:100E10000D2B00F2CB8001A252F823F0110F000835
:100E2000550E0008010F0008AD0F0008AD0F0008B7
:100E3000AD0F0008AD0F0008AD0F0008AD0F0008A2
:100E4000AD0F0008AD0F0008250F00084B0F00087C
:100E5000710F000849200021FFF752FD0346002BC7
:100E60004DD107F10C0318461021FFF7BFFC0346D4
:100E7000002B44D03B7B9B09DBB2012B0DD17B7D4A
:100E80001A463B7D1B029BB213449BB20133FB838A
:100E9000FB8B9A023B681A602DE07B7C03F00F030A
:100EA000DAB2BB7DDB09DBB21344DAB27B7D03F03F
:100EB0000303DBB25B00DBB21344DBB2023387F81F
:100EC00026303B7D9B09DBB21A46FB7C9B009BB224
:100ED00013449AB2BB7C03F003039BB29B029BB208
:100EE00013449BB20133FB83FA8B97F82630093BFE
:100EF0009A403B681A60002387F8273059E058E091
:100F00003B684FF400721A80002387F8273050E0C6
:100F1000FFF71EFC0346FF2B03D1002387F8273081
:100F200047E046E049200021FFF7EAFC0346002B9A
:100F30000AD1386A1021FFF759FC0346002B03D071
:100F4000002387F8273034E033E04A200021FFF700
:100F5000D7FC0346002B0AD1386A1021FFF746FC64
:100F60000346002B03D0002387F8273021E020E040
:100F70007A200021FFF7C4FC0346002B16D1002382
:100F800087F826300BE03C6A631C3B62FFF7ACFB42
:100F90000346237097F82630013387F8263097F8F8
:100FA0002630032BEFD9002387F82730042387F856
:100FB0002730FFF771FBFFF797FB97F827301846AC
:100FC0002C37BD4690BD00BF0000002080B400AFAC
:100FD000024B1846BD465DF8047B70470060213E19
:100FE00080B487B000AF7860396000237B61002354
:100FF0003B610023FB6000237B6176E07B6901227B
:1010000002FA03F33B613B681A683B691340FB60DB
:10101000FA683B699A4265D17B681A687B695B0014
:10102000032101FA03F3DB431A407B681A607B68F3
:101030001A683B681B7919467B695B0001FA03F368
:101040001A437B681A603B681B79012B03D03B680D
:101050001B79022B2ED17B689A687B695B00032188
:1010600001FA03F3DB431A407B689A607B689A6855
:101070003B685B7919467B695B0001FA03F31A430D
:101080007B689A607B685A687B699BB2012101FA90
:1010900003F3DB431A407B685A607B685A683B68FD
:1010A0009B7919467B699BB201FA03F39BB21A4301
:1010B0007B685A607B68DA687B699BB25B000321BE
:1010C00001FA03F3DB431A407B68DA607B68DA6875
:1010D0003B68DB7919467B695B0001FA03F31A432D
:1010E0007B68DA607B6901337B617B690F2B85D973
:1010F0001C37BD465DF8047B704700BF80B483B0E9
:1011000000AF78600B467B807B687A881A830C3747
:10111000BD465DF8047B704780B483B000AF786053
:101120000B467B807B687A885A830C37BD465DF816
:10113000047B704780B485B000AF786013460A46E0
:101140007A807B700023FB600023BB607A787B8809
:1011500003F007039B0002FA03F3FB607B88DB08C4
:101160009BB21A467B88DB089BB219467B68083124
:1011700053F821107B8803F007039B000F2000FA2F
:1011800003F3DB4319407B68083243F822107B8865
:10119000DB089BB21A467B68083253F82220FB68B2
:1011A0001343BB607B88DB089BB21A467B6808321E
:1011B000B96843F822101437BD465DF8047B7047C8
:1011C00080B500AF114B114A126842F001021A605B
:1011D0000E4B00229A600D4A0C4B1B6823F084735F
:1011E00023F480331360094B094A5A60074B074ABE
:1011F000126822F480221A60044B0022DA6000F0A8
:101200000BF8044B4FF000629A6080BD003802403A
:101210001030002400ED00E080B483B000AF002364
:101220007B6000233B60354B344A126842F48032C5
:101230001A60324B1B6803F400333B607B68013358
:101240007B603B68002B03D17B68B3F5A06FF0D1C6
:101250002A4B1B6803F40033002B02D001233B60B0
:1012600001E000233B603B68012B42D1234B234A22
:10127000126C42F080521A64214B214A126842F4E7
:1012800080421A601D4B1D4A92689A601B4B1B4A94
:10129000926842F400429A60184B184A926842F4ED
:1012A000A0529A60154B174A5A60144B134A1268A1
:1012B00042F080721A6000BF104B1B6803F000738D
:1012C000002BF9D0104B40F205621A600B4B0B4A11
:1012D000926822F003029A60084B084A926842F032
:1012E00002029A6000BF054B9B6803F00C03082BB9
:1012F000F9D10C37BD465DF8047B704700380240D9
:101300000070004008544007003C024080B485B0A3
:1013100000AF03463960FB80FB887F2B02D8FB8837
:10132000FB8125E03B68002B0CD0FB88FF2B06D807
:10133000FB88A3F18002124B33F8123000E0002347
:10134000FB8115E00023FB810AE0FA890C4B33F89E
:101350001230FA889A4200D105E0FB890133FB8103
:10136000FB897F2BF1D9FB8980339BB2DBB2FB81F8
:10137000FB8918461437BD465DF8047B704700BFF3
:101380000C3D000880B485B000AF0346FB8000230D
:10139000FB6002E0FB680133FB600F4BFA6833F837
:1013A0001230002B06D00C4BFA6833F81230FA8852
:1013B0009A42EFD1084BFA6833F81230002B04D070
:1013C000064BFA6833F8123000E0FB8818461437F1
:1013D000BD465DF8047B70470C3E0008EC3F0008FA
:1013E00080B582B000AF78600B467B807B68002BB5
:1013F00008D07B681B78002B04D07B68DB887A8858
:101400009A4201D009230CE07B685B781846FFF70D
:10141000B1FB034603F00103002B01D0032300E0DE
:10142000002318460837BD4680BD00BF80B487B092
:1014300000AFF860B9607A60FB687B61BB683B61B4
:1014400007E07B695A1C7A613A69511C396112784C
:101450001A707B685A1E7A60002BF2D11C37BD4689
:101460005DF8047B704700BF80B487B000AFF860C0
:10147000B9607A60FB687B6105E07B695A1C7A6120
:10148000BA68D2B21A707B685A1E7A60002BF4D107
:101490001C37BD465DF8047B704700BF80B489B03F
:1014A00000AFF860B9607A60FB68FB61BB68BB6144
:1014B00000237B6100BF7B685A1E7A60002B0DD031
:1014C000FB695A1CFA611B781A46BB69591CB96141
:1014D0001B78D31A7B617B69002BECD07B691846A3
:1014E0002437BD465DF8047B704700BF80B483B0ED
:1014F00000AF7860396002E07B6801337B607B6815
:101500001B78002B05D07B681B781A463B689A42F3
:10151000F2D17B681B7818460C37BD465DF8047B1A
:10152000704700BF80B584B000AF786039607B68D9
:101530001B6BFB60FA683B689A424BD07B681B7957
:10154000002B32D07B685A787B68343310461946BA
:10155000FA680123FFF78EFB0346002B01D001231D
:1015600039E07B6800221A717B685A6A7B681B6AC3
:101570001A44FB689A4218D97B68DB78FB7211E049
:101580007B681B6AFA681344FB607B685A787B6847
:10159000343310461946FA680123FFF76BFBFB7AD8
:1015A000013BFB72FB7A012BEAD83B68002B11D080
:1015B0007B685A787B683433104619463A680123B1
:1015C000FFF7EEFA0346002B01D0012303E07B680E
:1015D0003A681A63002318461037BD4680BD00BF25
:1015E00080B584B000AF786078680021FFF79AFF7B
:1015F0000346FB73FB7B002B40F092807B681B78DB
:10160000032B40F081807B685B79002B7CD07B686A
:1016100000221A637B683433184600214FF40072AD
:10162000FFF722FF7B68552283F832227B68AA22CB
:1016300083F833227B68522283F834207B6852225D
:1016400083F835207B68612283F836207B6841224D
:1016500083F837207B68722283F818227B68722215
:1016600083F819227B68412283F81A227B68612261
:1016700083F81B227B681B69DAB27B6883F81C2223
:101680007B681B699BB21B0A9BB2DAB27B6883F84A
:101690001D227B681B691B0CDAB27B6883F81E2253
:1016A0007B681B691B0EDAB27B6883F81F227B689C
:1016B000DB68DAB27B6883F820227B68DB689BB248
:1016C0001B0A9BB2DAB27B6883F821227B68DB6855
:1016D0001B0CDAB27B6883F822227B68DB681B0E66
:1016E000DAB27B6883F823227B6859787B6803F140
:1016F00034027B685B69084611461A460123FFF7EE
:10170000B9FA7B6800225A717B685B781846002121
:101710000022FFF733FB0346002B01D00123FB73AC
:10172000FB7B18461037BD4680BD00BF80B483B038
:1017300000AF786039603B68023B3B607B68DB69E7
:101740009A1E3B689A4201D8002307E07B689B7889
:101750003A6802FB03F27B68DB6A134418460C37D5
:10176000BD465DF8047B704780B586B000AF7860F9
:1017700039603B68012B04D97B68DA693B689A427F
:1017800001D8012398E07B681B78022B47D0032BFC
:1017900066D0012B40F08E803B687B617B695B08E3
:1017A0007A6913447B617B685A6A7B695B0A1344DC
:1017B00078681946FFF7B6FE0346002B00D079E0A3
:1017C0007B69C3F308037A68134493F834303B61B0
:1017D0007B6901337B617B685A6A7B695B0A1344CE
:1017E00078681946FFF79EFE0346002B00D061E0A3
:1017F0007B69C3F308037A68134493F834301B02FF
:101800003A6913433B613B6803F00103002B02D0AC
:101810003B691B0902E03B69C3F30B034CE07B68A7
:101820005A6A3B681B0A134478681946FFF77AFE28
:101830000346002B00D03DE03B685B0003F4FF73E0
:1018400030337A6813440433FB60FB6801331B7840
:101850001B029AB2FB681B7813439BB29BB22BE02E
:101860007B685A6A3B68DB09134478681946FFF7BE
:1018700059FE0346002B00D01CE03B689B0003F49C
:10188000FE7330337A6813440433FB60FB68033320
:101890001B781A06FB6802331B781B041A43FB688B
:1018A00001331B781B021A43FB681B78134323F098
:1018B000704301E04FF0FF3318461837BD4680BD36
:1018C00080B588B000AFF860B9607A60BB68012B62
:1018D00004D9FB68DA69BB689A4202D80223FB7715
:1018E000E7E0FB681B78022B72D0032B00F0958099
:1018F000012B40F0D980BB68BB61BB695B08BA694A
:101900001344BB61FB685A6ABB695B0A1344F868FD
:101910001946FFF707FE0346FB77FB7F002B00D03D
:10192000C4E0BB69C3F308033033FA6813440433DB
:101930007B61BB6803F00103002B0DD07B691B7832
:10194000DBB203F00F03DAB27B68DBB21B01DBB260
:101950001343DBB2DBB201E07B68DBB27A69137060
:10196000BB690133BB61FB6801221A71FB685A6ACB
:10197000BB695B0A1344F8681946FFF7D3FD0346B9
:10198000FB77FB7F002B00D090E0BB69C3F308031B
:101990003033FA68134404337B61BB6803F00103FE
:1019A000002B03D07B681B09DBB20EE07B691B7840
:1019B000DBB223F00F03DAB27B681B0ADBB203F061
:1019C0000F03DBB21343DBB2DBB27A6913706DE055
:1019D000FB685A6ABB681B0A1344F8681946FFF78C
:1019E000A1FD0346FB77FB7F002B00D05EE0BB68C8
:1019F0005B0003F4FF733033FA68134404337B61F4
:101A00007B68DAB27B691A707B6901337A6892B2BB
:101A1000120A92B2D2B21A7048E0FB685A6ABB68E6
:101A2000DB091344F8681946FFF77CFD0346FB7792
:101A3000FB7F002B00D039E0BB689B0003F4FE73F2
:101A40003033FA68134404337B617B6903331B78BA
:101A50001A067B6902331B781B041A437B69013326
:101A60001B781B021A437B691B78134303F07043F6
:101A70007A6813437B607B68DAB27B691A707B6992
:101A800001337A6892B2120A92B2D2B21A707B69AA
:101A900002337A68120CD2B21A707B6903337A6807
:101AA000120ED2B21A7001E00223FB77FB6801220A
:101AB0001A71FB7F18462037BD4680BD80B584B0C3
:101AC00000AF786039603B68012B04D97B68DA6924
:101AD0003B689A4202D80223FB7337E00023FB7372
:101AE0002FE078683968FFF73FFEB860BB68002BCD
:101AF00000D12BE0BB68012B02D10223FB7325E050
:101B0000BB68B3F1FF3F02D10123FB731EE078688D
:101B100039680022FFF7D4FE0346FB73FB7B002BE2
:101B200000D013E07B681B69B3F1FF3F07D07B68EF
:101B30001B695A1C7B681A617B6801225A71BB6859
:101B40003B607B68DA693B689A42CAD8FB7B1846DF
:101B50001037BD4680BD00BF80B586B000AF78604D
:101B600039603B68002B0DD17B68DB683B613B69CA
:101B7000002B04D07B68DA693B699A4215D80123AF
:101B80003B6112E078683968FFF7EEFDB860BB682A
:101B9000012B01D8012366E07B68DA69BB689A42B1
:101BA00001D9BB685FE03B683B613B697B617B6956
:101BB00001337B617B68DA697B699A4207D802232B
:101BC0007B617A693B699A4201D900234BE07868CE
:101BD0007969FFF7C9FDB860BB68002B0CD100BF65
:101BE000786879696FF07042FFF76AFE0346FB730D
:101BF000FB7B002B1AD10FE0BB68B3F1FF3F02D093
:101C0000BB68012B01D1BB682DE07A693B699A4220
:101C100001D1002327E0CAE73B68002B06D0786893
:101C200039687A69FFF74CFE0346FB73FB7B002B98
:101C300010D17B687A69DA607B681B69B3F1FF3F7A
:101C400010D07B681B695A1E7B681A617B68012271
:101C50005A7107E0FB7B012B02D14FF0FF3300E00C
:101C600001237B617B6918461837BD4680BD00BFE4
:101C700080B584B000AF78600B467B807B687A8843
:101C8000DA807B689B68FB60FB68012B05D07B6872
:101C90001B68DA69FB689A4201D8022365E0FB6899
:101CA000002B08D17B681B681B78032B03D17B6852
:101CB0001B689B6AFB60FB68002B14D17B68FA6889
:101CC000DA607B681B681B897A889A4201D30223F9
:101CD0004BE07B681B689A6A7B881B099BB21A449D
:101CE0007B681A6135E07B681B689B781B017B81F0
:101CF0001BE07B681B681846F968FFF735FDF86044
:101D0000FB68B3F1FF3F01D101232EE0FB68012BFB
:101D100005D97B681B68DA69FB689A4201D80223FF
:101D200023E07A887B89D31A7B807A887B899A42E0
:101D3000DFD27B68FA68DA607B681B681846F9684E
:101D4000FFF7F4FC02467B881B099BB21A447B68B0
:101D50001A617B681A687B8803F00F035B013033DC
:101D600013441A1D7B685A61002318461037BD467C
:101D700080BD00BF90B585B000AF786039607B68EA
:101D8000DB8801333B813B89002B03D07B681B69D7
:101D9000002B01D10423BDE03B8903F00F039BB26C
:101DA000002B40F0A8807B681B695A1C7B681A6175
:101DB0007B68DB68002B08D17B681B681B893A892C
:101DC0009A42C0F098800423A4E03B891B099BB28F
:101DD0001A467B681B689B78013B1340002B40F040
:101DE0008A807B681A687B68DB6810461946FFF7B3
:101DF000BBFCF860FB68012B01D802238AE0FB687A
:101E0000B3F1FF3F01D1012384E07B681B68DA69ED
:101E1000FB689A4263D83B68002B01D1042379E028
:101E20007B681A687B68DB6810461946FFF794FEEA
:101E3000F860FB68002B01D107236BE0FB68012BE6
:101E400001D1022366E0FB68B3F1FF3F01D101231A
:101E500060E07B681B6818460021FFF763FB0346C0
:101E6000002B01D0012355E07B681B6834331846F2
:101E700000214FF40072FFF7F7FA7B681C687B685B
:101E80001B681846F968FFF751FC034623630023DB
:101E9000FB7216E07B681B6801221A717B681B6865
:101EA00018460021FFF73EFB0346002B01D001231B
:101EB00030E07B681B681A6B01321A63FB7A0133CE
:101EC000FB727B681B689B78FA7A9A42E2D37B6844
:101ED0001B687A681268116BFA7A8A1A1A637B682F
:101EE000FA68DA607B681B681846F968FFF71EFC21
:101EF00002467B681A617B683A89DA807B681A68D7
:101F00003B8903F00F035B01303313441A1D7B68D8
:101F10005A61002318461437BD4690BD80B586B07F
:101F200000AF786039603B681B7803F0BF035A1E2E
:101F300013465B0013449B0013447B6100233B6109
:101F40000123FB81294A3B6913441B7801333A681A
:101F500013441B781B029AB224493B690B441B783B
:101F600039680B441B7813439BB2BB81FB89002B60
:101F700018D0BB891846FFF705FA0346FB817B6939
:101F8000FE2B0DD87B695A1C7A615B007A6813447A
:101F90001B881846FFF7F6F90346FA899A4208D0DB
:101FA00000231FE0BA894FF6FF739A4201D0002345
:101FB00018E03B6901333B613B690C2BC2D93B689C
:101FC0001B7803F04003002B0BD0FB89002B08D0BB
:101FD0007B695B007A6813441B88002B01D00023C7
:101FE00000E0012318461837BD4680BDCC410008EB
:101FF00080B489B000AFF860B960FA71BB71BB689A
:102000000D33BA791A70BB680B330F221A70BB6894
:102010000C3300221A70BB681A3300221A70BB6896
:102020001B3300221A70FB795A1E13465B001344BF
:102030009B001344FB610023FB820023BB61FA8AEF
:102040004FF6FF739A4207D0FB695A1CFA615B0096
:10205000FA6813441B88FB821C4ABB6913441B7833
:10206000BA681344FA8AD2B21A70184ABB69134488
:102070001B780133BA681344FA8A120A92B2D2B2B8
:102080001A70FB8A002B02D14FF6FF73FB82BB69EB
:102090000133BB61BB690C2BD1D9FA8A4FF6FF73B0
:1020A0009A4206D0FB695B00FA6813441B88002B38
:1020B00003D1FB7943F04003FB71BB68FA791A70D6
:1020C0002437BD465DF8047B704700BFCC41000853
:1020D00080B58AB000AFF860B9607A607B80F8683C
:1020E000B9680B22FFF7A2F97B88052B0FD97B88F3
:1020F0009AB25208DB0313439AB27B68991C796049
:102100001B8813447B807B681B88002BEFD107233F
:102110003B627B88DBB203F00F03DBB2303387F81E
:10212000273097F82730392B04D997F82730073311
:1021300087F827303B6A5A1E3A6207F128010B44A0
:1021400097F8272003F8142C7B881B097B807B8859
:10215000002BDED107F114023B6A13447E221A7071
:102160000023FB6102E0FB690133FB61FA693B6A12
:102170009A4205D2FA68FB6913441B78202BF2D1EE
:10218000FB695A1CFA61FA681A443B6A072B08D8A3
:102190003B6A591C396207F128010B4413F8143CBF
:1021A00000E020231370FB69072BE9D92837BD46CF
:1021B00080BD00BF80B485B000AF78600023FB73A2
:1021C0000B23BB60FB7BDAB25208DB011343DAB2AC
:1021D0007B68591C79601B781344FB73BB68013B17
:1021E000BB60BB68002BEDD1FB7B18461437BD46A6
:1021F0005DF8047B704700BF80B586B000AF7860A3
:1022000078680021FFF734FD0346FB75FB7D002B4A
:1022100001D0FB7D93E0FF233B753B7D7B757B68A5
:102220001A687B681B6910461946FFF77BF903465D
:10223000FB75FB7D002B00D080E07B685B693B6118
:102240003B691B78BB75BB7D002B02D10423FB755A
:1022500074E03B690B331B7803F03F03FB73BB7DDA
:10226000E52B07D0FB7B03F00803002B05D0FB7B9D
:102270000F2B02D0FF237B7556E0FB7B0F2B2FD15A
:102280007B68DB69002B4FD0BB7D03F04003002B44
:102290000CD03B695B7B3B75BB7D23F04003BB757A
:1022A000BB7D7B757B68DA887B681A84BA7D7B7D11
:1022B0009A4212D13B690D331B783A7D9A420CD178
:1022C0007B68DB6918463969FFF728FE0346002B57
:1022D00003D07B7D013BDBB200E0FF237B7523E075
:1022E0007B7D002B07D13869FFF764FF03463A7DF9
:1022F0009A4200D122E0FF237B757B684FF6FF7284
:102300001A847B689B690B331B7803F00103002B55
:102310000AD17B689B69386919460B22FFF7BEF822
:102320000346002B00D109E078680021FFF722FD69
:102330000346FB75FB7D002B3FF471AFFB7D184618
:102340001837BD4680BD00BF80B58CB000AF786047
:102350007B689B697B627B68DB693B6207F10C03EE
:102360001846796A0C22FFF761F8FB7D03F0200321
:10237000002B01D006231DE1FB7D03F00103002BA0
:1023800035D07B6A0B3300221A707B680022DA6139
:102390000123BB8515E007F10C02BB8D786A11465D
:1023A0003A6AFFF795FE7868FFF726FF034687F83D
:1023B0002F3097F82F30002B00D005E0BB8D013374
:1023C000BB85BB8D632BE6D9BB8D642B01D1072365
:1023D000F0E097F82F30042B02D097F82F30E9E087
:1023E0007B6A0B33FA7D1A707B683A6ADA61FB7D8F
:1023F00003F00203002B16D000237B8502E07B8DC7
:1024000001337B857B8D5B003A6A13441B88002B6C
:10241000F5D17B8D1933694A82FB03129210DB17C9
:10242000D31A7B8501E001237B8578680021FFF7C3
:102430001FFC034687F82F3097F82F30002B02D06F
:1024400097F82F30B6E000233B853B8DBB857B683A
:102450001A687B681B6910461946FFF763F8034644
:1024600087F82F3097F82F30002B00D025E07B68BD
:102470005B691B78FB77FB7FE52B02D0FB7F002B92
:102480000ED1BB8D002B02D17B68DB883B85BB8DD9
:102490000133BB85BA8D7B8D9A4200D10DE001E0FE
:1024A0000023BB8578680121FFF764FC034687F8A9
:1024B0002F3097F82F30002BC9D097F82F30002BF2
:1024C00046D17B8D012B43D93B8D78681946FFF7A8
:1024D000CFFB034687F82F3097F82F30002B37D1EA
:1024E0007B689B691846FFF765FE0346BB777B8DCB
:1024F000013B7B857B681A687B681B69104619461F
:10250000FFF710F8034687F82F3097F82F30002B8D
:1025100000D01DE07B68D8697B6859697B8DDAB291
:10252000BB7FFFF765FD7B681B6801221A71786825
:102530000021FFF71FFC034687F82F3097F82F3054
:10254000002B05D17B8D013B7B857B8D002BD1D171
:1025500097F82F30002B2BD17B681A687B681B699A
:1025600010461946FEF7DEFF034687F82F3097F82E
:102570002F30002B1CD17B685B69BB61B8690021DF
:102580002022FEF771FF7B689B69B86919460B2210
:10259000FEF74CFFBB690C337A6892690B321278F4
:1025A00002F01802D2B21A707B681B6801221A71FD
:1025B00097F82F3018463037BD4680BD4FECC44EDB
:1025C00080B58AB000AF7860396000237B617B6999
:1025D000BB613B681B683B617B68DB69FB60BB6977
:1025E0005A1CBA613A6913441B78BB84BB8C1F2BFD
:1025F0002FD9BB8C2F2B2CD0BB8C5C2B29D07B698B
:10260000FE2B01D90623C7E1BB8CDBB2BB84BB8C9C
:1026100018460121FEF77AFE0346BB84BB8C002BD3
:1026200001D10623B8E1BB8C7F2B09D8BB8CA6480F
:102630001946FEF75BFF0346002B01D00623ABE1F2
:102640007B695A1C7A615B00FA681344BA8C1A8061
:10265000C5E73A69BB691A443B681A60BB8C1F2BFB
:1026600001D8042300E0002387F826307B69012B82
:1026700009D17B6903F10043013B5B00FA68134415
:102680001B882E2B16D07B69022B3AD17B6903F174
:102690000043013B5B00FA6813441B882E2B30D1AA
:1026A0007B6903F10043023B5B00FA6813441B881B
:1026B0002E2B26D17B695B00FA68134400221A8016
:1026C00000233B620EE07B689A693B6A1A44396AD0
:1026D0007B69994201D22E2300E0202313703B6ACC
:1026E00001333B623B6A0A2BEDD97B689A693B6AEE
:1026F000134497F8262042F02002D2B21A70002329
:102700004AE112E07B6903F10043013B5B00FA6898
:1027100013441B88BB84BB8C202B03D0BB8C2E2B7B
:1027200000D005E07B69013B7B617B69002BE9D12F
:102730007B69002B01D106232EE17B695B00FA68DF
:10274000134400221A807B689B69184620210B22C3
:10275000FEF78AFE0023BB6102E0BB690133BB6167
:10276000BB695B00FA6813441B88202BF5D0BB695A
:102770005B00FA6813441B882E2BEED0BB69002B3C
:1027800006D097F8263043F0030387F8263003E09D
:1027900002E07B69013B7B617B69002B09D07B698F
:1027A00003F10043013B5B00FA6813441B882E2BA6
:1027B000EFD100233B62002387F827300823FB6119
:1027C000BB695A1CBA615B00FA6813441B88BB845E
:1027D000BB8C002B00D197E0BB8C202B06D0BB8C90
:1027E0002E2B0AD1BA697B699A4206D097F8263017
:1027F00043F0030387F8263085E03A6AFB699A4282
:1028000003D2BA697B699A4224D1FB690B2B06D1AA
:1028100097F8263043F0030387F8263074E0BA694E
:102820007B699A4205D097F8263043F0030387F876
:102830002630BA697B699A4200D965E07B69BB6141
:1028400008233B620B23FB6197F827309B0087F836
:10285000273058E0BB8C7F2B14D9BB8C1846002145
:10286000FEF754FD0346BB84BB8C002B04D0BB8C0D
:10287000803B164AD35CBB8497F8263043F00203B2
:1028800087F82630BB8C002B07D0BB8C104819462C
:10289000FEF72CFE0346002B08D05F23BB8497F87D
:1028A000263043F0030387F8263022E0BB8C402B10
:1028B00010D9BB8C5A2B0DD897F8273043F0020360
:1028C00087F8273015E000BFDC410008F041000820
:1028D000E8410008BB8C602B0BD9BB8C7A2B08D845
:1028E00097F8273043F0010387F82730BB8C203B53
:1028F000BB847B689A693B6A591C39621344BA8C61
:10290000D2B21A705CE75BE77B689B691B78E52BAA
:1029100003D17B689B6905221A70FB69082B04D1DF
:1029200097F827309B0087F8273097F8273003F077
:102930000C030C2B05D097F8273003F00303032B6F
:1029400005D197F8263043F0020387F8263097F830
:10295000263003F00203002B17D197F8273003F03D
:102960000303012B05D197F8263043F0100387F8B5
:10297000263097F8273003F00C03042B05D197F885
:10298000263043F0080387F826307B689B690B33B9
:1029900097F826201A70002318462837BD4680BDB8
:1029A00080B584B000AF786039603B681B782F2B0E
:1029B00003D03B681B785C2B06D13B6801333B603E
:1029C0007B6800229A6004E07B681B689A697B68D8
:1029D0009A603B681B781F2B09D878680021FFF7A5
:1029E00047F90346FB737B6800225A6165E03B466A
:1029F00078681946FFF7E4FD0346FB73FB7B002B69
:102A000000D05AE07868FFF7F7FB0346FB737B685A
:102A10009B69DB7ABB73FB7B002B20D0FB7B042BF9
:102A200000D04AE0BB7B03F02003002B0ED07B6874
:102A300000229A607B6800225A610023FB73BB7BF3
:102A400003F00403002B09D100BFD0E7BB7B03F0E8
:102A50000403002B02D10523FB732EE02DE0BB7B8A
:102A600003F00403002B00D027E07B685B69BB60A8
:102A7000BB680B331B7803F01003002B02D1052336
:102A8000FB731AE0BB6815331B781B029AB2BB6854
:102A900014331B7813439BB29BB21A04BB681B33DD
:102AA0001B781B0299B2BB681A331B780B439BB28D
:102AB0009BB21A437B689A6099E7FB7B18461037F4
:102AC000BD4680BD80B582B000AF786039607B685C
:102AD0005A787B683433104619463A680123FEF76A
:102AE0005FF80346002B01D0032342E07B6893F894
:102AF00033321B029AB27B6893F8323213439BB293
:102B00001AB21E4B9A4201D0022332E07B6893F83E
:102B10006D301A067B6893F86C301B041A437B688F
:102B200093F86B301B021A437B6893F86A301343A7
:102B300023F07F42124B9A4201D1002319E07B68B7
:102B400093F889301A067B6893F888301B041A437F
:102B50007B6893F887301B021A437B6893F88630B2
:102B6000134323F07F42064B9A4201D1002300E039
:102B7000012318460837BD4680BD00BF55AAFFFF98
:102B80004641540080B592B000AFF860B96013467A
:102B9000FB71FB681B68FB62FB6A1B78303B3B6484
:102BA0003B6C092B0BD8FB6A01331B783A2B06D1FF
:102BB000FB6A0233FB62FB68FA6A1A6002E0A84B08
:102BC0001B783B643B6C002B01D00B2361E2A54BCF
:102BD0003A6C53F82230BB62BB68BA6A1A60BB6AAF
:102BE000002B01D10C2354E2BB6A1B78002B1AD0B6
:102BF000BB6A5B781846FDF7BDFF034687F82730B0
:102C000097F8273003F00103002B0CD1FB79002B40
:102C100007D097F8273003F00403002B01D00A23D4
:102C200037E2002335E2BB6A00221A703B6CDAB24D
:102C3000BB6A5A70BB6A5B781846FDF7B3FE034661
:102C400087F8273097F8273003F00103002B01D0D5
:102C500003231EE2FB79002B07D097F8273003F0FF
:102C60000403002B01D00A2313E20023FB63B86A9C
:102C7000F96BFFF727FF034687F8473097F847308F
:102C8000012B22D1BB6A03F5F9733B623B6A043323
:102C90001B78002B19D03B6A0B331B781A063B6A52
:102CA0000A331B781B041A433B6A09331B781B0247
:102CB0001A433B6A08331B781343FB63B86AF96B0A
:102CC000FFF700FF034687F8473097F84730032B9C
:102CD00001D10123DDE197F84730002B01D00D230E
:102CE000D7E1BB6A93F840301B029AB2BB6A93F8F3
:102CF0003F3013439BB21BB2B3F5007F01D00D23CD
:102D0000C7E1BB6A93F84B301B029AB2BB6A93F8D7
:102D10004A3013439BB29BB2BB63BB6B002B12D1F7
:102D2000BB6A93F85B301A06BB6A93F85A301B04EF
:102D30001A43BB6A93F859301B021A43BB6A93F8D3
:102D400058301343BB63BB6ABA6B1A62BB6A93F811
:102D50004430FB77BB6AFA7FDA70FB7F012B04D02B
:102D6000FB7F022B01D00D2393E1FA7FBB6B02FBAB
:102D700003F3BB63BB6A93F84130FB77BB6AFA7F0E
:102D80009A70FB7F002B05D0FA7FFB7F013B13403D
:102D9000002B01D00D237CE1BB6A93F846301B0267
:102DA0009AB2BB6A93F8453013439BB29AB2BB6A9E
:102DB0001A81BB6A1B8903F00F039BB2002B01D061
:102DC0000D2366E1BB6A93F848301B029AB2BB6AD6
:102DD00093F8473013439BB29BB27B637B6B002B12
:102DE00012D1BB6A93F857301A06BB6A93F8563073
:102DF0001B041A43BB6A93F855301B021A43BB6A83
:102E000093F8543013437B63BB6A93F843301B023F
:102E10009AB2BB6A93F8423013439BB2BB83BB8B1D
:102E2000002B01D10D2334E1BA8BBB6B1A44BB6A72
:102E30001B891B099BB21344BB617A6BBB699A4225
:102E400001D20D2325E17A6BBB69D21ABB6A9B784C
:102E5000B2FBF3F37B617B69002B05D10D2318E1F5
:102E6000120100200C010020012387F847307A6905
:102E700040F6F5739A4202D9022387F847307A69FF
:102E80004FF6F5739A4202D9032387F847307B69DE
:102E90009A1CBB6ADA61FA6BBB691A44BB6ADA62D4
:102EA000BA8BFB6B1A44BB6A5A6297F84730032B04
:102EB0001ED1BB6A1B89002B01D00D23E9E0BB6A40
:102EC00093F863301A06BB6A93F862301B041A4306
:102ED000BB6A93F861301B021A43BB6A93F86030F7
:102EE0001A43BB6A9A62BB6ADB699B003B631FE0C3
:102EF000BB6A1B89002B01D10D23CAE0BB6A5A6A49
:102F0000BB6B1A44BB6A9A6297F84730022B03D115
:102F1000BB6ADB695B000AE0BB6ADA6913465B00E7
:102F200013445A08BB6ADB6903F0010313443B6393
:102F3000BB6A1A6A3B6B03F2FF135B0A9A4201D227
:102F40000D23A6E0BB6A4FF0FF321A61BB6A002274
:102F5000DA6097F84730032B40F08380BB6A002289
:102F60005A71BB6A93F865301B029AB2BB6A93F838
:102F7000643013439BB29BB21A46FB6B1A44BB6A84
:102F80005A61BB6A5978BB6A03F13402BB6A5B6958
:102F9000084611461A460123FDF702FE0346002BA0
:102FA0005FD1BB6A93F833321B029AB2BB6A93F8C3
:102FB000323213439BB21AB2384B9A4251D1BB6A98
:102FC00093F837301A06BB6A93F836301B041A435D
:102FD000BB6A93F835301B021A43BB6A93F834304E
:102FE0001A432F4B9A423CD1BB6A93F81B321A0604
:102FF000BB6A93F81A321B041A43BB6A93F819325E
:103000001B021A43BB6A93F818321A43254B9A42A3
:1030100027D1BB6A93F823321A06BB6A93F822328F
:103020001B041A43BB6A93F821321B021A43BB6A82
:1030300093F820321A43BB6ADA60BB6A93F81F32F6
:103040001A06BB6A93F81E321B041A43BB6A93F834
:103050001D321B021A43BB6A93F81C321A43BB6A27
:103060001A61BB6A97F847201A700F4B1B8801330F
:103070009AB20D4B1A800C4B1A88BB6ADA80BB6A75
:1030800000221A63BB6A00221A71BB6A00229A618D
:10309000002318464837BD4680BD00BF55AAFFFF34
:1030A00052526141727241611001002080B485B0BA
:1030B00000AF03463960FB71FB79002B01D00B2375
:1030C00016E0FA790D4B53F82230FB60FB68002BB9
:1030D00002D0FB6800221A703B68002B02D03B68CC
:1030E00000221A70FA79054B396843F82210002340
:1030F00018461437BD465DF8047B70470C0100206C
:1031000080B594B000AFF860B9601346FB71FB68FE
:1031100000221A60FB7903F01F03FB71FB7923F097
:103120000103DBB207F1080107F11C020846114652
:103130001A46FFF727FD034687F84F3007F11003C3
:103140007B63A54BBB6397F84F30002B09D1BB685D
:1031500007F11C0210461946FFF722FC034687F8C8
:103160004F303B6BBB6497F84F30002B05D1BB6CE5
:10317000002B02D1062387F84F30FB7903F01C03A4
:10318000002B00F0AF8097F84F30002B12D097F84B
:103190004F30042B07D107F11C031846FFF7D4F872
:1031A000034687F84F30FB7943F00803FB713B6B14
:1031B000BB6412E0FB7903F00403002B03D0082367
:1031C00087F84F3009E0BB6C0B331B7803F0110319
:1031D000002B02D0072387F84F3097F84F30002B91
:1031E0007FD1FB7903F00803002B7AD0FDF7EEFEC8
:1031F0007864BB6C0E337A6CD2B21A70BB6C0F332E
:103200007A6C92B2120A92B2D2B21A70BB6C1033BC
:103210007A6C120CD2B21A70BB6C11337A6C120E2B
:10322000D2B21A70BB6C0B3300221A70BB6C1C3309
:1032300000221A70BB6C1D3300221A70BB6C1E3347
:1032400000221A70BB6C1F3300221A70BB6C15333E
:103250001B781B029AB2BB6C14331B7813439BB2CE
:103260009BB21A04BB6C1B331B781B0299B2BB6C5C
:103270001A331B780B439BB29BB213433B64BB6C6A
:103280001A3300221A70BB6C1B3300221A70BB6CFD
:10329000143300221A70BB6C153300221A70FB69BC
:1032A00001221A713B6C002B1BD0FB691B6B7B64EA
:1032B000FB691846396CFEF701FC034687F84F306E
:1032C00097F84F30002B0CD1FB693A6C013ADA6069
:1032D000FB691846796CFEF725F9034687F84F30ED
:1032E0001EE01DE097F84F30002B19D1BB6C0B335B
:1032F0001B7803F01003002B03D0042387F84F3012
:103300000EE0FB7903F00203002B09D0BB6C0B33FA
:103310001B7803F00103002B02D0072387F84F30FE
:1033200097F84F30002B0FD1FB7903F00803002BE7
:1033300003D0FB7943F02003FB71FB691A6BFB6838
:10334000DA61FB68BA6C1A6297F84F30002B3DD1F6
:10335000FB68FA799A71BB6C15331B781B029AB221
:10336000BB6C14331B7813439BB29BB21A04BB6C27
:103370001B331B781B0299B2BB6C1A331B780B43AF
:103380009BB29BB21A43FB681A61BB6C1F331B785C
:103390001A06BB6C1E331B781B041A43BB6C1D330F
:1033A0001B781B021A43BB6C1C331B781A43FB6847
:1033B000DA60FB6800229A60FB6800229A61FA6971
:1033C000FB681A60FB69DA88FB689A8097F84F30CF
:1033D00018465037BD4680BD1401002080B58CB022
:1033E00000AFF860B9607A603B60BB687B623B68A5
:1033F00000221A60FB681A68FB689B881046194611
:10340000FDF7EEFF034687F8233097F82330002BB3
:1034100002D097F823303CE1FB689B79DBB25BB2CA
:10342000002B01DA022334E1FB689B7903F00103EE
:10343000002B01D107232CE1FB68DA68FB689B684D
:10344000D31AFB617A68FB699A4202D9FB697B60F7
:103450001AE119E1FB689B68C3F30803002B40F0F5
:10346000E580FB689B685B0ADAB2FB681B689B78A7
:10347000013BDBB21340FB76FB7E002B2CD1FB68BB
:103480009B68002B02D1FB681B6908E0FB681A6887
:10349000FB685B6910461946FEF766F903467B61D7
:1034A0007B69012B08D8FB689B7963F07F03DAB254
:1034B000FB689A710223ECE07B69B3F1FF3F08D10E
:1034C000FB689B7963F07F03DAB2FB689A71012392
:1034D000DFE0FB687A695A61FB681A68FB685B6920
:1034E00010461946FEF722F938613B69002B08D1D6
:1034F000FB689B7963F07F03DAB2FB689A71022361
:10350000C7E0FB7E3A6913443B617B685B0ABB62A0
:10351000BB6A002B44D0FA7EBB6A1A44FB681B6866
:103520009B789A4206D9FB681B689B781A46FB7EFB
:10353000D31ABB62FB681B685A78BB6ADBB21046C1
:10354000796A3A69FDF72CFB0346002B08D0FB682B
:103550009B7963F07F03DAB2FB689A71012398E0EC
:10356000FB689B7903F04003002B15D0FB689A6938
:103570003B69D21ABB6A9A420ED2FB689A693B69D0
:10358000D31A5B027A6A1A44FB6824331046194640
:103590004FF40072FDF74AFFBB6A5B02FB625FE01B
:1035A000FB689B7903F04003002B20D0FB681B686D
:1035B0005978FB6803F12402FB689B6908461146B1
:1035C0001A460123FDF756FB0346002B08D0FB6883
:1035D0009B7963F07F03DAB2FB689A71012358E0AC
:1035E000FB689B7923F04003DAB2FB689A71FB68B1
:1035F0009A693B699A4216D0FB681B685A78FB6847
:103600002433104619463A690123FDF7C9FA0346E7
:10361000002B08D0FB689B7963F07F03DAB2FB686C
:103620009A71012335E0FB683A699A61FB689B68EF
:10363000C3F30803C3F50073FB62FA6A7B689A421E
:1036400001D97B68FB62FB689B68C3F308032033E6
:10365000FA6813440433786A1946FA6AFDF7E6FEFD
:103660007A6AFB6A13447B62FB689A68FB6A1A44B5
:10367000FB689A603B681A68FB6A1A443B681A60E8
:103680007A68FB6AD31A7B607B68002B7FF4E2AE1A
:10369000002318463037BD4680BD00BF80B58AB0D4
:1036A00000AFF860B9607A603B60BB68BB613B68A3
:1036B00000221A60FB681A68FB689B88104619464E
:1036C000FDF78EFE0346FB75FB7D002B01D0FB7DD5
:1036D0006BE1FB689B79DBB25BB2002B01DA022362
:1036E00063E1FB689B7903F00203002B01D1072300
:1036F0005BE1FB68DA687B681A44FB68DB689A4226
:1037000002D200237B603AE139E1FB689B68C3F396
:103710000803002B40F0FE80FB689B685B0ADAB26E
:10372000FB681B689B78013BDBB21340BB75BB7D1C
:10373000002B3DD1FB689B68002B10D1FB681B69F7
:103740007B627B6A002B13D1FB681B681846002143
:10375000FEF702FA7862FB687A6A1A6108E0FB6891
:103760001A68FB685B6910461946FEF7F5F978623E
:103770007B6A002B00D106E17B6A012B08D1FB6834
:103780009B7963F07F03DAB2FB689A7102230CE144
:103790007B6AB3F1FF3F08D1FB689B7963F07F033D
:1037A000DAB2FB689A710123FFE0FB687A6A5A611A
:1037B000FB689B7903F04003002B20D0FB681B685B
:1037C0005978FB6803F12402FB689B69084611469F
:1037D0001A460123FDF74EFA0346002B08D0FB687A
:1037E0009B7963F07F03DAB2FB689A710123DCE016
:1037F000FB689B7923F04003DAB2FB689A71FB689F
:103800001A68FB685B6910461946FDF78FFF38613F
:103810003B69002B08D1FB689B7963F07F03DAB228
:10382000FB689A710223C0E0BB7D3A6913443B6197
:103830007B685B0AFB61FB69002B46D0BA7DFB69A4
:103840001A44FB681B689B789A4206D9FB681B6880
:103850009B781A46BB7DD31AFB61FB681B685A78BC
:10386000FB69DBB21046B9693A69FDF703FA034612
:10387000002B08D0FB689B7963F07F03DAB2FB680A
:103880009A71012391E0FB689A693B69D21AFB693E
:103890009A4216D2FB6803F12402FB6899693B69DE
:1038A000CB1A5B02B9690B44104619464FF40072FB
:1038B000FDF7BCFDFB689B7923F04003DAB2FB689F
:1038C0009A71FB695B023B6245E0FB689A693B6960
:1038D0009A421CD0FB689A68FB68DB689A4216D251
:1038E000FB681B685A78FB682433104619463A690E
:1038F0000123FDF755F90346002B08D0FB689B799F
:1039000063F07F03DAB2FB689A7101234DE0FB6834
:103910003A699A61FB689B68C3F30803C3F50073B7
:103920003B623A6A7B689A4201D97B683B62FB68DA
:103930009B68C3F308032033FA6813440433184622
:10394000B9693A6AFDF772FDFB689B7943F0400361
:10395000DAB2FB689A71BA693B6A1344BB61FB68CF
:103960009A683B6A1A44FB689A603B681A683B6A2B
:103970001A443B681A607A683B6AD31A7B607B689A
:10398000002B7FF4C2AEFB689A68FB68DB689A4242
:1039900003D9FB689A68FB68DA60FB689B7943F09F
:1039A0002003DAB2FB689A71002318462837BD4617
:1039B00080BD00BF80B586B000AF78607B681A68B4
:1039C0007B689B8810461946FDF70AFD0346FB7588
:1039D000FB7D002B40F0AB807B689B7903F02003DC
:1039E000002B00F0A4807B689B7903F04003002B40
:1039F00019D07B681B6859787B6803F124027B68C7
:103A00009B69084611461A460123FDF733F9034620
:103A1000002B01D001238BE07B689B7923F04003CE
:103A2000DAB27B689A717B681A687B68DB6910463A
:103A30001946FDF777FD0346FB75FB7D002B76D11C
:103A40007B681B6A3B613B690B333A690B32127826
:103A500042F02002D2B21A703B691C337A68D268F5
:103A6000D2B21A703B691D337A68D26892B2120AD8
:103A700092B2D2B21A703B691E337A68D268120CC5
:103A8000D2B21A703B691F337A68D268120ED2B272
:103A90001A703B691A337A681269D2B21A703B699C
:103AA0001B337A68126992B2120A92B2D2B21A70B9
:103AB0003B6914337A681269120CD2B21A703B69EE
:103AC00015337A681269120C92B2120A92B2D2B20B
:103AD0001A70FDF77BFAF8603B691633FA68D2B2C8
:103AE0001A703B691733FA6892B2120A92B2D2B2D4
:103AF0001A703B691833FA68120CD2B21A703B691B
:103B00001933FA68120ED2B21A707B689B7923F0CF
:103B10002003DAB27B689A717B681B6801221A71F4
:103B20007B681B681846FDF75BFD0346FB75FB7D54
:103B300018461837BD4680BD80B584B000AF7860A8
:103B40007868FFF737FF0346FB73FB7B002B02D13E
:103B50007B6800221A60FB7B18461037BD4680BD8B
:103B600080B582B000AF78607A68174B9A420AD16C
:103B70004FF480500121FCF761FD4FF4805000218B
:103B8000FCF75CFD1CE07A68104B9A420AD14FF4B6
:103B900080400121FCF734FD4FF480400021FCF708
:103BA0002FFD0DE07A680A4B9A4209D14FF400408C
:103BB0000121FCF725FD4FF400400021FCF720FD1A
:103BC0000837BD4680BD00BF0030014000380040CE
:103BD000003C004080B485B000AF786039600023BD
:103BE000FB817B681B88FB81FB8903F44153FB81CC
:103BF0003B681A883B685B8813439AB23B689B8892
:103C000013439AB23B68DB8813439AB23B681B8923
:103C100013439AB23B685B8913439AB23B689B8912
:103C200013439AB23B68DB8913439AB2FB8913436F
:103C3000FB817B68FA891A807B689B8B9BB223F49B
:103C400000639AB27B689A833B681A8A7B681A82FF
:103C50001437BD465DF8047B704700BF80B483B065
:103C600000AF78600B46FB70FB78002B08D07B68B8
:103C70001B889BB243F040039AB27B681A8007E02E
:103C80007B681B889BB223F040039AB27B681A8042
:103C90000C37BD465DF8047B704700BF80B483B02D
:103CA00000AF78600B467B807B687A889A810C37FE
:103CB000BD465DF8047B704780B485B000AF786086
:103CC0000B467B800023FB737B681B899AB27B8841
:103CD00013409BB2002B02D00123FB7301E00023B1
:103CE000FB73FB7B18461437BD465DF8047B7047B9
:103CF0002F25730066696C652E62696E00000000F6
:103D000066696C65342E62696E000000AC200000AC
:103D10001A2000001E202620202021200000302014
:103D2000600139205A0164017D01790100001820E9
:103D300019201C201D2022201320142000002221E5
:103D400061013A205B0165017E017A01A000C70292
:103D5000D8024101A4000401A600A700A800A90000
:103D60005E01AB00AC00AD00AE007B01B000B10065
:103D7000DB024201B400B500B600B700B80005018F
:103D80005F01BB003D01DD023E017C015401C10029
:103D9000C2000201C40039010601C7000C01C900BC
:103DA0001801CB001A01CD00CE000E011001430115
:103DB0004701D300D4005001D600D70058016E014E
:103DC000DA007001DC00DD006201DF005501E10076
:103DD000E2000301E4003A010701E7000D01E900F8
:103DE0001901EB001B01ED00EE000F011101440170
:103DF0004801F300F4005101F600F70059016F018A
:103E0000FA007101FC00FD006301D902610062004B
:103E100063006400650066006700680069006A006E
:103E20006B006C006D006E006F007000710072001E
:103E300073007400750076007700780079007A00CE
:103E4000A100A200A300A500AC00AF00E000E100CB
:103E5000E200E300E400E500E600E700E800E90036
:103E6000EA00EB00EC00ED00EE00EF00F000F100E6
:103E7000F200F300F400F500F600F800F900FA0093
:103E8000FB00FC00FD00FE00FF0001010301050135
:103E9000070109010B010D010F01110113011501AA
:103EA000170119011B011D011F012101230125011A
:103EB000270129012B012D012F013101330135018A
:103EC00037013A013C013E014001420144014601F3
:103ED00048014B014D014F0151015301550157015B
:103EE00059015B015D015F016101630165016701CA
:103EF00069016B016D016F0171017301750177013A
:103F00007A017C017E019201B103B203B303B403D1
:103F1000B503B603B703B803B903BA03BB03BC03C5
:103F2000BD03BE03BF03C003C103C303C403C50372
:103F3000C603C703C803C903CA03300431043204EB
:103F400033043404350436043704380439043A049D
:103F50003B043C043D043E043F044004410442044D
:103F600043044404450446044704480449044A04FD
:103F70004B044C044D044E044F04510452045304AA
:103F80005404550456045704580459045A045B0455
:103F90005C045E045F04702171217221732174211D
:103FA000752176217721782179217A217B217C2145
:103FB0007D217E217F2141FF42FF43FF44FF45FFDA
:103FC00046FF47FF48FF49FF4AFF4BFF4CFF4DFFAD
:103FD0004EFF4FFF50FF51FF52FF53FF54FF55FF5D
:103FE00056FF57FF58FF59FF5AFF0000410042009B
:103FF00043004400450046004700480049004A008D
:104000004B004C004D004E004F005000510052003C
:1040100053005400550056005700580059005A00EC
:104020002100E0FFE1FFE5FFE2FFE3FFC000C10088
:10403000C200C300C400C500C600C700C800C90054
:10404000CA00CB00CC00CD00CE00CF00D000D10004
:10405000D200D300D400D500D600D800D900DA00B1
:10406000DB00DC00DD00DE0078010001020104015C
:10407000060108010A010C010E01100112011401D0
:10408000160118011A011C011E0120012201240140
:10409000260128012A012C012E01300132013401B0
:1040A000360139013B013D013F0141014301450119
:1040B00047014A014C014E01500152015401560181
:1040C00058015A015C015E016001620164016601F0
:1040D00068016A016C016E01700172017401760160
:1040E00079017B017D019101910392039303940374
:1040F000950396039703980399039A039B039C03E4
:104100009D039E039F03A003A103A303A403A50390
:10411000A603A703A803A903AA0310041104120409
:1041200013041404150416041704180419041A04BB
:104130001B041C041D041E041F042004210422046B
:1041400023042404250426042704280429042A041B
:104150002B042C042D042E042F0401040204030458
:104160000404050406040704080409040A040B04F3
:104170000C040E040F04602161216221632164217B
:10418000652166216721682169216A216B216C21E3
:104190006D216E216F2121FF22FF23FF24FF25FFC8
:1041A00026FF27FF28FF29FF2AFF2BFF2CFF2DFFCB
:1041B0002EFF2FFF30FF31FF32FF33FF34FF35FF7B
:1041C00036FF37FF38FF39FF3AFF000001030507CC
:1041D000090E10121416181C1E000000222A3A3C68
:1041E0003E3F7C7F000000002B2C3B3D5B5D0000D0
:1041F000808182838485868788898A8B8C8D8E8F47
:10420000909192939495969798998A9B8C8D8E8F86
:10421000A0A1A2A3A4A5A6A7A8A9AAABACADAEAF26
:10422000B0B1B2A3B4B5B6B7B8A5AABBBCBDBCAF5C
:10423000C0C1C2C3C4C5C6C7C8C9CACBCCCDCECF06
:10424000D0D1D2D3D4D5D6D7D8D9DADBDCDDDEDFF6
:10425000C0C1C2C3C4C5C6C7C8C9CACBCCCDCECFE6
:10426000D0D1D2D3D4D5D6F7D8D9DADBDCDDDEFF96
:044270000100000049
:0400000508000000EF
:00000001FF
