:020000040800F2
:10000000B0230020ED01000849020008431C00084D
:1000100049020008490200084902000800000000E7
:10002000000000000000000000000000490200087D
:1000300049020008000000004902000849020008C7
:100040004902000849020008490200084902000864
:100050004902000849020008490200084902000854
:100060004902000849020008490200084902000844
:100070004902000849020008490200084902000834
:100080004902000849020008490200084902000824
:100090004902000849020008490200084902000814
:1000A0004902000849020008490200084902000804
:1000B00049020008490200084902000849020008F4
:1000C00049020008490200084902000849020008E4
:1000D00049020008490200084902000849020008D4
:1000E00049020008490200084902000849020008C4
:1000F00049020008490200084902000849020008B4
:1001000049020008490200084902000849020008A3
:100110004902000849020008490200084902000893
:100120004902000849020008490200084902000883
:100130004902000849020008490200084902000873
:100140004902000849020008490200084902000863
:100150004902000849020008490200084902000853
:100160004902000849020008490200084902000843
:100170004902000849020008490200084902000833
:10018000490200084902000880B582B000AF7860DB
:10019000144B1B785A1CD1B2124A11707A68D1B232
:1001A000114AD1540F4B1B780F4A0021D1540D4BEB
:1001B0001B7801330F2B05D87B680A2B02D07B6894
:1001C000002B0CD1074B00221A70074B0420194654
:1001D000002201F02BFD0346002B00D000BF0837A2
:1001E000BD4680BD540800204408002080B582B080
:1001F00000AF104B7B60104B3B6007E03B681A1D63
:100200003A607A68111D796012681A603A680B4B7F
:100210009A42F3D30A480B494FF000028842B8BF14
:1002200040F8042BFFF6FAAF00F0C0FA0837BD46DD
:1002300080BD00BF84610008000000204408002049
:1002400044080020AC1B002080B400AFFEE700BFD4
:1002500090B5ADF2D44D00AF3B1D18607A4BC7F896
:10026000C8347A4BC7F8C4340023C7F8C03400231D
:10027000C7F8BC3407F13003754A9A6107F13003BF
:100280004FF48072DA6107F10C023B1D10461968C9
:1002900004F0F4FB034687F8CF3497F8CF34002BF3
:1002A00040F0B7813B1D186805F038FB0346C7F8DE
:1002B000B83407F10C0207F130031046194604F078
:1002C00047FC034687F8CF3497F8CF34002B40F033
:1002D0009B8107F130035B7A002B00F0958107F1D9
:1002E00030035B7A2E2B00D18DE107F130039B693F
:1002F0001B78002B03D007F130039B6902E007F164
:1003000030030933C7F8B4345248D7F8B41400F0B6
:1003100091FED7F8B404D7F8C81405F093F9034652
:10032000002B00D16FE1D7F8B404D7F8C41405F05E
:1003300089F90346002B00D165E107F130031B7AF0
:1003400003F01003002B00F08B8043484FF48041F2
:1003500001F00AFCD7F8C80405F0E0FA04463B1D9A
:10036000186805F0DBFA03461C44D7F8B40405F01E
:10037000D5FA034623440233184604F07BFE0346B5
:10038000C7F8B034D7F8B004D7F8C81405F068FA45
:100390003B1DD7F8B004196805F02EF9D7F8B00462
:1003A00005F0BCFA0346D7F8B02413442B4A128850
:1003B0001A80D7F8B004D7F8B41405F01DF9D7F8AF
:1003C000B00404F011FC034687F8AF34D7F8B0044A
:1003D00004F058FE3B1D186805F0A0FA0446D7F853
:1003E000B40405F09BFA034623440133184604F095
:1003F00041FE0346C7F8A8343B1DD7F8A804196886
:1004000005F02EFAD7F8A80405F088FA0346D7F8C5
:10041000A8241344114A12881A80D7F8A804D7F8E0
:10042000B41405F0E9F8D7F8A804FFF711FF034664
:1004300087F8CF34D7F8A80404F024FE97F8CF3417
:10044000002B00D0E0E0DEE0B45B0008BC5B0008FD
:100450005C080020C45B0008000C0240CC5B000874
:100460006F484FF4005101F07FFB3B1D6D48196848
:10047000D7F8B42400F0DEFD3B1D186805F04EFAF5
:100480000446D7F8B40405F049FA0346234402337E
:10049000184604F0EFFD0346C7F8A4343B1DD7F817
:1004A000A404196805F0DCF9D7F8A40405F036FABD
:1004B0000346D7F8A42413445B4A12881A80D7F85D
:1004C000A404D7F8B41405F097F85848D7F8A41442
:1004D00000F0B0FDD7F8C80405F020FA04463B1D33
:1004E000186805F01BFA03461C44D7F8B40405F05D
:1004F00015FA034623440233184604F0BBFD0346B5
:10050000C7F8A034D7F8A004D7F8C81405F0A8F9A4
:100510003B1DD7F8A004196805F06EF8D7F8A004C1
:1005200005F0FCF90346D7F8A02413443E4A12888C
:100530001A80D7F8A004D7F8B41405F05DF83C4849
:10054000D7F8A01400F076FD07F51F731846D7F80A
:10055000A414012203F062FD034687F8AF3407F1CB
:1005600058031846D7F8A0140A2203F057FD034693
:1005700087F8AF34D7F8A00404F084FDD7F8A404BA
:1005800004F080FD07F51F7207F15003104629495A
:100590004FF4805203F0B0FE034687F8AF3497F86B
:1005A000AF34002B1FD107F150031B68002B1AD06A
:1005B00007F150031A6807F1580107F15403084680
:1005C0001C4903F0F9FF034687F8AF3497F8AF34BE
:1005D000002B08D107F154031A6807F150031B6878
:1005E0009A4200D3CEE707F51F73184604F032FA9B
:1005F00007F15803184604F02DFA0F4B1B685A1CDC
:100600000D4B1A6055E654E607F10C03184601F04D
:10061000A9FC97F8CF34184607F2D447BD4690BDE1
:10062000000C0240D05B0008CC5B0008D85B0008DF
:10063000E85B0008A40B0020A00B002080B483B06E
:1006400000AF0023FB7100BF0E4B1B899BB203F070
:100650000203002BF8D00B4BFF229A8100BF094BFD
:100660001B899BB203F00103002BF8D0054B9B893B
:100670009BB2FB71FB7918460C37BD465DF8047BD5
:10068000704700BF0038004080B582B000AF0B4B10
:1006900032221A70FFF7D2FFFFF7D0FF0346FB713B
:1006A000FB79FF2B04D0054B1B78DBB2002BF3D179
:1006B000FB7918460837BD4680BD00BF59080020A9
:1006C00080B485B000AF0346FB7100BF0D4B1B89A2
:1006D0009BB203F00203002BF8D00A4BFA7992B2D6
:1006E0009A8100BF074B1B899BB203F00103002BCB
:1006F000F8D0044B9B899BB2FB731437BD465DF861
:10070000047B70470038004080B584B000AF0346DA
:100710003960FB71FFF7B8FF0346FF2B01D0FF23C1
:1007200040E0FB791846FFF7CBFF3B681B0EDBB2BE
:100730001846FFF7C5FF3B681B0CDBB21846FFF7F6
:10074000BFFF3B681B0ADBB21846FFF7B9FF3B68E7
:10075000DBB21846FFF7B4FF0023FB73FB79402B95
:1007600001D19523FB73FB79482B01D18723FB73C0
:10077000FB7B1846FFF7A4FFFB794C2B01D1FFF759
:100780005DFF0A23FB73FFF759FF0346BB73BB7B77
:100790005BB2002B05DAFB7B013BFB73FB7B002B81
:1007A000F1D1BB7B18461037BD4680BD80B5ADF595
:1007B000187D00AF01F052FA0220012100F0CCF8C0
:1007C0001020012100F0C8F84FF48040012100F012
:1007D000E1F80820012100F0BFF84FF47043C7F89A
:1007E0004C32012387F85032002387F8523203231A
:1007F00087F85132002387F8533207F513734F48B7
:10080000194601F023F9022387F85832002387F8AC
:100810005A32022387F85B32022387F859324FF4A9
:100820006043C7F8543207F515734548194601F07F
:100830000DF90823C7F85432012387F858320023F2
:1008400087F85A32022387F8593207F515733D4865
:10085000194601F0FBF83B48082101F085F93848BA
:100860000D21052201F09CF935480E21052201F0E9
:1008700097F933480F21052201F092F9324804F02C
:1008800031FB0023A7F838320023A7F83C320023BD
:10089000A7F83E320023A7F840324FF40073A7F8C0
:1008A00042320823A7F844320023A7F84632072330
:1008B000A7F848324FF48273A7F83A3207F50E735F
:1008C0002148194604F048FB1F48012104F088FB29
:1008D0001C48082101F056F90023C7F85C3210E0EB
:1008E0001948FF2104F09CFB00BF1748022104F0C7
:1008F000A5FB0346002BF8D0D7F85C320133C7F8CC
:100900005C32D7F85C32092BEADD40200021FFF78A
:10091000FBFE3B1D0020194603F056FB0B4B00224B
:100920001A600B4B00221A600A48FFF791FC03483B
:100930004FF4805101F018F9FEE700BF000C0240AF
:10094000000402400010024000380040A41B0020B8
:10095000A00B0020F85B000880B483B000AF786083
:100960000B46FB70FB78002B06D0094B084A116B35
:100970007A680A431A6306E0054B054A116B7A68E8
:10098000D2430A401A630C37BD465DF8047B7047BA
:100990000038024080B483B000AF78600B46FB7033
:1009A000FB78002B06D0094B084A116C7A680A4381
:1009B0001A6406E0054B054A116C7A68D2430A4076
:1009C0001A640C37BD465DF8047B7047003802405E
:1009D00080B483B000AF78600B46FB70FB78002BCF
:1009E00006D0094B084A116A7A680A431A6206E07F
:1009F000054B054A116A7A68D2430A401A620C37DD
:100A0000BD465DF8047B70470038024080B483B077
:100A100000AF78600B46FB70FB78002B06D0094BCB
:100A2000084A516A7A680A435A6206E0054B054A49
:100A3000516A7A68D2430A405A620C37BD465DF863
:100A4000047B70470038024080B582B000AF034697
:100A5000FB71FB791846FFF797FB0837BD4680BD51
:100A600080B483B000AF78600B46FB707B68FA7887
:100A70001A70012318460C37BD465DF8047B704799
:100A800080B485B000AF786039600023FB600AE075
:100A90007B685A1C7A603A68511C396012781A7067
:100AA000FB680133FB603B681B78002BF0D1FB68CF
:100AB00018461437BD465DF8047B704780B586B094
:100AC00000AFF8607A603B600B46FB7200237B61ED
:100AD0007B68013B7B603B68092B10D93A681E4B51
:100AE000A3FB0213DB08FA7AF86811467A68FFF76D
:100AF000E5FF78617B69FA681344FB6011E00DE063
:100B0000FB7AF8681946FFF7ABFFFB680133FB601F
:100B10007B6901337B617B68013B7B607B68002BD9
:100B2000EEDC39680C4BA3FB0123DA0813469B006B
:100B300013445B00CA1AD3B23033DBB2F8681946EB
:100B4000FFF78EFF03467A6913447B617B69184681
:100B50001837BD4680BD00BFCDCCCCCC80B586B0AB
:100B600000AFF8607A603B600B46FB7200237B614C
:100B70003B68002B03DA3B685B423B6101E03B686A
:100B80003B617B68013B7B603B69092B21D93B685A
:100B9000002B0DDA3A692F4BA3FB0213DB085B42F3
:100BA000FA7AF86811467A68FFF7D8FF78610BE0A7
:100BB0003A69284BA3FB0213DB08FA7AF86811465E
:100BC0007A68FFF7CBFF78617B69FA681344FB60B2
:100BD00026E03B68002B03DA7B68013B7B600EE07C
:100BE0000DE0FB7AF8681946FFF73AFFFB6801331E
:100BF000FB607B6901337B617B68013B7B607B68C9
:100C0000002BEEDC3B68002B0ADAF8682D21FFF799
:100C100027FF03467A6913447B61FB680133FB605D
:100C200039690C4BA3FB0123DA0813469B001344DC
:100C30005B00CA1AD3B23033DBB2F8681946FFF74B
:100C40000FFF03467A6913447B617B6918461837A6
:100C5000BD4680BDCDCCCCCC80B588B002AFF860AD
:100C60007A600A46FA72BB7200237B617B68013BA3
:100C70007B603B6A1B09002B12D03B6A1909FA7A88
:100C8000BB7A0091F86811467A68FFF7E5FF0346E2
:100C90007A6913447B617B69FA681344FB6011E055
:100CA0000DE0FB7AF8681946FFF7DAFEFB680133BE
:100CB000FB607B6901337B617B68013B7B607B6808
:100CC000002BEEDC3B6A03F00F03092B0BD83B6AC9
:100CD000DBB203F00F03DBB23033DBB2F868194646
:100CE000FFF7BEFE19E0BB7A002B0BD03B6ADBB2EC
:100CF00003F00F03DBB23733DBB2F8681946FFF7B6
:100D0000AFFE0AE03B6ADBB203F00F03DBB25733FE
:100D1000DBB2F8681946FFF7A3FE7B6901337B61FC
:100D20007B6918461837BD4680BD00BF80B58AB0C4
:100D300002AFF860B9607A603B600023BB610023BA
:100D40007B61FB68002B03D0FB6800221A70F8E07F
:100D5000F7E07B681B78252B0BD0FB685A1CFA60E8
:100D60007A68511C796012781A707B6901337B6153
:100D7000E7E07B6801331B78252B0BD1FB685A1CFD
:100D8000FA6025221A707B6802337B607B6901332D
:100D90007B61D6E02023FB770023BB777B680133A0
:100DA0007B607B681B78302B05D13023FB777B6819
:100DB00001337B600FE00EE0BB7F1A4692001344C4
:100DC0005B00DAB27B681B781344DBB2303BBB7745
:100DD0007B6801337B607B681B782F2B03D97B6892
:100DE0001B78392BE8D9BA7F7B6913441A46BB6854
:100DF0009A4205D9BB68DAB27B69DBB2D31ABB77FA
:100E00007B681B78583B202B00F28D8001A252F8A2
:100E100023F000BFE10E0008270F0008270F00088D
:100E2000270F0008270F0008270F0008270F0008CA
:100E3000270F0008270F0008270F0008270F0008BA
:100E4000110F0008990E0008270F0008270F00084F
:100E5000270F0008270F0008990E0008270F000829
:100E6000270F0008270F0008270F0008270F00088A
:100E7000270F0008270F0008270F0008270F00087A
:100E8000FD0E0008270F0008AF0E0008270F00080E
:100E9000270F0008C50E0008BA7F3B68191D39608E
:100EA0001B68F97FF868FFF759FEB8613EE0BA7F2A
:100EB0003B68191D39601B68F97FF868FFF7FEFD74
:100EC000B86133E0BA7F3B68191D39601968FB7F50
:100ED0000091F86819460023FFF7BEFEB86125E0CF
:100EE000BA7F3B68191D39601968FB7F0091F8686B
:100EF00019460123FFF7B0FEB86117E03B681A1DE1
:100F00003A601B68F8681946FFF7BAFDB8610DE052
:100F10003B681A1D3A601B68DBB2F8681946FFF798
:100F20009FFDB86102E04FF0FF3325E07B6801339D
:100F30007B60BB69FA681344FB607A69BB69134440
:100F40007B617B681B78002B04D07A69BB689A426E
:100F5000FFF4FFAE7A69BB689A4203D2FB680022B5
:100F60001A7008E0FB68013BFB60FB6800221A7006
:100F70007B69013B7B617B6918462037BD4680BD9C
:100F800080B584B000AFF860B9607A60F868642119
:100F9000BA687B68FFF7CAFE034618461037BD469D
:100FA00080BD00BFB0B5A6B000AFF860B9607A6090
:100FB000144B07F110041D460FCD0FC40FCD0FC405
:100FC0002B68236007F134031846B9687A68FFF785
:100FD000D7FF0346632B09DD0B4B1B68DB6807F16A
:100FE00010021046194600F059F8FEE707F13403E5
:100FF0001846F96800F052F8034618469837BD467F
:10100000B0BD00BFFC5B00082804002080B582B0A2
:1010100000AF78603960064B1B689B68184679689A
:101020003A68FFF7BFFF034618460837BD4680BD44
:10103000280400200FB480B582B000AF07F114037C
:101040003B6038693968FFF7E1FF78607B681846D4
:101050000837BD46BDE8804004B0704780B582B017
:1010600000AF786039600C4B1B689A683B689A4205
:1010700005D0094B1B68DA683B689A4206D17B6849
:10108000DBB21846FFF7E0FC7B6801E04FF0FF336E
:1010900018460837BD4680BD2804002080B584B0BE
:1010A00000AF786039600023FB6012E07B681B783A
:1010B00018463968FFF7D2FF0346B3F1FF3F02D16C
:1010C0004FF0FF330AE0FB680133FB607B680133BC
:1010D0007B607B681B78002BE8D1FB6818461037D3
:1010E000BD4680BD80B400AF054B054A528B92B21D
:1010F00042F4006292B25A83BD465DF8047B7047A9
:101100000004024080B400AF054B054A128B92B236
:1011100042F4006292B21A83BD465DF8047B7047C8
:101120000004024080B483B000AF0346FB7100BFEF
:10113000074B1B899BB203F00203002BF8D0044B32
:10114000FA7992B29A810C37BD465DF8047B7047FC
:101150000038004080B483B000AF0023FB7100BFB3
:101160000E4B1B899BB203F00203002BF8D00B4BF4
:10117000FF229A8100BF094B1B899BB203F0010338
:10118000002BF8D0054B9B899BB2FB71FB7918466D
:101190000C37BD465DF8047B704700BF0038004047
:1011A00080B582B000AF7860FFF7D4FF03461A46DF
:1011B0007B681A700837BD4680BD00BF80B582B01D
:1011C00000AF0B4B32221A70FFF7C4FFFFF7C2FFCC
:1011D0000346FB71FB79FF2B04D0054B1B78DBB278
:1011E000002BF3D1FB7918460837BD4680BD00BF00
:1011F0005D09002080B582B000AFFFF783FF0023B8
:10120000FB7105E0FF20FFF78DFFFB790133FB71D8
:10121000FB79092BF6D9034B01221A700837BD461A
:1012200080BD00BF5F09002080B400AF034B0022E7
:101230001A70BD465DF8047B704700BF5F0900204F
:1012400080B400AF034B1B781846BD465DF8047BA5
:10125000704700BF5F09002080B584B000AF7860A0
:101260003960174B0A221A70FFF774FF0346FB73AD
:10127000FB7BFF2B04D1124B1B78DBB2002BF3D18D
:10128000FB7BFE2B01D0002316E07B685A1C7A60A2
:101290001846FFF785FF7B685A1C7A601846FFF7EF
:1012A0007FFF3B68023B3B603B68002BEDD1FFF7C3
:1012B00051FFFFF74FFF012318461037BD4680BD91
:1012C0005C09002080B584B000AF78600B46FB70ED
:1012D0000023BB60FFF772FF0346FF2B01D0002302
:1012E0003FE0FB781846FFF71DFFFB78FD2B30D061
:1012F0000023BB737B685A1C7A601B781846FFF783
:1013000011FF7B685A1C7A601B781846FFF70AFFAA
:10131000BB7B013BBB73BB7B002BEBD1FFF71AFF01
:10132000FFF718FF0CE0FFF715FF0346FB73FB7B8D
:1013300003F01F03052B00D105E0BB680133BB6040
:10134000BB68402BEFD900BFFFF704FF0346002B1B
:10135000FAD0FB7B03F01F03052B01D1012300E032
:10136000002318461037BD4680BD00BF80B584B04D
:1013700000AF03463960FB71FFF720FF0346FF2BE8
:1013800001D0FF2340E0FB791846FFF7CBFE3B6816
:101390001B0EDBB21846FFF7C5FE3B681B0CDBB229
:1013A0001846FFF7BFFE3B681B0ADBB21846FFF783
:1013B000B9FE3B68DBB21846FFF7B4FE0023FB73AF
:1013C000FB79402B01D19523FB73FB79482B01D18D
:1013D0008723FB73FB7B1846FFF7A4FEFB794C2B9E
:1013E00001D1FFF7B7FE0A23FB73FFF7B3FE0346F5
:1013F000BB73BB7B5BB2002B05DAFB7B013BFB7352
:10140000FB7B002BF1D1BB7B18461037BD4680BD5E
:1014100090B585B000AF0346FB71FB79002B01D07E
:101420000123D3E06B4B1B78DBB203F00203002BEC
:1014300003D0684B1B78DBB2C8E0FFF7DBFEFFF799
:1014400051FE0023BB7340200021FFF78FFF0346AE
:10145000012B40F0A380604B64221A7048204FF4A7
:10146000D571FFF783FF0346012B57D10023FB7390
:101470000CE0FC7BFFF76EFE03461A4607F11003F3
:10148000234403F8082CFB7B0133FB73FB7B032B0A
:10149000EFD9BB7A012B40F08180FB7AAA2B7DD15A
:1014A00077200021FFF762FF0346012B08D869204F
:1014B0004FF08041FFF75AFF0346002B00D104E0B4
:1014C000454B1B78DBB2002BEAD1434B1B78DBB2D8
:1014D000002B63D07A200021FFF748FF0346002B42
:1014E0005CD10023FB730CE0FC7BFFF733FE03466B
:1014F0001A4607F11003234403F8082CFB7B013341
:10150000FB73FB7B032BEFD93B7A03F04003002BEB
:1015100001D0062300E00223BB733FE077200021C7
:10152000FFF724FF0346012B08D869200021FFF7AD
:101530001DFF0346012B01D8022300E00123BB73EA
:10154000BB7B022B0ED177200021FFF70FFF034654
:10155000012B0FD869200021FFF708FF0346002B5D
:1015600008D10CE041200021FFF700FF0346002BCB
:1015700000D104E0184B1B78DBB2002BE0D1164BF6
:101580001B78DBB2002B07D050204FF40071FFF71F
:10159000EDFE0346002B01D00023BB730F4BBA7B3B
:1015A0001A70FFF7AFFDFFF7D5FDBB7B002B08D00E
:1015B000084B1B78DBB223F00103DAB2054B1A703B
:1015C00001E0FFF731FE034B1B78DBB218461437FE
:1015D000BD4690BD300400205C0900205E0900205B
:1015E00080B483B000AF0346FB71FB79002B01D0C0
:1015F000012302E0044B1B78DBB218460C37BD46D2
:101600005DF8047B704700BF3004002080B584B0D3
:1016100000AFB9607A600246FA73BB73FB7B002BA4
:1016200002D1BB7B002B01D1042350E02A4B1B7855
:10163000DBB203F00103002B01D0032347E0274B6B
:101640001B7803F00403002B02D17B685B027B60F4
:10165000FFF748FDBB7B012B11D151207968FFF7C3
:1016600085FE0346002B28D1B8684FF40071FFF7C0
:10167000F3FD0346002B20D00023BB731DE0522056
:101680007968FFF773FE0346002B16D1B8684FF454
:101690000071FFF7E1FD0346002B00D109E0BB68B4
:1016A00003F50073BB60BB7B013BBB73BB7B002BB3
:1016B000ECD14C200021FFF759FEFFF723FDFFF787
:1016C00049FDBB7B002B0CBF00230123DBB2184676
:1016D0001037BD4680BD00BF300400205E090020E9
:1016E00080B584B000AFB9607A600246FA73BB730C
:1016F000FB7B002B02D1BB7B002B01D104236BE0D1
:10170000374B1B78DBB203F00103002B01D003231E
:1017100062E0334B1B78DBB203F00403002B01D0F3
:10172000022359E02F4B1B7803F00403002B02D156
:101730007B685B027B60FFF7D5FCBB7B012B10D184
:1017400058207968FFF712FE0346002B3AD1B8689B
:10175000FE21FFF7B7FD0346002B33D00023BB73F8
:1017600030E0204B1B7803F00203002B08D07720D9
:101770000021FFF7FBFDBB7B57201946FFF7F6FD65
:1017800059207968FFF7F2FD0346002B1AD1B8689B
:10179000FC21FFF797FD0346002B00D109E0BB6851
:1017A00003F50073BB60BB7B013BBB73BB7B002BB2
:1017B000EDD10020FD21FFF785FD0346002B01D16F
:1017C0000123BB73FFF79EFCFFF7C4FCBB7B002B20
:1017D0000CBF00230123DBB218461037BD4680BD85
:1017E000300400205E09002090B58BB000AF0B469E
:1017F0003A600246FA71BB713B683B62FB79002B91
:1018000001D0042311E1012387F82730BB79052B90
:1018100028D13B6A1B78012B0ED0022B12D0002B53
:101820001BD1FFF70DFD0346002B01D0FFF7FCFC99
:10183000002387F8273014E0FFF7DCFC002387F84B
:1018400027300EE03B6A5C1CFFF7FAFC0346DBB274
:101850002370002387F8273003E0042387F827301C
:10186000E1E0E0E0734B1B78DBB203F00103002BF7
:1018700001D00323D9E0FFF735FCBB790D2B00F233
:10188000CB8001A252F823F07D190008C11800088E
:101890006D190008191A0008191A0008191A000809
:1018A000191A0008191A0008191A0008191A00084C
:1018B000191A000891190008B7190008DD19000865
:1018C00049200021FFF752FD0346002B4DD107F1BF
:1018D0000C0318461021FFF7BFFC0346002B44D031
:1018E0003B7B9B09DBB2012B0DD17B7D1A463B7DF7
:1018F0001B029BB213449BB20133FB83FB8B9A0206
:101900003B681A602DE07B7C03F00F03DAB2BB7DED
:10191000DB09DBB21344DAB27B7D03F00303DBB2F5
:101920005B00DBB21344DBB2023387F826303B7D29
:101930009B09DBB21A46FB7C9B009BB213449AB214
:10194000BB7C03F003039BB29B029BB213449BB28C
:101950000133FB83FA8B97F82630093B9A403B68AA
:101960001A60002387F8273059E058E03B684FF4AD
:1019700000721A80002387F8273050E0FFF71EFC22
:101980000346FF2B03D1002387F8273047E046E0CA
:1019900049200021FFF7EAFC0346002B0AD1386AF0
:1019A0001021FFF759FC0346002B03D0002387F8D2
:1019B000273034E033E04A200021FFF7D7FC03460C
:1019C000002B0AD1386A1021FFF746FC0346002B92
:1019D00003D0002387F8273021E020E07A2000217F
:1019E000FFF7C4FC0346002B16D1002387F82630EE
:1019F0000BE03C6A631C3B62FFF7ACFB03462370C1
:101A000097F82630013387F8263097F82630032BD5
:101A1000EFD9002387F82730042387F82730FFF712
:101A200071FBFFF797FB97F8273018462C37BD4618
:101A300090BD00BF3004002080B400AF024B1846B8
:101A4000BD465DF8047B70470060213E80B487B0DE
:101A500000AF7860396000237B6100233B61002385
:101A6000FB6000237B6176E07B69012202FA03F3CD
:101A70003B613B681A683B691340FB60FA683B694D
:101A80009A4265D17B681A687B695B00032101FA81
:101A900003F3DB431A407B681A607B681A683B6873
:101AA0001B7919467B695B0001FA03F31A437B68D3
:101AB0001A603B681B79012B03D03B681B79022B12
:101AC0002ED17B689A687B695B00032101FA03F3DE
:101AD000DB431A407B689A607B689A683B685B7955
:101AE00019467B695B0001FA03F31A437B689A602D
:101AF0007B685A687B699BB2012101FA03F3DB43DF
:101B00001A407B685A607B685A683B689B79194623
:101B10007B699BB201FA03F39BB21A437B685A605C
:101B20007B68DA687B699BB25B00032101FA03F3EF
:101B3000DB431A407B68DA607B68DA683B68DB79F4
:101B400019467B695B0001FA03F31A437B68DA608C
:101B50007B6901337B617B690F2B85D91C37BD46BF
:101B60005DF8047B704700BF80B483B000AF78603D
:101B70000B467B807B687A881A830C37BD465DF8FC
:101B8000047B704780B483B000AF78600B467B80E5
:101B90007B687A885A830C37BD465DF8047B7047B2
:101BA00080B485B000AF786013460A467A807B70B7
:101BB0000023FB600023BB607A787B8803F0070377
:101BC0009B0002FA03F3FB607B88DB089BB21A469A
:101BD0007B88DB089BB219467B68083153F82110DB
:101BE0007B8803F007039B000F2000FA03F3DB431D
:101BF00019407B68083243F822107B88DB089BB2CF
:101C00001A467B68083253F82220FB681343BB60F6
:101C10007B88DB089BB21A467B680832B96843F8B8
:101C200022101437BD465DF8047B7047ABBE00F050
:101C300002B800207047002A00F0018010600120E7
:101C4000704706980188044A914240F003800430AE
:101C500006907047FEE70000ABBE000080B500AF05
:101C6000114B114A126842F001021A600E4B002219
:101C70009A600D4A0C4B1B6823F0847323F4803365
:101C80001360094B094A5A60074B074A126822F44D
:101C900080221A60044B0022DA6000F00BF8044B3B
:101CA0004FF000629A6080BD00380240103000247E
:101CB00000ED00E080B483B000AF00237B60002320
:101CC0003B60354B344A126842F480321A60324B22
:101CD0001B6803F400333B607B6801337B603B6827
:101CE000002B03D17B68B3F5A06FF0D12A4B1B68A2
:101CF00003F40033002B02D001233B6001E00023FA
:101D00003B603B68012B42D1234B234A126C42F0CB
:101D100080521A64214B214A126842F480421A60B0
:101D20001D4B1D4A92689A601B4B1B4A926842F4F5
:101D300000429A60184B184A926842F4A0529A6086
:101D4000154B174A5A60144B134A126842F08072BE
:101D50001A6000BF104B1B6803F00073002BF9D012
:101D6000104B40F205621A600B4B0B4A926822F04E
:101D700003029A60084B084A926842F002029A6095
:101D800000BF054B9B6803F00C03082BF9D10C37FF
:101D9000BD465DF8047B704700380240007000408B
:101DA00008544007003C024080B485B000AF786022
:101DB0000B4B1B68002B02D1094B0A4A1A60084BD7
:101DC0001B68FB60064B1A687B681A44044B1A6058
:101DD000FB6818461437BD465DF8047B704700BFAA
:101DE00060090020B023002080B485B000AF034616
:101DF0003960FB80FB887F2B02D8FB88FB8125E0C4
:101E00003B68002B0CD0FB88FF2B06D8FB88A3F186
:101E10008002124B33F8123000E00023FB8115E002
:101E20000023FB810AE0FA890C4B33F81230FA8860
:101E30009A4200D105E0FB890133FB81FB897F2BAE
:101E4000F1D9FB8980339BB2DBB2FB81FB89184659
:101E50001437BD465DF8047B704700BF205C000866
:101E600080B485B000AF0346FB800023FB6002E036
:101E7000FB680133FB600F4BFA6833F81230002B1C
:101E800006D00C4BFA6833F81230FA889A42EFD138
:101E9000084BFA6833F81230002B04D0064BFA686E
:101EA00033F8123000E0FB8818461437BD465DF861
:101EB000047B7047205D0008005F000880B582B099
:101EC00000AF78600B467B807B68002B08D07B6876
:101ED0001B78002B04D07B68DB887A889A4201D07B
:101EE00009230CE07B685B781846FFF779FB034613
:101EF00003F00103002B01D0032300E00023184668
:101F00000837BD4680BD00BF80B584B000AF7860A3
:101F10007B68FB60FB68002B0FD0FB681B68002B05
:101F20000BD0FB681B681B78002B06D0FB681B6876
:101F3000DA88FB689B889A4201D009230DE0FB6890
:101F40001B685B781846FFF74BFB034603F0010361
:101F5000002B01D0032300E0002318461037BD46B4
:101F600080BD00BF80B584B000AF78607868FFF7AF
:101F7000CBFF0346FB73FB7B002B02D17B68002267
:101F80001A60FB7B18461037BD4680BD80B487B011
:101F900000AFF860B9607A60FB687B61BB683B6149
:101FA00007E07B695A1C7A613A69511C39611278E1
:101FB0001A707B685A1E7A60002BF2D11C37BD461E
:101FC0005DF8047B704700BF80B487B000AFF86055
:101FD000B9607A60FB687B6105E07B695A1C7A61B5
:101FE000BA68D2B21A707B685A1E7A60002BF4D19C
:101FF0001C37BD465DF8047B704700BF80B489B0D4
:1020000000AFF860B9607A60FB68FB61BB68BB61D8
:1020100000237B6100BF7B685A1E7A60002B0DD0C5
:10202000FB695A1CFA611B781A46BB69591CB961D5
:102030001B78D31A7B617B69002BECD07B69184637
:102040002437BD465DF8047B704700BF80B483B081
:1020500000AF7860396002E07B6801337B607B68A9
:102060001B78002B05D07B681B781A463B689A4288
:10207000F2D17B681B7818460C37BD465DF8047BAF
:10208000704700BF80B584B000AF786039607B686E
:102090001B6BFB60FA683B689A424BD07B681B79EC
:1020A000002B32D07B685A787B683433104619464F
:1020B000FA680123FFF714FB0346002B01D001232C
:1020C00039E07B6800221A717B685A6A7B681B6A58
:1020D0001A44FB689A4218D97B68DB78FB7211E0DE
:1020E0007B681B6AFA681344FB607B685A787B68DC
:1020F000343310461946FA680123FFF7F1FAFB7AE8
:10210000013BFB72FB7A012BEAD83B68002B11D014
:102110007B685A787B683433104619463A68012345
:10212000FFF774FA0346002B01D0012303E07B681C
:102130003A681A63002318461037BD4680BD00BFB9
:1021400080B584B000AF786078680021FFF79AFF0F
:102150000346FB73FB7B002B40F092807B681B786F
:10216000032B40F081807B685B79002B7CD07B68FF
:1021700000221A637B683433184600214FF4007242
:10218000FFF722FF7B68552283F832227B68AA2260
:1021900083F833227B68522283F834207B685222F2
:1021A00083F835207B68612283F836207B684122E2
:1021B00083F837207B68722283F818227B687222AA
:1021C00083F819227B68412283F81A227B686122F6
:1021D00083F81B227B681B69DAB27B6883F81C22B8
:1021E0007B681B699BB21B0A9BB2DAB27B6883F8DF
:1021F0001D227B681B691B0CDAB27B6883F81E22E8
:102200007B681B691B0EDAB27B6883F81F227B6830
:10221000DB68DAB27B6883F820227B68DB689BB2DC
:102220001B0A9BB2DAB27B6883F821227B68DB68E9
:102230001B0CDAB27B6883F822227B68DB681B0EFA
:10224000DAB27B6883F823227B6859787B6803F1D4
:1022500034027B685B69084611461A460123FFF782
:102260003FFA7B6800225A717B685B781846002130
:102270000022FFF7B9FA0346002B01D00123FB73BC
:10228000FB7B18461037BD4680BD00BF80B483B0CD
:1022900000AF786039603B68023B3B607B68DB697C
:1022A0009A1E3B689A4201D8002307E07B689B781E
:1022B0003A6802FB03F27B68DB6A134418460C376A
:1022C000BD465DF8047B704780B586B000AF78608E
:1022D00039603B68012B04D97B68DA693B689A4214
:1022E00001D8012398E07B681B78022B47D0032B91
:1022F00066D0012B40F08E803B687B617B695B0878
:102300007A6913447B617B685A6A7B695B0A134470
:1023100078681946FFF7B6FE0346002B00D079E037
:102320007B69C3F308037A68134493F834303B6144
:102330007B6901337B617B685A6A7B695B0A134462
:1023400078681946FFF79EFE0346002B00D061E037
:102350007B69C3F308037A68134493F834301B0293
:102360003A6913433B613B6803F00103002B02D041
:102370003B691B0902E03B69C3F30B034CE07B683C
:102380005A6A3B681B0A134478681946FFF77AFEBD
:102390000346002B00D03DE03B685B0003F4FF7375
:1023A00030337A6813440433FB60FB6801331B78D5
:1023B0001B029AB2FB681B7813439BB29BB22BE0C3
:1023C0007B685A6A3B68DB09134478681946FFF753
:1023D00059FE0346002B00D01CE03B689B0003F431
:1023E000FE7330337A6813440433FB60FB680333B5
:1023F0001B781A06FB6802331B781B041A43FB6820
:1024000001331B781B021A43FB681B78134323F02C
:10241000704301E04FF0FF3318461837BD4680BDCA
:1024200080B588B000AFF860B9607A60BB68012BF6
:1024300004D9FB68DA69BB689A4202D80223FB77A9
:10244000E7E0FB681B78022B72D0032B00F095802D
:10245000012B40F0D980BB68BB61BB695B08BA69DE
:102460001344BB61FB685A6ABB695B0A1344F86892
:102470001946FFF707FE0346FB77FB7F002B00D0D2
:10248000C4E0BB69C3F308033033FA681344043370
:102490007B61BB6803F00103002B0DD07B691B78C7
:1024A000DBB203F00F03DAB27B68DBB21B01DBB2F5
:1024B0001343DBB2DBB201E07B68DBB27A691370F5
:1024C000BB690133BB61FB6801221A71FB685A6A60
:1024D000BB695B0A1344F8681946FFF7D3FD03464E
:1024E000FB77FB7F002B00D090E0BB69C3F30803B0
:1024F0003033FA68134404337B61BB6803F0010393
:10250000002B03D07B681B09DBB20EE07B691B78D4
:10251000DBB223F00F03DAB27B681B0ADBB203F0F5
:102520000F03DBB21343DBB2DBB27A6913706DE0E9
:10253000FB685A6ABB681B0A1344F8681946FFF720
:10254000A1FD0346FB77FB7F002B00D05EE0BB685C
:102550005B0003F4FF733033FA68134404337B6188
:102560007B68DAB27B691A707B6901337A6892B250
:10257000120A92B2D2B21A7048E0FB685A6ABB687B
:10258000DB091344F8681946FFF77CFD0346FB7727
:10259000FB7F002B00D039E0BB689B0003F4FE7387
:1025A0003033FA68134404337B617B6903331B784F
:1025B0001A067B6902331B781B041A437B690133BB
:1025C0001B781B021A437B691B78134303F070438B
:1025D0007A6813437B607B68DAB27B691A707B6927
:1025E00001337A6892B2120A92B2D2B21A707B693F
:1025F00002337A68120CD2B21A707B6903337A689C
:10260000120ED2B21A7001E00223FB77FB6801229E
:102610001A71FB7F18462037BD4680BD80B584B057
:1026200000AF786039603B68012B04D97B68DA69B8
:102630003B689A4202D80223FB7337E00023FB7306
:102640002FE078683968FFF73FFEB860BB68002B61
:1026500000D12BE0BB68012B02D10223FB7325E0E4
:10266000BB68B3F1FF3F02D10123FB731EE0786822
:1026700039680022FFF7D4FE0346FB73FB7B002B77
:1026800000D013E07B681B69B3F1FF3F07D07B6884
:102690001B695A1C7B681A617B6801225A71BB68EE
:1026A0003B607B68DA693B689A42CAD8FB7B184674
:1026B0001037BD4680BD00BF80B586B000AF7860E2
:1026C00039603B68002B0DD17B68DB683B613B695F
:1026D000002B04D07B68DA693B699A4215D8012344
:1026E0003B6112E078683968FFF7EEFDB860BB68BF
:1026F000012B01D8012366E07B68DA69BB689A4246
:1027000001D9BB685FE03B683B613B697B617B69EA
:1027100001337B617B68DA697B699A4207D80223BF
:102720007B617A693B699A4201D900234BE0786862
:102730007969FFF7C9FDB860BB68002B0CD100BFF9
:10274000786879696FF07042FFF76AFE0346FB73A1
:10275000FB7B002B1AD10FE0BB68B3F1FF3F02D027
:10276000BB68012B01D1BB682DE07A693B699A42B5
:1027700001D1002327E0CAE73B68002B06D0786828
:1027800039687A69FFF74CFE0346FB73FB7B002B2D
:1027900010D17B687A69DA607B681B69B3F1FF3F0F
:1027A00010D07B681B695A1E7B681A617B68012206
:1027B0005A7107E0FB7B012B02D14FF0FF3300E0A1
:1027C00001237B617B6918461837BD4680BD00BF79
:1027D00080B584B000AF78600B467B807B687A88D8
:1027E000DA807B689B68FB60FB68012B05D07B6807
:1027F0001B68DA69FB689A4201D8022365E0FB682E
:10280000002B08D17B681B681B78032B03D17B68E6
:102810001B689B6AFB60FB68002B14D17B68FA681D
:10282000DA607B681B681B897A889A4201D302238D
:102830004BE07B681B689A6A7B881B099BB21A4431
:102840007B681A6135E07B681B689B781B017B8184
:102850001BE07B681B681846F968FFF735FDF860D8
:10286000FB68B3F1FF3F01D101232EE0FB68012B90
:1028700005D97B681B68DA69FB689A4201D8022394
:1028800023E07A887B89D31A7B807A887B899A4275
:10289000DFD27B68FA68DA607B681B681846F968E3
:1028A000FFF7F4FC02467B881B099BB21A447B6845
:1028B0001A617B681A687B8803F00F035B01303371
:1028C00013441A1D7B685A61002318461037BD4611
:1028D00080BD00BF90B585B000AF786039607B687F
:1028E000DB8801333B813B89002B03D07B681B696C
:1028F000002B01D10423BDE03B8903F00F039BB201
:10290000002B40F0A8807B681B695A1C7B681A6109
:102910007B68DB68002B08D17B681B681B893A89C0
:102920009A42C0F098800423A4E03B891B099BB223
:102930001A467B681B689B78013B1340002B40F0D4
:102940008A807B681A687B68DB6810461946FFF747
:10295000BBFCF860FB68012B01D802238AE0FB680E
:10296000B3F1FF3F01D1012384E07B681B68DA6982
:10297000FB689A4263D83B68002B01D1042379E0BD
:102980007B681A687B68DB6810461946FFF794FE7F
:10299000F860FB68002B01D107236BE0FB68012B7B
:1029A00001D1022366E0FB68B3F1FF3F01D10123AF
:1029B00060E07B681B6818460021FFF763FB034655
:1029C000002B01D0012355E07B681B683433184687
:1029D00000214FF40072FFF7F7FA7B681C687B68F0
:1029E0001B681846F968FFF751FC03462363002370
:1029F000FB7216E07B681B6801221A717B681B68FA
:102A000018460021FFF73EFB0346002B01D00123AF
:102A100030E07B681B681A6B01321A63FB7A013362
:102A2000FB727B681B689B78FA7A9A42E2D37B68D8
:102A30001B687A681268116BFA7A8A1A1A637B68C3
:102A4000FA68DA607B681B681846F968FFF71EFCB5
:102A500002467B681A617B683A89DA807B681A686B
:102A60003B8903F00F035B01303313441A1D7B686D
:102A70005A61002318461437BD4690BD80B586B014
:102A800000AF786039603B681B7803F0BF035A1EC3
:102A900013465B0013449B0013447B6100233B619E
:102AA0000123FB81294A3B6913441B7801333A68AF
:102AB00013441B781B029AB224493B690B441B78D0
:102AC00039680B441B7813439BB2BB81FB89002BF5
:102AD00018D0BB891846FFF7C3F90346FB817B6911
:102AE000FE2B0DD87B695A1C7A615B007A6813440F
:102AF0001B881846FFF7B4F90346FA899A4208D0B2
:102B000000231FE0BA894FF6FF739A4201D00023D9
:102B100018E03B6901333B613B690C2BC2D93B6830
:102B20001B7803F04003002B0BD0FB89002B08D04F
:102B30007B695B007A6813441B88002B01D000235B
:102B400000E0012318461837BD4680BDE06000084C
:102B500080B487B000AF786039603B681B7803F0C1
:102B60003F035A1E13465B0013449B0013447B61D2
:102B700000233B610123FB81254A3B6913441B78F9
:102B800001333A6813441B781B029AB220493B690F
:102B90000B441B7839680B441B7813439BB2BB81F1
:102BA000FB89002B0FD07B69FE2B01D9002329E084
:102BB0007B695A1C7A615B007A681344BA89FA818E
:102BC000FA891A8006E0BA894FF6FF739A4201D05B
:102BD000002317E03B6901333B613B690C2BCBD9E8
:102BE0003B681B7803F04003002B0AD07B69FE2B67
:102BF00001D9002306E07B695B007A681344002258
:102C00001A80012318461C37BD465DF8047B7047C7
:102C1000E060000880B489B000AFF860B960FA7174
:102C2000BB71BB680D33BA791A70BB680B330F22C6
:102C30001A70BB680C3300221A70BB681A3300226A
:102C40001A70BB681B3300221A70FB795A1E134698
:102C50005B0013449B001344FB610023FB820023B1
:102C6000BB61FA8A4FF6FF739A4207D0FB695A1C80
:102C7000FA615B00FA6813441B88FB821C4ABB693B
:102C800013441B78BA681344FA8AD2B21A70184AED
:102C9000BB6913441B780133BA681344FA8A120AD9
:102CA00092B2D2B21A70FB8A002B02D14FF6FF7398
:102CB000FB82BB690133BB61BB690C2BD1D9FA8A9A
:102CC0004FF6FF739A4206D0FB695B00FA68134423
:102CD0001B88002B03D1FB7943F04003FB71BB68D9
:102CE000FA791A702437BD465DF8047B704700BF3F
:102CF000E060000880B58AB000AFF860B9607A6023
:102D00007B80F868B9680B22FFF740F97B88052BB8
:102D10000FD97B889AB25208DB0313439AB27B68BF
:102D2000991C79601B8813447B807B681B88002B6F
:102D3000EFD107233B627B88DBB203F00F03DBB2EA
:102D4000303387F8273097F82730392B04D997F894
:102D50002730073387F827303B6A5A1E3A6207F15B
:102D600028010B4497F8272003F8142C7B881B09B3
:102D70007B807B88002BDED107F114023B6A134471
:102D80007E221A700023FB6102E0FB690133FB61C4
:102D9000FA693B6A9A4205D2FA68FB6913441B78C8
:102DA000202BF2D1FB695A1CFA61FA681A443B6A7B
:102DB000072B08D83B6A591C396207F128010B44DC
:102DC00013F8143C00E020231370FB69072BE9D9AA
:102DD0002837BD4680BD00BF80B485B000AF7860A5
:102DE0000023FB730B23BB60FB7BDAB25208DB01D1
:102DF0001343DAB27B68591C79601B781344FB7368
:102E0000BB68013BBB60BB68002BEDD1FB7B184668
:102E10001437BD465DF8047B704700BF80B586B0AF
:102E200000AF786078680021FFF7D2FC0346FB759D
:102E3000FB7D002B01D0FB7D93E0FF233B753B7DA9
:102E40007B757B681A687B681B6910461946FFF71B
:102E500019F90346FB75FB7D002B00D080E07B68F1
:102E60005B693B613B691B78BB75BB7D002B02D165
:102E70000423FB7574E03B690B331B7803F03F03BD
:102E8000FB73BB7DE52B07D0FB7B03F00803002B16
:102E900005D0FB7B0F2B02D0FF237B7556E0FB7B1D
:102EA0000F2B2FD17B68DB69002B4FD0BB7D03F04C
:102EB0004003002B0CD03B695B7B3B75BB7D23F053
:102EC0004003BB75BB7D7B757B68DA887B681A84A1
:102ED000BA7D7B7D9A4212D13B690D331B783A7DD6
:102EE0009A420CD17B68DB6918463969FFF7C6FD49
:102EF0000346002B03D07B7D013BDBB200E0FF23C8
:102F00007B7523E07B7D002B07D13869FFF764FFD9
:102F100003463A7D9A4200D122E0FF237B757B680D
:102F20004FF6FF721A847B689B690B331B7803F0A2
:102F30000103002B0AD17B689B69386919460B2273
:102F4000FFF75CF80346002B00D109E07868002108
:102F5000FFF7C0FC0346FB75FB7D002B3FF471AF10
:102F6000FB7D18461837BD4680BD00BF80B586B0D2
:102F700000AF7860FF237B75FF233B750423FB754F
:102F800076E07B681A687B681B6910461946FFF774
:102F900079F80346FB75FB7D002B00D06CE07B6865
:102FA0005B693B613B691B78BB75BB7D002B02D124
:102FB0000423FB7560E03B690B331B7803F03F0390
:102FC000FB73BB7DE52B07D0FB7B03F00803002BD5
:102FD00005D0FB7B0F2B02D0FF237B753EE0FB7BF4
:102FE0000F2B2BD1BB7D03F04003002B0CD03B6992
:102FF0005B7B3B75BB7D23F04003BB75BB7D7B7565
:103000007B68DA887B681A84BA7D7B7D9A4212D10C
:103010003B690D331B783A7D9A420CD17B68DB69A2
:1030200018463969FFF794FD0346002B03D07B7DDA
:10303000013BDBB200E0FF237B750FE07B7D002BC3
:1030400006D13869FFF7C8FE03463A7D9A4204D09C
:103050007B684FF6FF721A840EE00DE0786800215D
:10306000FFF738FC0346FB75FB7D002B00D003E027
:103070007B681B69002B84D1FB7D002B02D07B6811
:1030800000221A61FB7D18461837BD4680BD00BF7F
:1030900080B58CB000AF78607B689B697B627B6891
:1030A000DB693B6207F10C031846796A0C22FEF7D4
:1030B0006DFFFB7D03F02003002B01D006231DE1F3
:1030C000FB7D03F00103002B35D07B6A0B3300221C
:1030D0001A707B680022DA610123BB8515E007F1D5
:1030E0000C02BB8D786A11463A6AFFF703FE7868D6
:1030F000FFF794FE034687F82F3097F82F30002B08
:1031000000D005E0BB8D0133BB85BB8D632BE6D9B9
:10311000BB8D642B01D10723F0E097F82F30042BEF
:1031200002D097F82F30E9E07B6A0B33FA7D1A70F2
:103130007B683A6ADA61FB7D03F00203002B16D04C
:1031400000237B8502E07B8D01337B857B8D5B00DB
:103150003A6A13441B88002BF5D17B8D1933694AD9
:1031600082FB03129210DB17D31A7B8501E0012347
:103170007B8578680021FFF72BFB034687F82F300B
:1031800097F82F30002B02D097F82F30B6E00023AD
:103190003B853B8DBB857B681A687B681B69104645
:1031A0001946FEF76FFF034687F82F3097F82F3048
:1031B000002B00D025E07B685B691B78FB77FB7FE9
:1031C000E52B02D0FB7F002B0ED1BB8D002B02D153
:1031D0007B68DB883B85BB8D0133BB85BA8D7B8DDE
:1031E0009A4200D10DE001E00023BB8578680121FF
:1031F000FFF770FB034687F82F3097F82F30002B2E
:10320000C9D097F82F30002B46D17B8D012B43D9A5
:103210003B8D78681946FFF7DBFA034687F82F30B5
:1032200097F82F30002B37D17B689B691846FFF742
:10323000D3FD0346BB777B8D013B7B857B681A689A
:103240007B681B6910461946FEF71CFF034687F88A
:103250002F3097F82F30002B00D01DE07B68D86905
:103260007B6859697B8DDAB2BB7FFFF7D3FC7B6843
:103270001B6801221A7178680021FFF72BFB0346B7
:1032800087F82F3097F82F30002B05D17B8D013B2D
:103290007B857B8D002BD1D197F82F30002B2BD144
:1032A0007B681A687B681B6910461946FEF7EAFEC0
:1032B000034687F82F3097F82F30002B1CD17B68FE
:1032C0005B69BB61B86900212022FEF77DFE7B6847
:1032D0009B69B86919460B22FEF758FEBB690C338F
:1032E0007A6892690B32127802F01802D2B21A7020
:1032F0007B681B6801221A7197F82F301846303707
:10330000BD4680BD4FECC44E80B58AB000AF78603A
:10331000396000237B617B69BB613B681B683B6153
:103320007B68DB69FB60BB695A1CBA613A6913446C
:103330001B78BB84BB8C1F2B2FD9BB8C2F2B2CD085
:10334000BB8C5C2B29D07B69FE2B01D90623C7E1FE
:10335000BB8CDBB2BB84BB8C18460121FEF744FD5D
:103360000346BB84BB8C002B01D10623B8E1BB8C88
:103370007F2B09D8BB8CA6481946FEF767FE03468B
:10338000002B01D00623ABE17B695A1C7A615B00FC
:10339000FA681344BA8C1A80C5E73A69BB691A44C3
:1033A0003B681A60BB8C1F2B01D8042300E000236C
:1033B00087F826307B69012B09D17B6903F1004333
:1033C000013B5B00FA6813441B882E2B16D07B69E7
:1033D000022B3AD17B6903F10043013B5B00FA68A1
:1033E00013441B882E2B30D17B6903F10043023B31
:1033F0005B00FA6813441B882E2B26D17B695B0087
:10340000FA68134400221A8000233B620EE07B68B6
:103410009A693B6A1A44396A7B69994201D22E2320
:1034200000E0202313703B6A01333B623B6A0A2BA6
:10343000EDD97B689A693B6A134497F8262042F0DD
:103440002002D2B21A7000234AE112E07B6903F134
:103450000043013B5B00FA6813441B88BB84BB8CB0
:10346000202B03D0BB8C2E2B00D005E07B69013BC9
:103470007B617B69002BE9D17B69002B01D106239D
:103480002EE17B695B00FA68134400221A807B6896
:103490009B69184620210B22FEF796FD0023BB6195
:1034A00002E0BB690133BB61BB695B00FA6813448E
:1034B0001B88202BF5D0BB695B00FA6813441B887E
:1034C0002E2BEED0BB69002B06D097F8263043F0A8
:1034D000030387F8263003E002E07B69013B7B6150
:1034E0007B69002B09D07B6903F10043013B5B0042
:1034F000FA6813441B882E2BEFD100233B62002374
:1035000087F827300823FB61BB695A1CBA615B004E
:10351000FA6813441B88BB84BB8C002B00D197E056
:10352000BB8C202B06D0BB8C2E2B0AD1BA697B69B1
:103530009A4206D097F8263043F0030387F82630E6
:1035400085E03A6AFB699A4203D2BA697B699A427A
:1035500024D1FB690B2B06D197F8263043F00303E7
:1035600087F8263074E0BA697B699A4205D097F8EB
:10357000263043F0030387F82630BA697B699A4204
:1035800000D965E07B69BB6108233B620B23FB61CB
:1035900097F827309B0087F8273058E0BB8C7F2BAB
:1035A00014D9BB8C18460021FEF71EFC0346BB84D1
:1035B000BB8C002B04D0BB8C803B164AD35CBB84F5
:1035C00097F8263043F0020387F82630BB8C002B97
:1035D00007D0BB8C10481946FEF738FD0346002B78
:1035E00008D05F23BB8497F8263043F0030387F8A5
:1035F000263022E0BB8C402B10D9BB8C5A2B0DD827
:1036000097F8273043F0020387F8273015E000BF12
:10361000F060000804610008FC600008BB8C602BAF
:103620000BD9BB8C7A2B08D897F8273043F00103CD
:1036300087F82730BB8C203BBB847B689A693B6A48
:10364000591C39621344BA8CD2B21A705CE75BE73A
:103650007B689B691B78E52B03D17B689B690522FE
:103660001A70FB69082B04D197F827309B0087F864
:10367000273097F8273003F00C030C2B05D097F870
:10368000273003F00303032B05D197F8263043F0CE
:10369000020387F8263097F8263003F00203002B48
:1036A00017D197F8273003F00303012B05D197F8C2
:1036B000263043F0100387F8263097F8273003F0C0
:1036C0000C03042B05D197F8263043F0080387F844
:1036D00026307B689B690B3397F826201A700023ED
:1036E00018462837BD4680BD80B58AB000AF7860E7
:1036F00039603B6809333B627B681B69002B00F033
:1037000091807B685B697B617B691B7BFB74002319
:103710007B6223E07A697B6A13441B78FB77FB7F2B
:10372000202B00D11DE0FB7F052B01D1E523FB778A
:10373000FB7C03F00803002B08D0FB7F402B05D94E
:10374000FB7F5A2B02D8FB7F2033FB773B6A5A1C46
:103750003A62FA7F1A707B6A01337B627B6A072BBD
:10376000D8D97B6908331B78202B29D03B6A5A1C97
:103770003A622E221A7008237B621EE07A697B6A05
:1037800013441B78FB77FB7F202B00D118E0FB7CD8
:1037900003F01003002B08D0FB7F402B05D9FB7FE3
:1037A0005A2B02D8FB7F2033FB773B6A5A1C3A62C4
:1037B000FA7F1A707B6A01337B627B6A0A2BDDD940
:1037C0007B69DA7A3B681A727B691F331B781A06A9
:1037D0007B691E331B781B041A437B691D331B78DE
:1037E0001B021A437B691C331B781A433B681A601F
:1037F0007B6919331B781B029AB27B6918331B78DB
:1038000013439BB29AB23B689A807B6917331B784B
:103810001B029AB27B6916331B7813439BB29AB290
:103820003B68DA803B6A00221A703B689B69002B78
:1038300041D03B68DB69002B3DD03B689B69FB6056
:1038400000237B627B681B69002B2FD07B681A8C5E
:103850004FF6FF739A4229D07B68DB69BB611DE09C
:103860007B8918460021FEF7BFFA03467B817B89DE
:10387000002B02D100237B6218E03B68DB695A1EF3
:103880007B6A9A4202D800237B620FE07B6A5A1C53
:103890007A62FA6813447A89D2B21A70BB699A1CA8
:1038A000BA611B887B817B89002BD9D1FA687B6A3E
:1038B000134400221A702837BD4680BD80B584B0FD
:1038C00000AF786039603B681B782F2B03D03B68D2
:1038D0001B785C2B06D13B6801333B607B68002280
:1038E0009A6004E07B681B689A697B689A603B6811
:1038F0001B781F2B09D878680021FEF769FF034663
:10390000FB737B6800225A6165E03B467868194684
:10391000FFF7FAFC0346FB73FB7B002B00D05AE059
:103920007868FFF77BFA0346FB737B689B69DB7A59
:10393000BB73FB7B002B20D0FB7B042B00D04AE029
:10394000BB7B03F02003002B0ED07B6800229A6023
:103950007B6800225A610023FB73BB7B03F00403E6
:10396000002B09D100BFD0E7BB7B03F00403002B81
:1039700002D10523FB732EE02DE0BB7B03F0040393
:10398000002B00D027E07B685B69BB60BB680B3312
:103990001B7803F01003002B02D10523FB731AE000
:1039A000BB6815331B781B029AB2BB6814331B78B3
:1039B00013439BB29BB21A04BB681B331B781B02D8
:1039C00099B2BB681A331B780B439BB29BB21A4364
:1039D0007B689A6099E7FB7B18461037BD4680BD2F
:1039E00080B582B000AF786039607B685A787B68B8
:1039F0003433104619463A680123FDF707FE0346A3
:103A0000002B01D0032342E07B6893F833321B0282
:103A10009AB27B6893F8323213439BB21AB21E4BB0
:103A20009A4201D0022332E07B6893F86D301A0687
:103A30007B6893F86C301B041A437B6893F86B30F7
:103A40001B021A437B6893F86A30134323F07F42CA
:103A5000124B9A4201D1002319E07B6893F8893018
:103A60001A067B6893F888301B041A437B6893F826
:103A700087301B021A437B6893F88630134323F088
:103A80007F42064B9A4201D1002300E001231846F1
:103A90000837BD4680BD00BF55AAFFFF4641540010
:103AA00080B592B000AFF860B9601346FB71FB6857
:103AB0001B68FB62FB6A1B78303B3B643B6C092B49
:103AC0000BD8FB6A01331B783A2B06D1FB6A023311
:103AD000FB62FB68FA6A1A6002E0A84B1B783B6441
:103AE0003B6C002B01D00B2361E2A54B3A6C53F8E1
:103AF0002230BB62BB68BA6A1A60BB6A002B01D174
:103B00000C2354E2BB6A1B78002B1AD0BB6A5B788B
:103B10001846FDF765FD034687F8273097F82730EC
:103B200003F00103002B0CD1FB79002B07D097F891
:103B3000273003F00403002B01D00A2337E20023CF
:103B400035E2BB6A00221A703B6CDAB2BB6A5A706B
:103B5000BB6A5B781846FDF75BFC034687F82730A5
:103B600097F8273003F00103002B01D003231EE256
:103B7000FB79002B07D097F8273003F00403002BC4
:103B800001D00A2313E20023FB63B86AF96BFFF745
:103B900027FF034687F8473097F84730012B22D19B
:103BA000BB6A03F5F9733B623B6A04331B78002B55
:103BB00019D03B6A0B331B781A063B6A0A331B7811
:103BC0001B041A433B6A09331B781B021A433B6AE6
:103BD00008331B781343FB63B86AF96BFFF700FFE8
:103BE000034687F8473097F84730032B01D101236C
:103BF000DDE197F84730002B01D00D23D7E1BB6AF8
:103C000093F840301B029AB2BB6A93F83F301343DB
:103C10009BB21BB2B3F5007F01D00D23C7E1BB6A95
:103C200093F84B301B029AB2BB6A93F84A301343A5
:103C30009BB29BB2BB63BB6B002B12D1BB6A93F8E8
:103C40005B301A06BB6A93F85A301B041A43BB6AEE
:103C500093F859301B021A43BB6A93F85830134348
:103C6000BB63BB6ABA6B1A62BB6A93F84430FB77DA
:103C7000BB6AFA7FDA70FB7F012B04D0FB7F022B3B
:103C800001D00D2393E1FA7FBB6B02FB03F3BB630F
:103C9000BB6A93F84130FB77BB6AFA7F9A70FB7F6F
:103CA000002B05D0FA7FFB7F013B1340002B01D096
:103CB0000D237CE1BB6A93F846301B029AB2BB6AC3
:103CC00093F8453013439BB29AB2BB6A1A81BB6A20
:103CD0001B8903F00F039BB2002B01D00D2366E17B
:103CE000BB6A93F848301B029AB2BB6A93F847301C
:103CF00013439BB29BB27B637B6B002B12D1BB6ADD
:103D000093F857301A06BB6A93F856301B041A43CF
:103D1000BB6A93F855301B021A43BB6A93F85430C0
:103D200013437B63BB6A93F843301B029AB2BB6AAE
:103D300093F8423013439BB2BB83BB8B002B01D162
:103D40000D2334E1BA8BBB6B1A44BB6A1B891B0978
:103D50009BB21344BB617A6BBB699A4201D20D23BB
:103D600025E17A6BBB69D21ABB6A9B78B2FBF3F38D
:103D70007B617B69002B05D10D2318E16A090020C6
:103D800064090020012387F847307A6940F6F5730B
:103D90009A4202D9022387F847307A694FF6F573C1
:103DA0009A4202D9032387F847307B699A1CBB6A81
:103DB000DA61FA6BBB691A44BB6ADA62BA8BFB6BD5
:103DC0001A44BB6A5A6297F84730032B1ED1BB6A6C
:103DD0001B89002B01D00D23E9E0BB6A93F8633007
:103DE0001A06BB6A93F862301B041A43BB6A93F845
:103DF00061301B021A43BB6A93F860301A43BB6AF6
:103E00009A62BB6ADB699B003B631FE0BB6A1B894C
:103E1000002B01D10D23CAE0BB6A5A6ABB6B1A445E
:103E2000BB6A9A6297F84730022B03D1BB6ADB6901
:103E30005B000AE0BB6ADA6913465B0013445A0868
:103E4000BB6ADB6903F0010313443B63BB6A1A6A74
:103E50003B6B03F2FF135B0A9A4201D20D23A6E0EB
:103E6000BB6A4FF0FF321A61BB6A0022DA6097F832
:103E70004730032B40F08380BB6A00225A71BB6A33
:103E800093F865301B029AB2BB6A93F8643013430F
:103E90009BB29BB21A46FB6B1A44BB6A5A61BB6A5F
:103EA0005978BB6A03F13402BB6A5B690846114664
:103EB0001A460123FDF7AAFB0346002B5FD1BB6A1C
:103EC00093F833321B029AB2BB6A93F8323213432F
:103ED0009BB21AB2384B9A4251D1BB6A93F8373031
:103EE0001A06BB6A93F836301B041A43BB6A93F870
:103EF00035301B021A43BB6A93F834301A432F4BF8
:103F00009A423CD1BB6A93F81B321A06BB6A93F8FB
:103F10001A321B041A43BB6A93F819321B021A4364
:103F2000BB6A93F818321A43254B9A4227D1BB6AD1
:103F300093F823321A06BB6A93F822321B041A4301
:103F4000BB6A93F821321B021A43BB6A93F82032F2
:103F50001A43BB6ADA60BB6A93F81F321A06BB6A5F
:103F600093F81E321B041A43BB6A93F81D321B02DE
:103F70001A43BB6A93F81C321A43BB6A1A61BB6AC4
:103F800097F847201A700F4B1B8801339AB20D4BDC
:103F90001A800C4B1A88BB6ADA80BB6A00221A634B
:103FA000BB6A00221A71BB6A00229A61002318467C
:103FB0004837BD4680BD00BF55AAFFFF5252614140
:103FC000727241616809002080B485B000AF034679
:103FD0003960FB71FB79002B01D00B2316E0FA79D5
:103FE0000D4B53F82230FB60FB68002B02D0FB68BE
:103FF00000221A703B68002B02D03B6800221A7026
:10400000FA79054B396843F8221000231846143713
:10401000BD465DF8047B70476409002080B594B00C
:1040200000AFF860B9601346FB71FB6800221A60AC
:10403000FB7903F01F03FB71FB7923F00103DBB273
:1040400007F1080107F11C02084611461A46FFF75E
:1040500027FD034687F84F3007F110037B63A54B1C
:10406000BB6397F84F30002B09D1BB6807F11C02E6
:1040700010461946FFF722FC034687F84F303B6B8A
:10408000BB6497F84F30002B05D1BB6C002B02D1DD
:10409000062387F84F30FB7903F01C03002B00F058
:1040A000AF8097F84F30002B12D097F84F30042B89
:1040B00007D107F11C031846FEF7EAFF034687F80D
:1040C0004F30FB7943F00803FB713B6BBB6412E09C
:1040D000FB7903F00403002B03D0082387F84F304B
:1040E00009E0BB6C0B331B7803F01103002B02D0EB
:1040F000072387F84F3097F84F30002B7FD1FB799B
:1041000003F00803002B7AD0FDF796FC7864BB6CB3
:104110000E337A6CD2B21A70BB6C0F337A6C92B2D7
:10412000120A92B2D2B21A70BB6C10337A6C120CB3
:10413000D2B21A70BB6C11337A6C120ED2B21A70F2
:10414000BB6C0B3300221A70BB6C1C3300221A703C
:10415000BB6C1D3300221A70BB6C1E3300221A7018
:10416000BB6C1F3300221A70BB6C15331B781B020B
:104170009AB2BB6C14331B7813439BB29BB21A04E4
:10418000BB6C1B331B781B0299B2BB6C1A331B78B8
:104190000B439BB29BB213433B64BB6C1A330022AC
:1041A0001A70BB6C1B3300221A70BB6C14330022D4
:1041B0001A70BB6C153300221A70FB6901221A7148
:1041C0003B6C002B1BD0FB691B6B7B64FB691846A7
:1041D000396CFEF723FA034687F84F3097F84F30D3
:1041E000002B0CD1FB693A6C013ADA60FB69184686
:1041F000796CFDF747FF034687F84F301EE01DE05E
:1042000097F84F30002B19D1BB6C0B331B7803F0A0
:104210001003002B03D0042387F84F300EE0FB7906
:1042200003F00203002B09D0BB6C0B331B7803F0A7
:104230000103002B02D0072387F84F3097F84F3047
:10424000002B0FD1FB7903F00803002B03D0FB797F
:1042500043F02003FB71FB691A6BFB68DA61FB68B2
:10426000BA6C1A6297F84F30002B3DD1FB68FA798F
:104270009A71BB6C15331B781B029AB2BB6C14335A
:104280001B7813439BB29BB21A04BB6C1B331B7885
:104290001B0299B2BB6C1A331B780B439BB29BB2C7
:1042A0001A43FB681A61BB6C1F331B781A06BB6C80
:1042B0001E331B781B041A43BB6C1D331B781B0277
:1042C0001A43BB6C1C331B781A43FB68DA60FB682B
:1042D00000229A60FB6800229A61FA69FB681A6002
:1042E000FB69DA88FB689A8097F84F301846503798
:1042F000BD4680BD6C09002080B58CB000AFF86071
:10430000B9607A603B60BB687B623B6800221A60E0
:10431000FB681A68FB689B8810461946FDF7CEFDBE
:10432000034687F8233097F82330002B02D097F804
:1043300023303CE1FB689B79DBB25BB2002B01DAF6
:10434000022334E1FB689B7903F00103002B01D1C8
:1043500007232CE1FB68DA68FB689B68D31AFB61D2
:104360007A68FB699A4202D9FB697B601AE119E11C
:10437000FB689B68C3F30803002B40F0E580FB68F3
:104380009B685B0ADAB2FB681B689B78013BDBB277
:104390001340FB76FB7E002B2CD1FB689B68002B27
:1043A00002D1FB681B6908E0FB681A68FB685B695F
:1043B00010461946FDF788FF03467B617B69012B98
:1043C00008D8FB689B7963F07F03DAB2FB689A71C7
:1043D0000223ECE07B69B3F1FF3F08D1FB689B79D6
:1043E00063F07F03DAB2FB689A710123DFE0FB68B8
:1043F0007A695A61FB681A68FB685B69104619465E
:10440000FDF744FF38613B69002B08D1FB689B79BD
:1044100063F07F03DAB2FB689A710223C7E0FB7E88
:104420003A6913443B617B685B0ABB62BB6A002B41
:1044300044D0FA7EBB6A1A44FB681B689B789A4298
:1044400006D9FB681B689B781A46FB7ED31ABB62B1
:10445000FB681B685A78BB6ADBB21046796A3A6916
:10446000FDF7D4F80346002B08D0FB689B7963F076
:104470007F03DAB2FB689A71012398E0FB689B79AD
:1044800003F04003002B15D0FB689A693B69D21AF0
:10449000BB6A9A420ED2FB689A693B69D31A5B02E7
:1044A0007A6A1A44FB682433104619464FF40072A6
:1044B000FDF76CFDBB6A5B02FB625FE0FB689B790A
:1044C00003F04003002B20D0FB681B685978FB6881
:1044D00003F12402FB689B69084611461A46012332
:1044E000FDF7FEF80346002B08D0FB689B7963F0CC
:1044F0007F03DAB2FB689A71012358E0FB689B796D
:1045000023F04003DAB2FB689A71FB689A693B6951
:104510009A4216D0FB681B685A78FB682433104611
:1045200019463A690123FDF771F80346002B08D0BC
:10453000FB689B7963F07F03DAB2FB689A71012311
:1045400035E0FB683A699A61FB689B68C3F308032E
:10455000C3F50073FB62FA6A7B689A4201D97B68F3
:10456000FB62FB689B68C3F308032033FA681344BB
:104570000433786A1946FA6AFDF708FD7A6AFB6A1D
:1045800013447B62FB689A68FB6A1A44FB689A6072
:104590003B681A68FB6A1A443B681A607A68FB6ACF
:1045A000D31A7B607B68002B7FF4E2AE00231846B1
:1045B0003037BD4680BD00BF80B58AB000AFF8601F
:1045C000B9607A603B60BB68BB613B6800221A60DF
:1045D000FB681A68FB689B8810461946FDF76EFC5D
:1045E0000346FB75FB7D002B01D0FB7D6BE1FB6877
:1045F0009B79DBB25BB2002B01DA022363E1FB683B
:104600009B7903F00203002B01D107235BE1FB68D8
:10461000DA687B681A44FB68DB689A4202D200239E
:104620007B603AE139E1FB689B68C3F30803002B28
:1046300040F0FE80FB689B685B0ADAB2FB681B688F
:104640009B78013BDBB21340BB75BB7D002B3DD19A
:10465000FB689B68002B10D1FB681B697B627B6A3F
:10466000002B13D1FB681B6818460021FEF724F8C5
:104670007862FB687A6A1A6108E0FB681A68FB686E
:104680005B6910461946FEF717F878627B6A002BC3
:1046900000D106E17B6A012B08D1FB689B7963F0AE
:1046A0007F03DAB2FB689A7102230CE17B6AB3F1F3
:1046B000FF3F08D1FB689B7963F07F03DAB2FB68A8
:1046C0009A710123FFE0FB687A6A5A61FB689B7963
:1046D00003F04003002B20D0FB681B685978FB686F
:1046E00003F12402FB689B69084611461A46012320
:1046F000FCF7F6FF0346002B08D0FB689B7963F0BC
:104700007F03DAB2FB689A710123DCE0FB689B79D6
:1047100023F04003DAB2FB689A71FB681A68FB6801
:104720005B6910461946FDF7B1FD38613B69002B06
:1047300008D1FB689B7963F07F03DAB2FB689A715A
:104740000223C0E0BB7D3A6913443B617B685B0A8E
:10475000FB61FB69002B46D0BA7DFB691A44FB68FC
:104760001B689B789A4206D9FB681B689B781A469F
:10477000BB7DD31AFB61FB681B685A78FB69DBB20F
:104780001046B9693A69FCF7ABFF0346002B08D025
:10479000FB689B7963F07F03DAB2FB689A710123AF
:1047A00091E0FB689A693B69D21AFB699A4216D27A
:1047B000FB6803F12402FB6899693B69CB1A5B0231
:1047C000B9690B44104619464FF40072FDF7DEFB41
:1047D000FB689B7923F04003DAB2FB689A71FB69AE
:1047E0005B023B6245E0FB689A693B699A421CD0D8
:1047F000FB689A68FB68DB689A4216D2FB681B6804
:104800005A78FB682433104619463A690123FCF7AD
:10481000FDFE0346002B08D0FB689B7963F07F0305
:10482000DAB2FB689A7101234DE0FB683A699A613C
:10483000FB689B68C3F30803C3F500733B623A6AE5
:104840007B689A4201D97B683B62FB689B68C3F333
:1048500008032033FA68134404331846B9693A6AE6
:10486000FDF794FBFB689B7943F04003DAB2FB68E9
:104870009A71BA693B6A1344BB61FB689A683B6AE8
:104880001A44FB689A603B681A683B6A1A443B68A2
:104890001A607A683B6AD31A7B607B68002B7FF4CE
:1048A000C2AEFB689A68FB68DB689A4203D9FB6872
:1048B0009A68FB68DA60FB689B7943F02003DAB200
:1048C000FB689A71002318462837BD4680BD00BF9B
:1048D00080B586B000AF78607B681A687B689B887B
:1048E00010461946FDF7EAFA0346FB75FB7D002BDF
:1048F00040F0AB807B689B7903F02003002B00F035
:10490000A4807B689B7903F04003002B19D07B685F
:104910001B6859787B6803F124027B689B69084611
:1049200011461A460123FCF7DBFE0346002B01D09B
:1049300001238BE07B689B7923F04003DAB27B682C
:104940009A717B681A687B68DB6910461946FDF727
:1049500099FB0346FB75FB7D002B76D17B681B6AB8
:104960003B613B690B333A690B32127842F020020B
:10497000D2B21A703B691C337A68D268D2B21A700C
:104980003B691D337A68D26892B2120A92B2D2B2EF
:104990001A703B691E337A68D268120CD2B21A7050
:1049A0003B691F337A68D268120ED2B21A703B6923
:1049B0001A337A681269D2B21A703B691B337A686B
:1049C000126992B2120A92B2D2B21A703B691433CF
:1049D0007A681269120CD2B21A703B6915337A6880
:1049E0001269120C92B2120A92B2D2B21A70FDF788
:1049F00023F8F8603B691633FA68D2B21A703B6943
:104A00001733FA6892B2120A92B2D2B21A703B69A4
:104A10001833FA68120CD2B21A703B691933FA686B
:104A2000120ED2B21A707B689B7923F02003DAB29F
:104A30007B689A717B681B6801221A717B681B680E
:104A40001846FDF77DFB0346FB75FB7D18461837BE
:104A5000BD4680BD80B584B000AF78607868FFF750
:104A600037FF0346FB73FB7B002B02D17B680022E0
:104A70001A60FB7B18461037BD4680BD80B586B0F6
:104A800000AF786039607B683A46104619460022CC
:104A9000FFF706F80346FB75FB7D002B50D17B68C2
:104AA00007F108029A617B68284ADA613B687868F6
:104AB0001946FEF703FF0346FB75FB7D002B3AD139
:104AC0007B685B69002B28D07B685B690B331B78A4
:104AD00003F01003002B1ED07B685B6915331B7835
:104AE0001B029AB27B685B6914331B7813439BB239
:104AF0009BB21A047B685B691B331B781B0299B25B
:104B00007B685B691A331B780B439BB29BB21A43D9
:104B10007B689A6001E00523FB75FB7D002B0AD1C1
:104B20007B681B68DA887B689A8078680021FDF7CB
:104B30004FFE0346FB75FB7D042B01D10523FB755E
:104B4000FB7D18461837BD4680BD00BF6C090020AC
:104B500080B586B000AF786039607B681A687B6882
:104B60009B8810461946FDF7A9F90346FB75FB7DA6
:104B7000002B32D13B68002B06D178680021FDF76D
:104B800027FE0346FB7528E07B6807F108029A615F
:104B90007B68144ADA617868FEF7E8F90346FB752A
:104BA000FB7D042B04D17B6800221A610023FB7576
:104BB000FB7D002B11D178683968FEF795FD786888
:104BC0000021FDF787FE0346FB75FB7D042B04D116
:104BD0007B6800221A610023FB75FB7D184618379D
:104BE000BD4680BD6C09002080B594B000AF7860F0
:104BF000FCF722FF38643A1D07F1140310461946EA
:104C00000122FEF74DFF034687F84F3097F84F30EB
:104C1000002B40F0608107F10803FB628A4B3B6385
:104C20007B6807F1140210461946FEF747FE03465B
:104C300087F84F3097F84F30002B02D1082387F8C0
:104C40004F3097F84F30042B09D1FB6A0B331B7898
:104C500003F02003002B02D0062387F84F3097F88B
:104C60004F30042B40F037817B6918460021FDF757
:104C700023FDF863002387F84F30FB6B002B02D134
:104C8000072387F84F30FB6B012B02D1022387F8F3
:104C90004F30FB6BB3F1FF3F02D1012387F84F3058
:104CA00097F84F30002B07D17B6918460021FDF79C
:104CB000E9F9034687F84F3097F84F30002B40F062
:104CC000AD807B691846F96BFDF7E0FAB8647B6943
:104CD0003433BB63B86B00214FF40072FDF774F9F5
:104CE000B86B20210B22FDF76FF9BB6B2E221A70D7
:104CF000BB6B0B3310221A70BB6B16333A6CD2B2FB
:104D00001A70BB6B17333A6C92B2120A92B2D2B2DB
:104D10001A70BB6B18333A6C120CD2B21A70BB6BA0
:104D200019333A6C120ED2B21A70BB6B1A33FA6B8B
:104D3000D2B21A70BB6B1B33FA6B92B2120A92B2E8
:104D4000D2B21A70BB6B1433FA6B120CD2B21A7057
:104D5000BB6B1533FA6B120C92B2120A92B2D2B23A
:104D60001A70BB6B20331846B96B2022FDF70EF981
:104D7000BB6B21332E221A70FB697B647B691B7825
:104D8000032B06D17B699A6A7B6C9A4201D100237E
:104D90007B64BB6B3A337A6CD2B21A70BB6B3B3319
:104DA0007A6C92B2120A92B2D2B21A70BB6B3433DE
:104DB0007A6C120CD2B21A70BB6B35337A6C120C4F
:104DC00092B2120A92B2D2B21A707B699B7887F8BB
:104DD0004E301FE07A69BB6C591CB96413637B6960
:104DE00001221A717B6918460021FDF74BF9034631
:104DF00087F84F3097F84F30002B00D00EE0B86B9B
:104E000000214FF40072FDF7DFF897F84E30013BB8
:104E100087F84E3097F84E30002BDBD197F84F30A3
:104E2000002B07D107F114031846FEF731F90346AA
:104E300087F84F3097F84F30002B07D07B69184622
:104E4000F96BFDF7EBFB46E06C090020BB6ABB6326
:104E5000BB6B0B3310221A70BB6B16333A6CD2B299
:104E60001A70BB6B17333A6C92B2120A92B2D2B27A
:104E70001A70BB6B18333A6C120CD2B21A70BB6B3F
:104E800019333A6C120ED2B21A70BB6B1A33FA6B2A
:104E9000D2B21A70BB6B1B33FA6B92B2120A92B287
:104EA000D2B21A70BB6B1433FA6B120CD2B21A70F6
:104EB000BB6B1533FA6B120C92B2120A92B2D2B2D9
:104EC0001A707B6901221A717B691846FDF738F95F
:104ED000034687F84F3097F84F3018465037BD4695
:104EE00080BD00BF80B582B000AF78607A68174B94
:104EF0009A420AD14FF480500121FBF787FD4FF40D
:104F000080500021FBF782FD1CE07A68104B9A422A
:104F10000AD14FF480400121FBF75AFD4FF4804045
:104F20000021FBF755FD0DE07A680A4B9A4209D142
:104F30004FF400400121FBF74BFD4FF400400021EE
:104F4000FBF746FD0837BD4680BD00BF003001407D
:104F500000380040003C004080B485B000AF78606D
:104F600039600023FB817B681B88FB81FB8903F48C
:104F70004153FB813B681A883B685B8813439AB2B4
:104F80003B689B8813439AB23B68DB8813439AB211
:104F90003B681B8913439AB23B685B8913439AB2FF
:104FA0003B689B8913439AB23B68DB8913439AB2EF
:104FB000FB891343FB817B68FA891A807B689B8B92
:104FC0009BB223F400639AB27B689A833B681A8A87
:104FD0007B681A821437BD465DF8047B704700BFBA
:104FE00080B483B000AF78600B46FB70FB78002B79
:104FF00008D07B681B889BB243F040039AB27B6861
:105000001A8007E07B681B889BB223F040039AB2AA
:105010007B681A800C37BD465DF8047B704700BF83
:1050200080B483B000AF78600B467B807B687A8861
:105030009A810C37BD465DF8047B704780B485B01B
:1050400000AF78600B467B800023FB737B681B8975
:105050009AB27B8813409BB2002B02D00123FB73D2
:1050600001E00023FB73FB7B18461437BD465DF857
:10507000047B7047024B0146186800F00BB800BF74
:1050800028040020024B0146186800F0C5BC00BF90
:10509000280400202DE9F04F01F10B05162D83B0F7
:1050A000064627D935F0070527D4A94225D830462A
:1050B00000F08CFAB5F5FC7F26D2C14F4FEAD50C33
:1050C00007EBCC03DC689C4200F0D2816368E268A5
:1050D000A16823F00303234430465D68CA6045F0AD
:1050E000010591605D6000F073FA0834204603B05A
:1050F000BDE8F08F1025A942D9D900240C23204601
:10510000336003B0BDE8F08F5FEA552C00F08A8071
:10511000BCF1040F00F260814FEA951C0CF1380CD1
:105120004FEA4C01A64F07EB8101CC68A14205D1A3
:105130000CE0002B7ADAE468A14207D0626822F022
:105140000302531B0F2BF4DD0CF1FF3C0CF1010C9F
:105150009B4B3C6903F1080E744500F07E81616849
:1051600021F003014A1B0F2A00F36481002AC3F8CF
:1051700014E0C3F810E06ADAB1F5007F80F03A81FC
:10518000C90803EBC1004FEAA1085A688168A16011
:105190004FF0010909FA08F848EA0202E0605A6093
:1051A0008460CC604FEAAC030120984090425BD809
:1051B000024206D12CF0030C400002420CF1040C18
:1051C000FAD007EBCC084446E146E3689C4207D19D
:1051D00045E1002A80F25681DB689C4200F03F8165
:1051E000596821F003014A1B0F2AF2DD1C46D3F84F
:1051F0000CC054F8088F591945F0010942F0010517
:10520000C3F804903046C8F80CC0CCF80880796127
:105210003961C1F80CE0C1F808E04D608A5000F037
:10522000D7F963E77E214FF03F0C7BE72244E36828
:105230005068A16840F00105CB6030469960556028
:1052400000F0C6F90834204603B0BDE8F08F2144D1
:1052500030464B6843F001034B6000F0B9F9083465
:10526000204603B0BDE8F08FBC68636823F00309F3
:10527000A94504D3C5EB09030F2B00F39180514BD3
:10528000514A19681368013305EB010A04EB090B55
:1052900000F061810AF5805A0AF10F0A2AF47F6A48
:1052A0002AF00F0A30465146019200F093F9B0F10E
:1052B000FF3F8046019A00F00081834500F2FA80AA
:1052C000DFF810C1DCF80030C3455344CCF800309F
:1052D00000F04A8112683C4901321BBFCBEB080B3E
:1052E0005B44C1F80080CCF8003018F0070300F0F0
:1052F0001381C3F10802C3F5805390440833C244BC
:10530000CAF30B0ACAEB030A51463046CDF804C073
:1053100000F060F9431CDDF804C000F03581C8EBF3
:105320000002524442F00102DCF80030C7F8088065
:105330005344BC42C8F80420CCF80030DFF894A0F5
:1053400015D0B9F10F0F40F2EA806168A9F10C02A3
:1053500022F0070201F0010EA118052042EA0E0E0C
:105360000F2AC4F804E04860886000F21181174AEF
:10537000BC6811688B4288BF1360154A11688B4264
:1053800088BF1360626822F003029542C5EB0203F6
:1053900001D80F2B04DC304600F01AF90024A5E6F2
:1053A000621943F0010345F0010565603046BA60BB
:1053B000536000F00DF90834204603B0BDE8F08FCB
:1053C00034040020740B002040080020700B0020E3
:1053D0006C0B0020780B0020BCF1140F61D9BCF1DC
:1053E000540F00F28F804FEA153C0CF16E0C4FEA1F
:1053F0004C0197E64B0A042B58D9142B00F2AE80CF
:1054000003F15B02500007EB8000DFF8BC8183688A
:10541000834200F08A805A6822F00302914202D24D
:105420009B689842F7D1D9687A68E160A3608C6084
:10543000DC60B7E6611942F0010745F001056560DF
:10544000304659611961C1F80CE0C1F808E04F60BD
:105450008A50083400F0BCF848E65A68A2E609F120
:10546000010919F0030F04F108047FF4AEAE2DE03A
:1054700004F108036469A34208BF0CF1020C3FF475
:1054800067AE23E619441C464868DB6854F8082FC9
:1054900040F001054D603046D3609A6000F098F806
:1054A00024E60CF15B0C4FEA4C013BE68A093832EA
:1054B0005000A8E7BC423FF403AFBC68626822F02A
:1054C000030262E7D8F8008098457BD11CF0030FF7
:1054D000A8F108030CF1FF3CF4D17B6823EA000338
:1054E0007B60400098423FF6BFAE00283FF4BCAE60
:1054F0000342CC467FF465AE400003420CF1040C3D
:10550000FAD05EE6BCF5AA7F1AD84FEAD53C0CF17A
:10551000770C4FEA4C0105E64FF48053EFE6012388
:10552000C8F80430444600222FE791100120D8F833
:10553000042000FA01F10A43C8F80420194674E770
:1055400040F254539C451BD84FEA954C0CF17C0C0F
:105550004FEA4C01E6E50AF1100AA3E6542B1FD8E6
:105560000A0B6E3250004EE7CBF30B0100297FF49B
:10557000B1AE0AEB0901BA6841F001015160F6E6EB
:10558000FC214FF07E0CCDE501224FF0000ACBE666
:1055900004F10801304600F03FFADAF80030E6E6A0
:1055A000B3F5AA7F03D8CA0B773250002BE740F23D
:1055B0005452934203D88A0C7C32500023E7FC20DB
:1055C0007E2220E77B688CE734040020704700BF10
:1055D000704700BF38B5074C0023054608462360D6
:1055E000FCF7E2FB431C00D038BD2368002BFBD046
:1055F0002B6038BDA81B0020830770B506461FD15D
:105600000368A3F1013222EA030313F0803F08BFCD
:10561000031D15D1184653F8044BA4F1013525EAB2
:10562000040414F0803FF5D003782BB1431C1846D6
:1056300001330478002CFAD100F012F9304670BD25
:105640003046F1E740EA010C1CF0070F23D1BDF111
:10565000100DCDE90245CDE900676FF000064FF06F
:10566000000700BFF0E80223F1E80245A24282FAF7
:1056700046FCA7FA86FC08BFBCF1000F40F0D780BB
:10568000AB4283FA46FCA7FA86FC08BFBCF1000FC8
:1056900040F0CA80E6E710F0030C21D020F00300B0
:1056A00050F8042B5FEACC7C08D00FD211F801CB64
:1056B0005FFA92F3B3EB0C0C10D17BB111F801CB74
:1056C0005FFAA2F3B3EB0C0C08D13BB111F801CB9C
:1056D0005FFAB2F3B3EB0C0C00D10BB96046704724
:1056E000BDF1100DCDE90245CDE900676FF0000670
:1056F0004FF0000711F0030C2DD110F0040F0DD066
:1057000050F8042B51F8044BA24282FA46FCA7FA47
:1057100086FC08BFBCF1000F40F0898011F0040F37
:105720009FD051F8045B00BFF0E80223AA4282FA3E
:1057300046FCA7FA86FC08BFBCF1000F71D1F1E866
:105740000245A34283FA46FCA7FA86FC08BFBCF1D7
:10575000000F63D1E8E721F00301BCF1020F1ED076
:105760003BDA51F8045B00BF50F8043B4FEA1525C3
:1057700083FA46FCA7FA86FCB7EB0C2F03EA162245
:1057800008BFAA424DD151F8045BBCF1000F82EA78
:1057900003034FEA056208BF93423CD1E4E751F8A6
:1057A000045B00BF50F8043B4FEA154583FA46FC02
:1057B000A7FA86FCB7EB0C4F03EA164208BFAA42D1
:1057C0002FD151F8045BBCF1000F82EA03034FEACA
:1057D000054208BF93421ED1E4E751F8045B00BFC5
:1057E00050F8043B4FEA156583FA46FCA7FA86FC9D
:1057F000B7EB0C6F03EA166208BFAA4211D151F849
:10580000045BBCF1000F82EA03034FEA052208BFE4
:10581000934200D1E4E719BA12BA0AE019BA22BADF
:1058200007E011BA2ABA04E019BA2ABA01E011BA9B
:1058300022BA9CFA8CF0DDE90067DDE902451DF132
:10584000100D38B1B0FA80F0C0F1180021FA00F163
:1058500022FA00F20120914298BF8041704700BFB8
:1058600080EA0102844612F0030F4FD111F0030FBA
:1058700032D14DF8044D11F0040F51F8043B0BD018
:10588000A3F101329A4312F0803F04BF4CF8043B6D
:1058900051F8043B16D100BF51F8044BA3F101327B
:1058A0009A4312F0803FA4F101320BD14CF8043B33
:1058B000A24312F0803F04BF51F8043B4CF8044B64
:1058C000EAD023460CF8013B13F0FF0F4FEA3323D5
:1058D000F8D15DF8044B704711F0010F06D011F8B4
:1058E000012B0CF8012B002A08BF704711F0020FA2
:1058F000BFD031F8022B12F0FF0F16BF2CF8022B8D
:105900008CF8002012F47F4FB3D1704711F8012BAF
:105910000CF8012B002AF9D1704700BF20F00301D9
:1059200010F00300C0F1000051F8043B00F1040C3A
:105930004FEACC0C6FF000021CBF22FA0CF21343AA
:105940004FF0010C4CEA0C2C4CEA0C4CA3EB0C0273
:1059500022EA030212EACC1204BF51F8043B0430DD
:10596000F4D013F0FF0F1FBF013013F47F4F01304D
:1059700013F47F0F18BF0130704700BFF8B5234DF7
:105980000F460446FFF722FEAB685E6826F003066A
:10599000F11B01F6EF7121F47F6121F00F01A1F5F8
:1059A0008057B7F5805F07DB20460021FFF712FE26
:1059B000AB683344984204D02046FFF709FE00202C
:1059C000F8BD20467942FFF705FE01300DD0104B9F
:1059D000AA681968F61B46F001062046C91B5660E6
:1059E0001960FFF7F5FD0120F8BD20460021FFF703
:1059F000F1FDAB68C21A0F2ADEDD064D04492D68A1
:105A000042F00102401B5A600860D5E734040020D0
:105A1000780B0020400800202DE9F0410D46064695
:105A2000002955D0FFF7D2FD55F8041CDFF874C1EA
:105A300021F00103A5F10804E218DCF8080057681A
:105A4000904227F0030769D011F00101576032D06E
:105A50000021D0194068C00706D43B449068002953
:105A60004ED0D268C260906043F001026260E350A1
:105A7000E1B9B3F5007F2DD35A0A042A6AD89809F0
:105A8000383041000CEB810C4649DCF808206245B7
:105A900066D0516821F003018B4202D2926894458E
:105AA000F7D1D368E360A2609C60D4603046BDE863
:105AB000F041FFF78DBD55F8085C641B0CF1080838
:105AC000A06840452B4443D0E568C560A860C0E7A6
:105AD000BDE8F081DB080CEBC3020125DCF8040013
